{
	"data": {
		"bytecode": {
			"linkReferences": {},
			"object": "608060405234801561001057600080fd5b506145bb806100206000396000f3fe6080604052600436106102725760003560e01c8063658e48211161014f578063d3e78e4d116100c1578063f46b80ca1161007a578063f46b80ca14610930578063f7888aec1461096d578063f85fc0ab146109aa578063fbfe3ab2146109d5578063fc6d4e3914610a12578063fdbb219d14610a2e57610272565b8063d3e78e4d14610848578063d547741f14610873578063dcda7dad1461089c578063e1c7392a146108c7578063f2d4120e146108de578063f3fef3a31461090757610272565b8063a0cf0aea11610113578063a0cf0aea14610726578063a217fddf14610751578063ae876f611461077c578063b278110f146107a5578063bf7cb70b146107e2578063c23f001f1461080b57610272565b8063658e4821146106455780636bb85f4c1461066e57806380c78f1c1461069757806391d14854146106c05780639d082c98146106fd57610272565b806324d7806c116101e857806331ac9920116101ac57806331ac99201461054d57806336568abe146105765780633b8453ca1461059f5780633d0950a8146105c857806342e228ef146105f157806360e007a61461061a57610272565b806324d7806c1461046857806324ec7590146104a55780632620d800146104d05780632a0acc6a146104f95780632f2ff15d1461052457610272565b8063102d79271161023a578063102d79271461035c5780631037d18c1461038757806310881166146103b0578063155dc549146103d95780631ac3ddeb14610402578063248a9ca31461042b57610272565b806301ffc9a714610277578063041c60ee146102b45780630560bd96146102dd5780630b67d9251461031a5780630d6aef0414610345575b600080fd5b34801561028357600080fd5b5061029e6004803603810190610299919061323c565b610a59565b6040516102ab9190613284565b60405180910390f35b3480156102c057600080fd5b506102db60048036038101906102d69190613304565b610ad3565b005b3480156102e957600080fd5b5061030460048036038101906102ff91906133af565b610b3c565b6040516103119190613284565b60405180910390f35b34801561032657600080fd5b5061032f610b6f565b60405161033c91906133eb565b60405180910390f35b34801561035157600080fd5b5061035a610b93565b005b34801561036857600080fd5b50610371610bc8565b60405161037e9190613284565b60405180910390f35b34801561039357600080fd5b506103ae60048036038101906103a99190613304565b610bdb565b005b3480156103bc57600080fd5b506103d760048036038101906103d29190613304565b610c13565b005b3480156103e557600080fd5b5061040060048036038101906103fb9190613432565b610c4b565b005b34801561040e57600080fd5b50610429600480360381019061042491906133af565b610ca8565b005b34801561043757600080fd5b50610452600480360381019061044d9190613495565b610d6d565b60405161045f91906134d1565b60405180910390f35b34801561047457600080fd5b5061048f600480360381019061048a91906133af565b610d8d565b60405161049c9190613284565b60405180910390f35b3480156104b157600080fd5b506104ba610dc0565b6040516104c79190613505565b60405180910390f35b3480156104dc57600080fd5b506104f760048036038101906104f29190613304565b610dc6565b005b34801561050557600080fd5b5061050e610dfe565b60405161051b91906134d1565b60405180910390f35b34801561053057600080fd5b5061054b60048036038101906105469190613520565b610e22565b005b34801561055957600080fd5b50610574600480360381019061056f919061358c565b610e43565b005b34801561058257600080fd5b5061059d60048036038101906105989190613520565b610e58565b005b3480156105ab57600080fd5b506105c660048036038101906105c191906135b9565b610edb565b005b3480156105d457600080fd5b506105ef60048036038101906105ea9190613304565b610fad565b005b3480156105fd57600080fd5b506106186004803603810190610613919061363a565b610fe5565b005b34801561062657600080fd5b5061062f611046565b60405161063c9190613284565b60405180910390f35b34801561065157600080fd5b5061066c60048036038101906106679190613304565b611059565b005b34801561067a57600080fd5b5061069560048036038101906106909190613432565b6110b9565b005b3480156106a357600080fd5b506106be60048036038101906106b99190613304565b611116565b005b3480156106cc57600080fd5b506106e760048036038101906106e29190613520565b61114e565b6040516106f49190613284565b60405180910390f35b34801561070957600080fd5b50610724600480360381019061071f9190613304565b6111b9565b005b34801561073257600080fd5b5061073b6111f1565b60405161074891906133eb565b60405180910390f35b34801561075d57600080fd5b506107666111f6565b60405161077391906134d1565b60405180910390f35b34801561078857600080fd5b506107a3600480360381019061079e9190613304565b6111fd565b005b3480156107b157600080fd5b506107cc60048036038101906107c791906133af565b61126f565b6040516107d99190613284565b60405180910390f35b3480156107ee57600080fd5b5061080960048036038101906108049190613304565b6112a2565b005b34801561081757600080fd5b50610832600480360381019061082d919061369a565b6112da565b60405161083f9190613505565b60405180910390f35b34801561085457600080fd5b5061085d6112ff565b60405161086a91906134d1565b60405180910390f35b34801561087f57600080fd5b5061089a60048036038101906108959190613520565b611323565b005b3480156108a857600080fd5b506108b1611344565b6040516108be91906134d1565b60405180910390f35b3480156108d357600080fd5b506108dc611368565b005b3480156108ea57600080fd5b50610905600480360381019061090091906136da565b611439565b005b34801561091357600080fd5b5061092e600480360381019061092991906137d6565b61158e565b005b34801561093c57600080fd5b506109576004803603810190610952919061363a565b6115e8565b60405161096491906138d4565b60405180910390f35b34801561097957600080fd5b50610994600480360381019061098f919061369a565b611727565b6040516109a19190613505565b60405180910390f35b3480156109b657600080fd5b506109bf6117ae565b6040516109cc9190613505565b60405180910390f35b3480156109e157600080fd5b506109fc60048036038101906109f791906133af565b6117ba565b604051610a099190613284565b60405180910390f35b610a2c6004803603810190610a27919061394c565b6117ed565b005b348015610a3a57600080fd5b50610a43611b2e565b604051610a5091906134d1565b60405180910390f35b60007f7965db0b000000000000000000000000000000000000000000000000000000007bffffffffffffffffffffffffffffffffffffffffffffffffffffffff1916827bffffffffffffffffffffffffffffffffffffffffffffffffffffffff19161480610acc5750610acb82611b52565b5b9050919050565b610adb611bbc565b610ae433611c0b565b610b30828280806020026020016040519081016040528093929190818152602001838360200280828437600081840152601f19601f820116905080830192505050505050503033611c6e565b610b38611d5f565b5050565b6000610b687f6241945b9c52237c1fc120a0e65553d4e6e262c3d36b3810008a6c39502bed198361114e565b9050919050565b60008054906101000a900473ffffffffffffffffffffffffffffffffffffffff1681565b610b9c33611d69565b610bc67fdf8b4c520ffe197c5343c6f5aec59570151ef9a492f2c624fd45ddde6135ec4233611dcc565b565b60ca60019054906101000a900460ff1681565b610be433611d69565b610c0f7fbb33b450b5787500b7743166d12295e6b6b742804a612449720d079818ebc6328383611eae565b5050565b610c1c33611d69565b610c477f6241945b9c52237c1fc120a0e65553d4e6e262c3d36b3810008a6c39502bed198383611f06565b5050565b610c5433611d69565b8060ca60006101000a81548160ff0219169083151502179055507f46d6d1a61669d91ea3801d9d57b7398c4ced2120f35ca8559749a391047a24ae81604051610c9d9190613284565b60405180910390a150565b610cb0611bbc565b6000600167ffffffffffffffff811115610ccd57610ccc6139ac565b5b604051908082528060200260200182016040528015610cfb5781602001602082028036833780820191505090505b5090508181600081518110610d1357610d126139db565b5b602002602001019073ffffffffffffffffffffffffffffffffffffffff16908173ffffffffffffffffffffffffffffffffffffffff1681525050610d5633611c0b565b610d61813033611c6e565b50610d6a611d5f565b50565b600060656000838152602001908152602001600020600101549050919050565b6000610db97fdf8b4c520ffe197c5343c6f5aec59570151ef9a492f2c624fd45ddde6135ec428361114e565b9050919050565b60c95481565b610dcf33611d69565b610dfa7fb65d1ad2ca8116a35ccd39be9425554ab4464be07feb2b70d510d92105c6f0838383611eae565b5050565b7fdf8b4c520ffe197c5343c6f5aec59570151ef9a492f2c624fd45ddde6135ec4281565b610e2b82610d6d565b610e3481611f5e565b610e3e8383611f72565b505050565b610e4c33611d69565b610e5581612053565b50565b610e606120d6565b73ffffffffffffffffffffffffffffffffffffffff168173ffffffffffffffffffffffffffffffffffffffff1614610ecd576040517f08c379a0000000000000000000000000000000000000000000000000000000008152600401610ec490613a8d565b60405180910390fd5b610ed78282611dcc565b5050565b610ee3611bbc565b600082829050905060005b81811015610f9d57610f90868680806020026020016040519081016040528093929190818152602001838360200280828437600081840152601f19601f82011690508083019250505050505050858584818110610f4e57610f4d6139db565b5b9050602002016020810190610f6391906133af565b868685818110610f7657610f756139db565b5b9050602002016020810190610f8b91906133af565b611c6e565b8080600101915050610eee565b5050610fa7611d5f565b50505050565b610fb633611d69565b610fe17fdf8b4c520ffe197c5343c6f5aec59570151ef9a492f2c624fd45ddde6135ec428383611f06565b5050565b610fed611bbc565b611039838380806020026020016040519081016040528093929190818152602001838360200280828437600081840152601f19601f820116905080830192505050505050508283611c6e565b611041611d5f565b505050565b60ca60009054906101000a900460ff1681565b611061611bbc565b6110ad828280806020026020016040519081016040528093929190818152602001838360200280828437600081840152601f19601f820116905080830192505050505050503333611c6e565b6110b5611d5f565b5050565b6110c233611d69565b8060ca60016101000a81548160ff0219169083151502179055507f618c1dfcdc0554eaa0869d571defb09f99ae2add7c190d59444db6d0392489a78160405161110b9190613284565b60405180910390a150565b61111f33611d69565b61114a7fbb33b450b5787500b7743166d12295e6b6b742804a612449720d079818ebc6328383611f06565b5050565b60006065600084815260200190815260200160002060000160008373ffffffffffffffffffffffffffffffffffffffff1673ffffffffffffffffffffffffffffffffffffffff16815260200190815260200160002060009054906101000a900460ff16905092915050565b6111c233611d69565b6111ed7fb65d1ad2ca8116a35ccd39be9425554ab4464be07feb2b70d510d92105c6f0838383611f06565b5050565b600081565b6000801b81565b61120a6000801b3361114e565b611240576040517f46ab053d00000000000000000000000000000000000000000000000000000000815260040160405180910390fd5b61126b7fdf8b4c520ffe197c5343c6f5aec59570151ef9a492f2c624fd45ddde6135ec428383611eae565b5050565b600061129b7fb65d1ad2ca8116a35ccd39be9425554ab4464be07feb2b70d510d92105c6f0838361114e565b9050919050565b6112ab33611d69565b6112d67f6241945b9c52237c1fc120a0e65553d4e6e262c3d36b3810008a6c39502bed198383611eae565b5050565b60cb602052816000526040600020602052806000526040600020600091509150505481565b7fb65d1ad2ca8116a35ccd39be9425554ab4464be07feb2b70d510d92105c6f08381565b61132c82610d6d565b61133581611f5e565b61133f8383611dcc565b505050565b7fbb33b450b5787500b7743166d12295e6b6b742804a612449720d079818ebc63281565b600073ffffffffffffffffffffffffffffffffffffffff1660008054906101000a900473ffffffffffffffffffffffffffffffffffffffff1673ffffffffffffffffffffffffffffffffffffffff16146113f7576040517f08c379a00000000000000000000000000000000000000000000000000000000081526004016113ee90613af9565b60405180910390fd5b336000806101000a81548173ffffffffffffffffffffffffffffffffffffffff021916908373ffffffffffffffffffffffffffffffffffffffff160217905550565b60008060159054906101000a900460ff1615905080801561146c57506001600060149054906101000a900460ff1660ff16105b8061149b575061147b306120de565b15801561149a57506001600060149054906101000a900460ff1660ff16145b5b6114da576040517f08c379a00000000000000000000000000000000000000000000000000000000081526004016114d190613b8b565b60405180910390fd5b6001600060146101000a81548160ff021916908360ff1602179055508015611518576001600060156101000a81548160ff0219169083151502179055505b6115298a8a8a8a8a8a8a8a8a612101565b80156115825760008060156101000a81548160ff0219169083151502179055507f7f26b83ff96e1f2b6a682f133852f6798a09c465da95921460cefb384740249860016040516115799190613bfd565b60405180910390a15b50505050505050505050565b611596611bbc565b600081036115d0576040517f2c5211c600000000000000000000000000000000000000000000000000000000815260040160405180910390fd5b6115dc823333846121d6565b6115e4611d5f565b5050565b6060600084849050905060008167ffffffffffffffff81111561160e5761160d6139ac565b5b60405190808252806020026020018201604052801561163c5781602001602082028036833780820191505090505b50905060005b8281101561171a5760cb60008673ffffffffffffffffffffffffffffffffffffffff1673ffffffffffffffffffffffffffffffffffffffff168152602001908152602001600020600088888481811061169e5761169d6139db565b5b90506020020160208101906116b391906133af565b73ffffffffffffffffffffffffffffffffffffffff1673ffffffffffffffffffffffffffffffffffffffff16815260200190815260200160002054828281518110611701576117006139db565b5b6020026020010181815250508080600101915050611642565b5080925050509392505050565b600060cb60008373ffffffffffffffffffffffffffffffffffffffff1673ffffffffffffffffffffffffffffffffffffffff16815260200190815260200160002060008473ffffffffffffffffffffffffffffffffffffffff1673ffffffffffffffffffffffffffffffffffffffff16815260200190815260200160002054905092915050565b670de0b6b3a764000081565b60006117e67fbb33b450b5787500b7743166d12295e6b6b742804a612449720d079818ebc6328361114e565b9050919050565b6117f5611bbc565b600073ffffffffffffffffffffffffffffffffffffffff1660008054906101000a900473ffffffffffffffffffffffffffffffffffffffff1673ffffffffffffffffffffffffffffffffffffffff1603611884576040517f08c379a000000000000000000000000000000000000000000000000000000000815260040161187b90613c8a565b60405180910390fd5b60008054906101000a900473ffffffffffffffffffffffffffffffffffffffff1673ffffffffffffffffffffffffffffffffffffffff163373ffffffffffffffffffffffffffffffffffffffff1614611912576040517f08c379a000000000000000000000000000000000000000000000000000000000815260040161190990613d1c565b60405180910390fd5b60008383905090506000805b82811015611ae457600080600088888581811061193e5761193d6139db565b5b90506020028101906119509190613d4b565b81019061195d9190613dec565b92509250925060ca60009054906101000a900460ff161561198257611981836124aa565b5b60ca60019054906101000a900460ff16156119a1576119a08161250d565b5b600073ffffffffffffffffffffffffffffffffffffffff168373ffffffffffffffffffffffffffffffffffffffff16146119e5576119e0878484612570565b6119f4565b81856119f19190613e6e565b94505b3373ffffffffffffffffffffffffffffffffffffffff168173ffffffffffffffffffffffffffffffffffffffff168873ffffffffffffffffffffffffffffffffffffffff167f023f5e053cbb2c4e0d563d51f8cafaa385fc620caa979fbcac023059ad1687d98686604051611a6a929190613ea2565b60405180910390a4600060c9541115611ac8576000670de0b6b3a764000060c95484611a969190613ecb565b611aa09190613f3c565b9050611ab884838386611ab39190613f6d565b6125a2565b611ac284826126b6565b50611ad4565b611ad38382846125a2565b5b838060010194505050505061191e565b5034811115611b1f576040517f2c5211c600000000000000000000000000000000000000000000000000000000815260040160405180910390fd5b5050611b29611d5f565b505050565b7f6241945b9c52237c1fc120a0e65553d4e6e262c3d36b3810008a6c39502bed1981565b60007f01ffc9a7000000000000000000000000000000000000000000000000000000007bffffffffffffffffffffffffffffffffffffffffffffffffffffffff1916827bffffffffffffffffffffffffffffffffffffffffffffffffffffffff1916149050919050565b600260975403611c01576040517f08c379a0000000000000000000000000000000000000000000000000000000008152600401611bf890613fed565b60405180910390fd5b6002609781905550565b611c357fb65d1ad2ca8116a35ccd39be9425554ab4464be07feb2b70d510d92105c6f0838261114e565b611c6b576040517f9d13e6e300000000000000000000000000000000000000000000000000000000815260040160405180910390fd5b50565b60008351905060005b81811015611d5857600060cb60008673ffffffffffffffffffffffffffffffffffffffff1673ffffffffffffffffffffffffffffffffffffffff1681526020019081526020016000206000878481518110611cd557611cd46139db565b5b602002602001015173ffffffffffffffffffffffffffffffffffffffff1673ffffffffffffffffffffffffffffffffffffffff1681526020019081526020016000205490506000811115611d4a57611d49868381518110611d3957611d386139db565b5b60200260200101518686846121d6565b5b818060010192505050611c77565b5050505050565b6001609781905550565b611d937fdf8b4c520ffe197c5343c6f5aec59570151ef9a492f2c624fd45ddde6135ec428261114e565b611dc9576040517f7bfa4b9f00000000000000000000000000000000000000000000000000000000815260040160405180910390fd5b50565b611dd6828261114e565b15611eaa5760006065600084815260200190815260200160002060000160008373ffffffffffffffffffffffffffffffffffffffff1673ffffffffffffffffffffffffffffffffffffffff16815260200190815260200160002060006101000a81548160ff021916908315150217905550611e4f6120d6565b73ffffffffffffffffffffffffffffffffffffffff168173ffffffffffffffffffffffffffffffffffffffff16837ff6391f5c32d9c69d2a47ea670b442974b53935d1edc7fd64eb21e047a839171b60405160405180910390a45b5050565b600082829050905060005b81811015611eff57611ef285858584818110611ed857611ed76139db565b5b9050602002016020810190611eed91906133af565b611323565b8080600101915050611eb9565b5050505050565b600082829050905060005b81811015611f5757611f4a85858584818110611f3057611f2f6139db565b5b9050602002016020810190611f4591906133af565b6127b2565b8080600101915050611f11565b5050505050565b611f6f81611f6a6120d6565b6127c0565b50565b611f7c828261114e565b61204f5760016065600084815260200190815260200160002060000160008373ffffffffffffffffffffffffffffffffffffffff1673ffffffffffffffffffffffffffffffffffffffff16815260200190815260200160002060006101000a81548160ff021916908315150217905550611ff46120d6565b73ffffffffffffffffffffffffffffffffffffffff168173ffffffffffffffffffffffffffffffffffffffff16837f2f8788117e7eff1d82e926ec794901d17c78024a50270940304540a733656f0d60405160405180910390a45b5050565b670de0b6b3a7640000811115612095576040517fcd4e616700000000000000000000000000000000000000000000000000000000815260040160405180910390fd5b8060c9819055507fd4c19c993aeeb50b76da8b158f84806c9d235eff5b86f3a36f12a2e1dd4e6eac816040516120cb9190613505565b60405180910390a150565b600033905090565b6000808273ffffffffffffffffffffffffffffffffffffffff163b119050919050565b600060159054906101000a900460ff16612150576040517f08c379a00000000000000000000000000000000000000000000000000000000081526004016121479061407f565b60405180910390fd5b6121608989898989898989612845565b612168612a92565b600089899050111561219057600160ca60006101000a81548160ff0219169083151502179055505b60008787905011156121b857600160ca60016101000a81548160ff0219169083151502179055505b60008111156121cb576121ca81612053565b5b505050505050505050565b60cb60008473ffffffffffffffffffffffffffffffffffffffff1673ffffffffffffffffffffffffffffffffffffffff16815260200190815260200160002060008573ffffffffffffffffffffffffffffffffffffffff1673ffffffffffffffffffffffffffffffffffffffff1681526020019081526020016000205481111561228c576040517ff4d678b800000000000000000000000000000000000000000000000000000000815260040160405180910390fd5b8060cb60008573ffffffffffffffffffffffffffffffffffffffff1673ffffffffffffffffffffffffffffffffffffffff16815260200190815260200160002060008673ffffffffffffffffffffffffffffffffffffffff1673ffffffffffffffffffffffffffffffffffffffff16815260200190815260200160002060008282546123189190613f6d565b92505081905550600073ffffffffffffffffffffffffffffffffffffffff168473ffffffffffffffffffffffffffffffffffffffff16036123fc5760008273ffffffffffffffffffffffffffffffffffffffff1682604051612379906140d0565b60006040518083038185875af1925050503d80600081146123b6576040519150601f19603f3d011682016040523d82523d6000602084013e6123bb565b606091505b50509050806123f6576040517f90b8ec1800000000000000000000000000000000000000000000000000000000815260040160405180910390fd5b50612428565b61242782828673ffffffffffffffffffffffffffffffffffffffff16612aeb9092919063ffffffff16565b5b8173ffffffffffffffffffffffffffffffffffffffff168373ffffffffffffffffffffffffffffffffffffffff168573ffffffffffffffffffffffffffffffffffffffff167f3115d1449a7b732c986cba18244e897a450f61e1bb8d589cd2e69e6c8924f9f78460405161249c9190613505565b60405180910390a450505050565b6124d47f6241945b9c52237c1fc120a0e65553d4e6e262c3d36b3810008a6c39502bed198261114e565b61250a576040517fe51cf7bf00000000000000000000000000000000000000000000000000000000815260040160405180910390fd5b50565b6125377fbb33b450b5787500b7743166d12295e6b6b742804a612449720d079818ebc6328261114e565b61256d576040517f375a7a9200000000000000000000000000000000000000000000000000000000815260040160405180910390fd5b50565b61259d8330838573ffffffffffffffffffffffffffffffffffffffff16612b71909392919063ffffffff16565b505050565b8060cb60008473ffffffffffffffffffffffffffffffffffffffff1673ffffffffffffffffffffffffffffffffffffffff16815260200190815260200160002060008573ffffffffffffffffffffffffffffffffffffffff1673ffffffffffffffffffffffffffffffffffffffff168152602001908152602001600020600082825461262e9190613e6e565b925050819055508173ffffffffffffffffffffffffffffffffffffffff163373ffffffffffffffffffffffffffffffffffffffff168473ffffffffffffffffffffffffffffffffffffffff167fb91b2d1906a6e6e2b45b99eb26ac141804eb2684a0df30699fdcb8b5ced1d518846040516126a99190613505565b60405180910390a4505050565b8060cb60003073ffffffffffffffffffffffffffffffffffffffff1673ffffffffffffffffffffffffffffffffffffffff16815260200190815260200160002060008473ffffffffffffffffffffffffffffffffffffffff1673ffffffffffffffffffffffffffffffffffffffff16815260200190815260200160002060008282546127429190613e6e565b925050819055503373ffffffffffffffffffffffffffffffffffffffff168273ffffffffffffffffffffffffffffffffffffffff167f468c2f4ec7ce54b88b575db5d64710429b1880e4581f5328aaa4b3f51dadc58b836040516127a69190613505565b60405180910390a35050565b6127bc8282611f72565b5050565b6127ca828261114e565b612841576127d781612bfa565b6127e58360001c6020612c27565b6040516020016127f69291906141ee565b6040516020818303038152906040526040517f08c379a00000000000000000000000000000000000000000000000000000000081526004016128389190614272565b60405180910390fd5b5050565b600060159054906101000a900460ff16612894576040517f08c379a000000000000000000000000000000000000000000000000000000000815260040161288b9061407f565b60405180910390fd5b61289c612e63565b6128a96000801b336127b2565b6128d37fbb33b450b5787500b7743166d12295e6b6b742804a612449720d079818ebc632306127b2565b61291d7f6241945b9c52237c1fc120a0e65553d4e6e262c3d36b3810008a6c39502bed197fdf8b4c520ffe197c5343c6f5aec59570151ef9a492f2c624fd45ddde6135ec42612eb4565b6129677fbb33b450b5787500b7743166d12295e6b6b742804a612449720d079818ebc6327fdf8b4c520ffe197c5343c6f5aec59570151ef9a492f2c624fd45ddde6135ec42612eb4565b6129b17fb65d1ad2ca8116a35ccd39be9425554ab4464be07feb2b70d510d92105c6f0837fdf8b4c520ffe197c5343c6f5aec59570151ef9a492f2c624fd45ddde6135ec42612eb4565b6129dc7f6241945b9c52237c1fc120a0e65553d4e6e262c3d36b3810008a6c39502bed198989611f06565b612a077fbb33b450b5787500b7743166d12295e6b6b742804a612449720d079818ebc6328787611f06565b612a327fb65d1ad2ca8116a35ccd39be9425554ab4464be07feb2b70d510d92105c6f0838585611f06565b612a5d7fdf8b4c520ffe197c5343c6f5aec59570151ef9a492f2c624fd45ddde6135ec428383611f06565b612a887f6241945b9c52237c1fc120a0e65553d4e6e262c3d36b3810008a6c39502bed1960006127b2565b5050505050505050565b600060159054906101000a900460ff16612ae1576040517f08c379a0000000000000000000000000000000000000000000000000000000008152600401612ad89061407f565b60405180910390fd5b612ae9612f10565b565b612b6c8363a9059cbb60e01b8484604051602401612b0a929190613ea2565b604051602081830303815290604052907bffffffffffffffffffffffffffffffffffffffffffffffffffffffff19166020820180517bffffffffffffffffffffffffffffffffffffffffffffffffffffffff8381831617835250505050612f69565b505050565b612bf4846323b872dd60e01b858585604051602401612b9293929190614294565b604051602081830303815290604052907bffffffffffffffffffffffffffffffffffffffffffffffffffffffff19166020820180517bffffffffffffffffffffffffffffffffffffffffffffffffffffffff8381831617835250505050612f69565b50505050565b6060612c208273ffffffffffffffffffffffffffffffffffffffff16601460ff16612c27565b9050919050565b606060006002836002612c3a9190613ecb565b612c449190613e6e565b67ffffffffffffffff811115612c5d57612c5c6139ac565b5b6040519080825280601f01601f191660200182016040528015612c8f5781602001600182028036833780820191505090505b5090507f300000000000000000000000000000000000000000000000000000000000000081600081518110612cc757612cc66139db565b5b60200101907effffffffffffffffffffffffffffffffffffffffffffffffffffffffffffff1916908160001a9053507f780000000000000000000000000000000000000000000000000000000000000081600181518110612d2b57612d2a6139db565b5b60200101907effffffffffffffffffffffffffffffffffffffffffffffffffffffffffffff1916908160001a90535060006001846002612d6b9190613ecb565b612d759190613e6e565b90505b6001811115612e15577f3031323334353637383961626364656600000000000000000000000000000000600f861660108110612db757612db66139db565b5b1a60f81b828281518110612dce57612dcd6139db565b5b60200101907effffffffffffffffffffffffffffffffffffffffffffffffffffffffffffff1916908160001a905350600485901c945080612e0e906142cb565b9050612d78565b5060008414612e59576040517f08c379a0000000000000000000000000000000000000000000000000000000008152600401612e5090614340565b60405180910390fd5b8091505092915050565b600060159054906101000a900460ff16612eb2576040517f08c379a0000000000000000000000000000000000000000000000000000000008152600401612ea99061407f565b60405180910390fd5b565b6000612ebf83610d6d565b90508160656000858152602001908152602001600020600101819055508181847fbd79b86ffe0ab8e8776151514217cd7cacd52c909f66475c3af44e129f0b00ff60405160405180910390a4505050565b600060159054906101000a900460ff16612f5f576040517f08c379a0000000000000000000000000000000000000000000000000000000008152600401612f569061407f565b60405180910390fd5b6001609781905550565b6000612fcb826040518060400160405280602081526020017f5361666545524332303a206c6f772d6c6576656c2063616c6c206661696c65648152508573ffffffffffffffffffffffffffffffffffffffff166130309092919063ffffffff16565b905060008151111561302b5780806020019051810190612feb9190614375565b61302a576040517f08c379a000000000000000000000000000000000000000000000000000000000815260040161302190614414565b60405180910390fd5b5b505050565b606061303f8484600085613048565b90509392505050565b60608247101561308d576040517f08c379a0000000000000000000000000000000000000000000000000000000008152600401613084906144a6565b60405180910390fd5b6000808673ffffffffffffffffffffffffffffffffffffffff1685876040516130b69190614502565b60006040518083038185875af1925050503d80600081146130f3576040519150601f19603f3d011682016040523d82523d6000602084013e6130f8565b606091505b509150915061310987838387613115565b92505050949350505050565b6060831561317757600083510361316f5761312f856120de565b61316e576040517f08c379a000000000000000000000000000000000000000000000000000000000815260040161316590614565565b60405180910390fd5b5b829050613182565b613181838361318a565b5b949350505050565b60008251111561319d5781518083602001fd5b806040517f08c379a00000000000000000000000000000000000000000000000000000000081526004016131d19190614272565b60405180910390fd5b600080fd5b600080fd5b60007fffffffff0000000000000000000000000000000000000000000000000000000082169050919050565b613219816131e4565b811461322457600080fd5b50565b60008135905061323681613210565b92915050565b600060208284031215613252576132516131da565b5b600061326084828501613227565b91505092915050565b60008115159050919050565b61327e81613269565b82525050565b60006020820190506132996000830184613275565b92915050565b600080fd5b600080fd5b600080fd5b60008083601f8401126132c4576132c361329f565b5b8235905067ffffffffffffffff8111156132e1576132e06132a4565b5b6020830191508360208202830111156132fd576132fc6132a9565b5b9250929050565b6000806020838503121561331b5761331a6131da565b5b600083013567ffffffffffffffff811115613339576133386131df565b5b613345858286016132ae565b92509250509250929050565b600073ffffffffffffffffffffffffffffffffffffffff82169050919050565b600061337c82613351565b9050919050565b61338c81613371565b811461339757600080fd5b50565b6000813590506133a981613383565b92915050565b6000602082840312156133c5576133c46131da565b5b60006133d38482850161339a565b91505092915050565b6133e581613371565b82525050565b600060208201905061340060008301846133dc565b92915050565b61340f81613269565b811461341a57600080fd5b50565b60008135905061342c81613406565b92915050565b600060208284031215613448576134476131da565b5b60006134568482850161341d565b91505092915050565b6000819050919050565b6134728161345f565b811461347d57600080fd5b50565b60008135905061348f81613469565b92915050565b6000602082840312156134ab576134aa6131da565b5b60006134b984828501613480565b91505092915050565b6134cb8161345f565b82525050565b60006020820190506134e660008301846134c2565b92915050565b6000819050919050565b6134ff816134ec565b82525050565b600060208201905061351a60008301846134f6565b92915050565b60008060408385031215613537576135366131da565b5b600061354585828601613480565b92505060206135568582860161339a565b9150509250929050565b613569816134ec565b811461357457600080fd5b50565b60008135905061358681613560565b92915050565b6000602082840312156135a2576135a16131da565b5b60006135b084828501613577565b91505092915050565b600080600080604085870312156135d3576135d26131da565b5b600085013567ffffffffffffffff8111156135f1576135f06131df565b5b6135fd878288016132ae565b9450945050602085013567ffffffffffffffff8111156136205761361f6131df565b5b61362c878288016132ae565b925092505092959194509250565b600080600060408486031215613653576136526131da565b5b600084013567ffffffffffffffff811115613671576136706131df565b5b61367d868287016132ae565b935093505060206136908682870161339a565b9150509250925092565b600080604083850312156136b1576136b06131da565b5b60006136bf8582860161339a565b92505060206136d08582860161339a565b9150509250929050565b600080600080600080600080600060a08a8c0312156136fc576136fb6131da565b5b60008a013567ffffffffffffffff81111561371a576137196131df565b5b6137268c828d016132ae565b995099505060208a013567ffffffffffffffff811115613749576137486131df565b5b6137558c828d016132ae565b975097505060408a013567ffffffffffffffff811115613778576137776131df565b5b6137848c828d016132ae565b955095505060608a013567ffffffffffffffff8111156137a7576137a66131df565b5b6137b38c828d016132ae565b935093505060806137c68c828d01613577565b9150509295985092959850929598565b600080604083850312156137ed576137ec6131da565b5b60006137fb8582860161339a565b925050602061380c85828601613577565b9150509250929050565b600081519050919050565b600082825260208201905092915050565b6000819050602082019050919050565b61384b816134ec565b82525050565b600061385d8383613842565b60208301905092915050565b6000602082019050919050565b600061388182613816565b61388b8185613821565b935061389683613832565b8060005b838110156138c75781516138ae8882613851565b97506138b983613869565b92505060018101905061389a565b5085935050505092915050565b600060208201905081810360008301526138ee8184613876565b905092915050565b60008083601f84011261390c5761390b61329f565b5b8235905067ffffffffffffffff811115613929576139286132a4565b5b602083019150836020820283011115613945576139446132a9565b5b9250929050565b600080600060408486031215613965576139646131da565b5b600084013567ffffffffffffffff811115613983576139826131df565b5b61398f868287016138f6565b935093505060206139a28682870161339a565b9150509250925092565b7f4e487b7100000000000000000000000000000000000000000000000000000000600052604160045260246000fd5b7f4e487b7100000000000000000000000000000000000000000000000000000000600052603260045260246000fd5b600082825260208201905092915050565b7f416363657373436f6e74726f6c3a2063616e206f6e6c792072656e6f756e636560008201527f20726f6c657320666f722073656c660000000000000000000000000000000000602082015250565b6000613a77602f83613a0a565b9150613a8282613a1b565b604082019050919050565b60006020820190508181036000830152613aa681613a6a565b9050919050565b7f696e69743a20726f756e644164647265737320616c7265616479207365740000600082015250565b6000613ae3601e83613a0a565b9150613aee82613aad565b602082019050919050565b60006020820190508181036000830152613b1281613ad6565b9050919050565b7f496e697469616c697a61626c653a20636f6e747261637420697320616c72656160008201527f647920696e697469616c697a6564000000000000000000000000000000000000602082015250565b6000613b75602e83613a0a565b9150613b8082613b19565b604082019050919050565b60006020820190508181036000830152613ba481613b68565b9050919050565b6000819050919050565b600060ff82169050919050565b6000819050919050565b6000613be7613be2613bdd84613bab565b613bc2565b613bb5565b9050919050565b613bf781613bcc565b82525050565b6000602082019050613c126000830184613bee565b92915050565b7f6572726f723a20766f74696e6720636f6e7472616374206e6f74206c696e6b6560008201527f6420746f206120726f756e640000000000000000000000000000000000000000602082015250565b6000613c74602c83613a0a565b9150613c7f82613c18565b604082019050919050565b60006020820190508181036000830152613ca381613c67565b9050919050565b7f6572726f723a2063616e20626520696e766f6b6564206f6e6c7920627920726f60008201527f756e6420636f6e74726163740000000000000000000000000000000000000000602082015250565b6000613d06602c83613a0a565b9150613d1182613caa565b604082019050919050565b60006020820190508181036000830152613d3581613cf9565b9050919050565b600080fd5b600080fd5b600080fd5b60008083356001602003843603038112613d6857613d67613d3c565b5b80840192508235915067ffffffffffffffff821115613d8a57613d89613d41565b5b602083019250600182023603831315613da657613da5613d46565b5b509250929050565b6000613db982613351565b9050919050565b613dc981613dae565b8114613dd457600080fd5b50565b600081359050613de681613dc0565b92915050565b600080600060608486031215613e0557613e046131da565b5b6000613e1386828701613dd7565b9350506020613e2486828701613577565b9250506040613e3586828701613dd7565b9150509250925092565b7f4e487b7100000000000000000000000000000000000000000000000000000000600052601160045260246000fd5b6000613e79826134ec565b9150613e84836134ec565b9250828201905080821115613e9c57613e9b613e3f565b5b92915050565b6000604082019050613eb760008301856133dc565b613ec460208301846134f6565b9392505050565b6000613ed6826134ec565b9150613ee1836134ec565b9250828202613eef816134ec565b91508282048414831517613f0657613f05613e3f565b5b5092915050565b7f4e487b7100000000000000000000000000000000000000000000000000000000600052601260045260246000fd5b6000613f47826134ec565b9150613f52836134ec565b925082613f6257613f61613f0d565b5b828204905092915050565b6000613f78826134ec565b9150613f83836134ec565b9250828203905081811115613f9b57613f9a613e3f565b5b92915050565b7f5265656e7472616e637947756172643a207265656e7472616e742063616c6c00600082015250565b6000613fd7601f83613a0a565b9150613fe282613fa1565b602082019050919050565b6000602082019050818103600083015261400681613fca565b9050919050565b7f496e697469616c697a61626c653a20636f6e7472616374206973206e6f74206960008201527f6e697469616c697a696e67000000000000000000000000000000000000000000602082015250565b6000614069602b83613a0a565b91506140748261400d565b604082019050919050565b600060208201905081810360008301526140988161405c565b9050919050565b600081905092915050565b50565b60006140ba60008361409f565b91506140c5826140aa565b600082019050919050565b60006140db826140ad565b9150819050919050565b600081905092915050565b7f416363657373436f6e74726f6c3a206163636f756e7420000000000000000000600082015250565b60006141266017836140e5565b9150614131826140f0565b601782019050919050565b600081519050919050565b60005b8381101561416557808201518184015260208101905061414a565b60008484015250505050565b600061417c8261413c565b61418681856140e5565b9350614196818560208601614147565b80840191505092915050565b7f206973206d697373696e6720726f6c6520000000000000000000000000000000600082015250565b60006141d86011836140e5565b91506141e3826141a2565b601182019050919050565b60006141f982614119565b91506142058285614171565b9150614210826141cb565b915061421c8284614171565b91508190509392505050565b6000601f19601f8301169050919050565b60006142448261413c565b61424e8185613a0a565b935061425e818560208601614147565b61426781614228565b840191505092915050565b6000602082019050818103600083015261428c8184614239565b905092915050565b60006060820190506142a960008301866133dc565b6142b660208301856133dc565b6142c360408301846134f6565b949350505050565b60006142d6826134ec565b9150600082036142e9576142e8613e3f565b5b600182039050919050565b7f537472696e67733a20686578206c656e67746820696e73756666696369656e74600082015250565b600061432a602083613a0a565b9150614335826142f4565b602082019050919050565b600060208201905081810360008301526143598161431d565b9050919050565b60008151905061436f81613406565b92915050565b60006020828403121561438b5761438a6131da565b5b600061439984828501614360565b91505092915050565b7f5361666545524332303a204552433230206f7065726174696f6e20646964206e60008201527f6f74207375636365656400000000000000000000000000000000000000000000602082015250565b60006143fe602a83613a0a565b9150614409826143a2565b604082019050919050565b6000602082019050818103600083015261442d816143f1565b9050919050565b7f416464726573733a20696e73756666696369656e742062616c616e636520666f60008201527f722063616c6c0000000000000000000000000000000000000000000000000000602082015250565b6000614490602683613a0a565b915061449b82614434565b604082019050919050565b600060208201905081810360008301526144bf81614483565b9050919050565b600081519050919050565b60006144dc826144c6565b6144e6818561409f565b93506144f6818560208601614147565b80840191505092915050565b600061450e82846144d1565b915081905092915050565b7f416464726573733a2063616c6c20746f206e6f6e2d636f6e7472616374000000600082015250565b600061454f601d83613a0a565b915061455a82614519565b602082019050919050565b6000602082019050818103600083015261457e81614542565b905091905056fea26469706673582212201fcf5d16c95d4a4b926e62a8773ac7a8323e139f06764cee68c39bb9f600314364736f6c63430008110033",
			"opcodes": "PUSH1 0x80 PUSH1 0x40 MSTORE CALLVALUE DUP1 ISZERO PUSH2 0x10 JUMPI PUSH1 0x0 DUP1 REVERT JUMPDEST POP PUSH2 0x45BB DUP1 PUSH2 0x20 PUSH1 0x0 CODECOPY PUSH1 0x0 RETURN INVALID PUSH1 0x80 PUSH1 0x40 MSTORE PUSH1 0x4 CALLDATASIZE LT PUSH2 0x272 JUMPI PUSH1 0x0 CALLDATALOAD PUSH1 0xE0 SHR DUP1 PUSH4 0x658E4821 GT PUSH2 0x14F JUMPI DUP1 PUSH4 0xD3E78E4D GT PUSH2 0xC1 JUMPI DUP1 PUSH4 0xF46B80CA GT PUSH2 0x7A JUMPI DUP1 PUSH4 0xF46B80CA EQ PUSH2 0x930 JUMPI DUP1 PUSH4 0xF7888AEC EQ PUSH2 0x96D JUMPI DUP1 PUSH4 0xF85FC0AB EQ PUSH2 0x9AA JUMPI DUP1 PUSH4 0xFBFE3AB2 EQ PUSH2 0x9D5 JUMPI DUP1 PUSH4 0xFC6D4E39 EQ PUSH2 0xA12 JUMPI DUP1 PUSH4 0xFDBB219D EQ PUSH2 0xA2E JUMPI PUSH2 0x272 JUMP JUMPDEST DUP1 PUSH4 0xD3E78E4D EQ PUSH2 0x848 JUMPI DUP1 PUSH4 0xD547741F EQ PUSH2 0x873 JUMPI DUP1 PUSH4 0xDCDA7DAD EQ PUSH2 0x89C JUMPI DUP1 PUSH4 0xE1C7392A EQ PUSH2 0x8C7 JUMPI DUP1 PUSH4 0xF2D4120E EQ PUSH2 0x8DE JUMPI DUP1 PUSH4 0xF3FEF3A3 EQ PUSH2 0x907 JUMPI PUSH2 0x272 JUMP JUMPDEST DUP1 PUSH4 0xA0CF0AEA GT PUSH2 0x113 JUMPI DUP1 PUSH4 0xA0CF0AEA EQ PUSH2 0x726 JUMPI DUP1 PUSH4 0xA217FDDF EQ PUSH2 0x751 JUMPI DUP1 PUSH4 0xAE876F61 EQ PUSH2 0x77C JUMPI DUP1 PUSH4 0xB278110F EQ PUSH2 0x7A5 JUMPI DUP1 PUSH4 0xBF7CB70B EQ PUSH2 0x7E2 JUMPI DUP1 PUSH4 0xC23F001F EQ PUSH2 0x80B JUMPI PUSH2 0x272 JUMP JUMPDEST DUP1 PUSH4 0x658E4821 EQ PUSH2 0x645 JUMPI DUP1 PUSH4 0x6BB85F4C EQ PUSH2 0x66E JUMPI DUP1 PUSH4 0x80C78F1C EQ PUSH2 0x697 JUMPI DUP1 PUSH4 0x91D14854 EQ PUSH2 0x6C0 JUMPI DUP1 PUSH4 0x9D082C98 EQ PUSH2 0x6FD JUMPI PUSH2 0x272 JUMP JUMPDEST DUP1 PUSH4 0x24D7806C GT PUSH2 0x1E8 JUMPI DUP1 PUSH4 0x31AC9920 GT PUSH2 0x1AC JUMPI DUP1 PUSH4 0x31AC9920 EQ PUSH2 0x54D JUMPI DUP1 PUSH4 0x36568ABE EQ PUSH2 0x576 JUMPI DUP1 PUSH4 0x3B8453CA EQ PUSH2 0x59F JUMPI DUP1 PUSH4 0x3D0950A8 EQ PUSH2 0x5C8 JUMPI DUP1 PUSH4 0x42E228EF EQ PUSH2 0x5F1 JUMPI DUP1 PUSH4 0x60E007A6 EQ PUSH2 0x61A JUMPI PUSH2 0x272 JUMP JUMPDEST DUP1 PUSH4 0x24D7806C EQ PUSH2 0x468 JUMPI DUP1 PUSH4 0x24EC7590 EQ PUSH2 0x4A5 JUMPI DUP1 PUSH4 0x2620D800 EQ PUSH2 0x4D0 JUMPI DUP1 PUSH4 0x2A0ACC6A EQ PUSH2 0x4F9 JUMPI DUP1 PUSH4 0x2F2FF15D EQ PUSH2 0x524 JUMPI PUSH2 0x272 JUMP JUMPDEST DUP1 PUSH4 0x102D7927 GT PUSH2 0x23A JUMPI DUP1 PUSH4 0x102D7927 EQ PUSH2 0x35C JUMPI DUP1 PUSH4 0x1037D18C EQ PUSH2 0x387 JUMPI DUP1 PUSH4 0x10881166 EQ PUSH2 0x3B0 JUMPI DUP1 PUSH4 0x155DC549 EQ PUSH2 0x3D9 JUMPI DUP1 PUSH4 0x1AC3DDEB EQ PUSH2 0x402 JUMPI DUP1 PUSH4 0x248A9CA3 EQ PUSH2 0x42B JUMPI PUSH2 0x272 JUMP JUMPDEST DUP1 PUSH4 0x1FFC9A7 EQ PUSH2 0x277 JUMPI DUP1 PUSH4 0x41C60EE EQ PUSH2 0x2B4 JUMPI DUP1 PUSH4 0x560BD96 EQ PUSH2 0x2DD JUMPI DUP1 PUSH4 0xB67D925 EQ PUSH2 0x31A JUMPI DUP1 PUSH4 0xD6AEF04 EQ PUSH2 0x345 JUMPI JUMPDEST PUSH1 0x0 DUP1 REVERT JUMPDEST CALLVALUE DUP1 ISZERO PUSH2 0x283 JUMPI PUSH1 0x0 DUP1 REVERT JUMPDEST POP PUSH2 0x29E PUSH1 0x4 DUP1 CALLDATASIZE SUB DUP2 ADD SWAP1 PUSH2 0x299 SWAP2 SWAP1 PUSH2 0x323C JUMP JUMPDEST PUSH2 0xA59 JUMP JUMPDEST PUSH1 0x40 MLOAD PUSH2 0x2AB SWAP2 SWAP1 PUSH2 0x3284 JUMP JUMPDEST PUSH1 0x40 MLOAD DUP1 SWAP2 SUB SWAP1 RETURN JUMPDEST CALLVALUE DUP1 ISZERO PUSH2 0x2C0 JUMPI PUSH1 0x0 DUP1 REVERT JUMPDEST POP PUSH2 0x2DB PUSH1 0x4 DUP1 CALLDATASIZE SUB DUP2 ADD SWAP1 PUSH2 0x2D6 SWAP2 SWAP1 PUSH2 0x3304 JUMP JUMPDEST PUSH2 0xAD3 JUMP JUMPDEST STOP JUMPDEST CALLVALUE DUP1 ISZERO PUSH2 0x2E9 JUMPI PUSH1 0x0 DUP1 REVERT JUMPDEST POP PUSH2 0x304 PUSH1 0x4 DUP1 CALLDATASIZE SUB DUP2 ADD SWAP1 PUSH2 0x2FF SWAP2 SWAP1 PUSH2 0x33AF JUMP JUMPDEST PUSH2 0xB3C JUMP JUMPDEST PUSH1 0x40 MLOAD PUSH2 0x311 SWAP2 SWAP1 PUSH2 0x3284 JUMP JUMPDEST PUSH1 0x40 MLOAD DUP1 SWAP2 SUB SWAP1 RETURN JUMPDEST CALLVALUE DUP1 ISZERO PUSH2 0x326 JUMPI PUSH1 0x0 DUP1 REVERT JUMPDEST POP PUSH2 0x32F PUSH2 0xB6F JUMP JUMPDEST PUSH1 0x40 MLOAD PUSH2 0x33C SWAP2 SWAP1 PUSH2 0x33EB JUMP JUMPDEST PUSH1 0x40 MLOAD DUP1 SWAP2 SUB SWAP1 RETURN JUMPDEST CALLVALUE DUP1 ISZERO PUSH2 0x351 JUMPI PUSH1 0x0 DUP1 REVERT JUMPDEST POP PUSH2 0x35A PUSH2 0xB93 JUMP JUMPDEST STOP JUMPDEST CALLVALUE DUP1 ISZERO PUSH2 0x368 JUMPI PUSH1 0x0 DUP1 REVERT JUMPDEST POP PUSH2 0x371 PUSH2 0xBC8 JUMP JUMPDEST PUSH1 0x40 MLOAD PUSH2 0x37E SWAP2 SWAP1 PUSH2 0x3284 JUMP JUMPDEST PUSH1 0x40 MLOAD DUP1 SWAP2 SUB SWAP1 RETURN JUMPDEST CALLVALUE DUP1 ISZERO PUSH2 0x393 JUMPI PUSH1 0x0 DUP1 REVERT JUMPDEST POP PUSH2 0x3AE PUSH1 0x4 DUP1 CALLDATASIZE SUB DUP2 ADD SWAP1 PUSH2 0x3A9 SWAP2 SWAP1 PUSH2 0x3304 JUMP JUMPDEST PUSH2 0xBDB JUMP JUMPDEST STOP JUMPDEST CALLVALUE DUP1 ISZERO PUSH2 0x3BC JUMPI PUSH1 0x0 DUP1 REVERT JUMPDEST POP PUSH2 0x3D7 PUSH1 0x4 DUP1 CALLDATASIZE SUB DUP2 ADD SWAP1 PUSH2 0x3D2 SWAP2 SWAP1 PUSH2 0x3304 JUMP JUMPDEST PUSH2 0xC13 JUMP JUMPDEST STOP JUMPDEST CALLVALUE DUP1 ISZERO PUSH2 0x3E5 JUMPI PUSH1 0x0 DUP1 REVERT JUMPDEST POP PUSH2 0x400 PUSH1 0x4 DUP1 CALLDATASIZE SUB DUP2 ADD SWAP1 PUSH2 0x3FB SWAP2 SWAP1 PUSH2 0x3432 JUMP JUMPDEST PUSH2 0xC4B JUMP JUMPDEST STOP JUMPDEST CALLVALUE DUP1 ISZERO PUSH2 0x40E JUMPI PUSH1 0x0 DUP1 REVERT JUMPDEST POP PUSH2 0x429 PUSH1 0x4 DUP1 CALLDATASIZE SUB DUP2 ADD SWAP1 PUSH2 0x424 SWAP2 SWAP1 PUSH2 0x33AF JUMP JUMPDEST PUSH2 0xCA8 JUMP JUMPDEST STOP JUMPDEST CALLVALUE DUP1 ISZERO PUSH2 0x437 JUMPI PUSH1 0x0 DUP1 REVERT JUMPDEST POP PUSH2 0x452 PUSH1 0x4 DUP1 CALLDATASIZE SUB DUP2 ADD SWAP1 PUSH2 0x44D SWAP2 SWAP1 PUSH2 0x3495 JUMP JUMPDEST PUSH2 0xD6D JUMP JUMPDEST PUSH1 0x40 MLOAD PUSH2 0x45F SWAP2 SWAP1 PUSH2 0x34D1 JUMP JUMPDEST PUSH1 0x40 MLOAD DUP1 SWAP2 SUB SWAP1 RETURN JUMPDEST CALLVALUE DUP1 ISZERO PUSH2 0x474 JUMPI PUSH1 0x0 DUP1 REVERT JUMPDEST POP PUSH2 0x48F PUSH1 0x4 DUP1 CALLDATASIZE SUB DUP2 ADD SWAP1 PUSH2 0x48A SWAP2 SWAP1 PUSH2 0x33AF JUMP JUMPDEST PUSH2 0xD8D JUMP JUMPDEST PUSH1 0x40 MLOAD PUSH2 0x49C SWAP2 SWAP1 PUSH2 0x3284 JUMP JUMPDEST PUSH1 0x40 MLOAD DUP1 SWAP2 SUB SWAP1 RETURN JUMPDEST CALLVALUE DUP1 ISZERO PUSH2 0x4B1 JUMPI PUSH1 0x0 DUP1 REVERT JUMPDEST POP PUSH2 0x4BA PUSH2 0xDC0 JUMP JUMPDEST PUSH1 0x40 MLOAD PUSH2 0x4C7 SWAP2 SWAP1 PUSH2 0x3505 JUMP JUMPDEST PUSH1 0x40 MLOAD DUP1 SWAP2 SUB SWAP1 RETURN JUMPDEST CALLVALUE DUP1 ISZERO PUSH2 0x4DC JUMPI PUSH1 0x0 DUP1 REVERT JUMPDEST POP PUSH2 0x4F7 PUSH1 0x4 DUP1 CALLDATASIZE SUB DUP2 ADD SWAP1 PUSH2 0x4F2 SWAP2 SWAP1 PUSH2 0x3304 JUMP JUMPDEST PUSH2 0xDC6 JUMP JUMPDEST STOP JUMPDEST CALLVALUE DUP1 ISZERO PUSH2 0x505 JUMPI PUSH1 0x0 DUP1 REVERT JUMPDEST POP PUSH2 0x50E PUSH2 0xDFE JUMP JUMPDEST PUSH1 0x40 MLOAD PUSH2 0x51B SWAP2 SWAP1 PUSH2 0x34D1 JUMP JUMPDEST PUSH1 0x40 MLOAD DUP1 SWAP2 SUB SWAP1 RETURN JUMPDEST CALLVALUE DUP1 ISZERO PUSH2 0x530 JUMPI PUSH1 0x0 DUP1 REVERT JUMPDEST POP PUSH2 0x54B PUSH1 0x4 DUP1 CALLDATASIZE SUB DUP2 ADD SWAP1 PUSH2 0x546 SWAP2 SWAP1 PUSH2 0x3520 JUMP JUMPDEST PUSH2 0xE22 JUMP JUMPDEST STOP JUMPDEST CALLVALUE DUP1 ISZERO PUSH2 0x559 JUMPI PUSH1 0x0 DUP1 REVERT JUMPDEST POP PUSH2 0x574 PUSH1 0x4 DUP1 CALLDATASIZE SUB DUP2 ADD SWAP1 PUSH2 0x56F SWAP2 SWAP1 PUSH2 0x358C JUMP JUMPDEST PUSH2 0xE43 JUMP JUMPDEST STOP JUMPDEST CALLVALUE DUP1 ISZERO PUSH2 0x582 JUMPI PUSH1 0x0 DUP1 REVERT JUMPDEST POP PUSH2 0x59D PUSH1 0x4 DUP1 CALLDATASIZE SUB DUP2 ADD SWAP1 PUSH2 0x598 SWAP2 SWAP1 PUSH2 0x3520 JUMP JUMPDEST PUSH2 0xE58 JUMP JUMPDEST STOP JUMPDEST CALLVALUE DUP1 ISZERO PUSH2 0x5AB JUMPI PUSH1 0x0 DUP1 REVERT JUMPDEST POP PUSH2 0x5C6 PUSH1 0x4 DUP1 CALLDATASIZE SUB DUP2 ADD SWAP1 PUSH2 0x5C1 SWAP2 SWAP1 PUSH2 0x35B9 JUMP JUMPDEST PUSH2 0xEDB JUMP JUMPDEST STOP JUMPDEST CALLVALUE DUP1 ISZERO PUSH2 0x5D4 JUMPI PUSH1 0x0 DUP1 REVERT JUMPDEST POP PUSH2 0x5EF PUSH1 0x4 DUP1 CALLDATASIZE SUB DUP2 ADD SWAP1 PUSH2 0x5EA SWAP2 SWAP1 PUSH2 0x3304 JUMP JUMPDEST PUSH2 0xFAD JUMP JUMPDEST STOP JUMPDEST CALLVALUE DUP1 ISZERO PUSH2 0x5FD JUMPI PUSH1 0x0 DUP1 REVERT JUMPDEST POP PUSH2 0x618 PUSH1 0x4 DUP1 CALLDATASIZE SUB DUP2 ADD SWAP1 PUSH2 0x613 SWAP2 SWAP1 PUSH2 0x363A JUMP JUMPDEST PUSH2 0xFE5 JUMP JUMPDEST STOP JUMPDEST CALLVALUE DUP1 ISZERO PUSH2 0x626 JUMPI PUSH1 0x0 DUP1 REVERT JUMPDEST POP PUSH2 0x62F PUSH2 0x1046 JUMP JUMPDEST PUSH1 0x40 MLOAD PUSH2 0x63C SWAP2 SWAP1 PUSH2 0x3284 JUMP JUMPDEST PUSH1 0x40 MLOAD DUP1 SWAP2 SUB SWAP1 RETURN JUMPDEST CALLVALUE DUP1 ISZERO PUSH2 0x651 JUMPI PUSH1 0x0 DUP1 REVERT JUMPDEST POP PUSH2 0x66C PUSH1 0x4 DUP1 CALLDATASIZE SUB DUP2 ADD SWAP1 PUSH2 0x667 SWAP2 SWAP1 PUSH2 0x3304 JUMP JUMPDEST PUSH2 0x1059 JUMP JUMPDEST STOP JUMPDEST CALLVALUE DUP1 ISZERO PUSH2 0x67A JUMPI PUSH1 0x0 DUP1 REVERT JUMPDEST POP PUSH2 0x695 PUSH1 0x4 DUP1 CALLDATASIZE SUB DUP2 ADD SWAP1 PUSH2 0x690 SWAP2 SWAP1 PUSH2 0x3432 JUMP JUMPDEST PUSH2 0x10B9 JUMP JUMPDEST STOP JUMPDEST CALLVALUE DUP1 ISZERO PUSH2 0x6A3 JUMPI PUSH1 0x0 DUP1 REVERT JUMPDEST POP PUSH2 0x6BE PUSH1 0x4 DUP1 CALLDATASIZE SUB DUP2 ADD SWAP1 PUSH2 0x6B9 SWAP2 SWAP1 PUSH2 0x3304 JUMP JUMPDEST PUSH2 0x1116 JUMP JUMPDEST STOP JUMPDEST CALLVALUE DUP1 ISZERO PUSH2 0x6CC JUMPI PUSH1 0x0 DUP1 REVERT JUMPDEST POP PUSH2 0x6E7 PUSH1 0x4 DUP1 CALLDATASIZE SUB DUP2 ADD SWAP1 PUSH2 0x6E2 SWAP2 SWAP1 PUSH2 0x3520 JUMP JUMPDEST PUSH2 0x114E JUMP JUMPDEST PUSH1 0x40 MLOAD PUSH2 0x6F4 SWAP2 SWAP1 PUSH2 0x3284 JUMP JUMPDEST PUSH1 0x40 MLOAD DUP1 SWAP2 SUB SWAP1 RETURN JUMPDEST CALLVALUE DUP1 ISZERO PUSH2 0x709 JUMPI PUSH1 0x0 DUP1 REVERT JUMPDEST POP PUSH2 0x724 PUSH1 0x4 DUP1 CALLDATASIZE SUB DUP2 ADD SWAP1 PUSH2 0x71F SWAP2 SWAP1 PUSH2 0x3304 JUMP JUMPDEST PUSH2 0x11B9 JUMP JUMPDEST STOP JUMPDEST CALLVALUE DUP1 ISZERO PUSH2 0x732 JUMPI PUSH1 0x0 DUP1 REVERT JUMPDEST POP PUSH2 0x73B PUSH2 0x11F1 JUMP JUMPDEST PUSH1 0x40 MLOAD PUSH2 0x748 SWAP2 SWAP1 PUSH2 0x33EB JUMP JUMPDEST PUSH1 0x40 MLOAD DUP1 SWAP2 SUB SWAP1 RETURN JUMPDEST CALLVALUE DUP1 ISZERO PUSH2 0x75D JUMPI PUSH1 0x0 DUP1 REVERT JUMPDEST POP PUSH2 0x766 PUSH2 0x11F6 JUMP JUMPDEST PUSH1 0x40 MLOAD PUSH2 0x773 SWAP2 SWAP1 PUSH2 0x34D1 JUMP JUMPDEST PUSH1 0x40 MLOAD DUP1 SWAP2 SUB SWAP1 RETURN JUMPDEST CALLVALUE DUP1 ISZERO PUSH2 0x788 JUMPI PUSH1 0x0 DUP1 REVERT JUMPDEST POP PUSH2 0x7A3 PUSH1 0x4 DUP1 CALLDATASIZE SUB DUP2 ADD SWAP1 PUSH2 0x79E SWAP2 SWAP1 PUSH2 0x3304 JUMP JUMPDEST PUSH2 0x11FD JUMP JUMPDEST STOP JUMPDEST CALLVALUE DUP1 ISZERO PUSH2 0x7B1 JUMPI PUSH1 0x0 DUP1 REVERT JUMPDEST POP PUSH2 0x7CC PUSH1 0x4 DUP1 CALLDATASIZE SUB DUP2 ADD SWAP1 PUSH2 0x7C7 SWAP2 SWAP1 PUSH2 0x33AF JUMP JUMPDEST PUSH2 0x126F JUMP JUMPDEST PUSH1 0x40 MLOAD PUSH2 0x7D9 SWAP2 SWAP1 PUSH2 0x3284 JUMP JUMPDEST PUSH1 0x40 MLOAD DUP1 SWAP2 SUB SWAP1 RETURN JUMPDEST CALLVALUE DUP1 ISZERO PUSH2 0x7EE JUMPI PUSH1 0x0 DUP1 REVERT JUMPDEST POP PUSH2 0x809 PUSH1 0x4 DUP1 CALLDATASIZE SUB DUP2 ADD SWAP1 PUSH2 0x804 SWAP2 SWAP1 PUSH2 0x3304 JUMP JUMPDEST PUSH2 0x12A2 JUMP JUMPDEST STOP JUMPDEST CALLVALUE DUP1 ISZERO PUSH2 0x817 JUMPI PUSH1 0x0 DUP1 REVERT JUMPDEST POP PUSH2 0x832 PUSH1 0x4 DUP1 CALLDATASIZE SUB DUP2 ADD SWAP1 PUSH2 0x82D SWAP2 SWAP1 PUSH2 0x369A JUMP JUMPDEST PUSH2 0x12DA JUMP JUMPDEST PUSH1 0x40 MLOAD PUSH2 0x83F SWAP2 SWAP1 PUSH2 0x3505 JUMP JUMPDEST PUSH1 0x40 MLOAD DUP1 SWAP2 SUB SWAP1 RETURN JUMPDEST CALLVALUE DUP1 ISZERO PUSH2 0x854 JUMPI PUSH1 0x0 DUP1 REVERT JUMPDEST POP PUSH2 0x85D PUSH2 0x12FF JUMP JUMPDEST PUSH1 0x40 MLOAD PUSH2 0x86A SWAP2 SWAP1 PUSH2 0x34D1 JUMP JUMPDEST PUSH1 0x40 MLOAD DUP1 SWAP2 SUB SWAP1 RETURN JUMPDEST CALLVALUE DUP1 ISZERO PUSH2 0x87F JUMPI PUSH1 0x0 DUP1 REVERT JUMPDEST POP PUSH2 0x89A PUSH1 0x4 DUP1 CALLDATASIZE SUB DUP2 ADD SWAP1 PUSH2 0x895 SWAP2 SWAP1 PUSH2 0x3520 JUMP JUMPDEST PUSH2 0x1323 JUMP JUMPDEST STOP JUMPDEST CALLVALUE DUP1 ISZERO PUSH2 0x8A8 JUMPI PUSH1 0x0 DUP1 REVERT JUMPDEST POP PUSH2 0x8B1 PUSH2 0x1344 JUMP JUMPDEST PUSH1 0x40 MLOAD PUSH2 0x8BE SWAP2 SWAP1 PUSH2 0x34D1 JUMP JUMPDEST PUSH1 0x40 MLOAD DUP1 SWAP2 SUB SWAP1 RETURN JUMPDEST CALLVALUE DUP1 ISZERO PUSH2 0x8D3 JUMPI PUSH1 0x0 DUP1 REVERT JUMPDEST POP PUSH2 0x8DC PUSH2 0x1368 JUMP JUMPDEST STOP JUMPDEST CALLVALUE DUP1 ISZERO PUSH2 0x8EA JUMPI PUSH1 0x0 DUP1 REVERT JUMPDEST POP PUSH2 0x905 PUSH1 0x4 DUP1 CALLDATASIZE SUB DUP2 ADD SWAP1 PUSH2 0x900 SWAP2 SWAP1 PUSH2 0x36DA JUMP JUMPDEST PUSH2 0x1439 JUMP JUMPDEST STOP JUMPDEST CALLVALUE DUP1 ISZERO PUSH2 0x913 JUMPI PUSH1 0x0 DUP1 REVERT JUMPDEST POP PUSH2 0x92E PUSH1 0x4 DUP1 CALLDATASIZE SUB DUP2 ADD SWAP1 PUSH2 0x929 SWAP2 SWAP1 PUSH2 0x37D6 JUMP JUMPDEST PUSH2 0x158E JUMP JUMPDEST STOP JUMPDEST CALLVALUE DUP1 ISZERO PUSH2 0x93C JUMPI PUSH1 0x0 DUP1 REVERT JUMPDEST POP PUSH2 0x957 PUSH1 0x4 DUP1 CALLDATASIZE SUB DUP2 ADD SWAP1 PUSH2 0x952 SWAP2 SWAP1 PUSH2 0x363A JUMP JUMPDEST PUSH2 0x15E8 JUMP JUMPDEST PUSH1 0x40 MLOAD PUSH2 0x964 SWAP2 SWAP1 PUSH2 0x38D4 JUMP JUMPDEST PUSH1 0x40 MLOAD DUP1 SWAP2 SUB SWAP1 RETURN JUMPDEST CALLVALUE DUP1 ISZERO PUSH2 0x979 JUMPI PUSH1 0x0 DUP1 REVERT JUMPDEST POP PUSH2 0x994 PUSH1 0x4 DUP1 CALLDATASIZE SUB DUP2 ADD SWAP1 PUSH2 0x98F SWAP2 SWAP1 PUSH2 0x369A JUMP JUMPDEST PUSH2 0x1727 JUMP JUMPDEST PUSH1 0x40 MLOAD PUSH2 0x9A1 SWAP2 SWAP1 PUSH2 0x3505 JUMP JUMPDEST PUSH1 0x40 MLOAD DUP1 SWAP2 SUB SWAP1 RETURN JUMPDEST CALLVALUE DUP1 ISZERO PUSH2 0x9B6 JUMPI PUSH1 0x0 DUP1 REVERT JUMPDEST POP PUSH2 0x9BF PUSH2 0x17AE JUMP JUMPDEST PUSH1 0x40 MLOAD PUSH2 0x9CC SWAP2 SWAP1 PUSH2 0x3505 JUMP JUMPDEST PUSH1 0x40 MLOAD DUP1 SWAP2 SUB SWAP1 RETURN JUMPDEST CALLVALUE DUP1 ISZERO PUSH2 0x9E1 JUMPI PUSH1 0x0 DUP1 REVERT JUMPDEST POP PUSH2 0x9FC PUSH1 0x4 DUP1 CALLDATASIZE SUB DUP2 ADD SWAP1 PUSH2 0x9F7 SWAP2 SWAP1 PUSH2 0x33AF JUMP JUMPDEST PUSH2 0x17BA JUMP JUMPDEST PUSH1 0x40 MLOAD PUSH2 0xA09 SWAP2 SWAP1 PUSH2 0x3284 JUMP JUMPDEST PUSH1 0x40 MLOAD DUP1 SWAP2 SUB SWAP1 RETURN JUMPDEST PUSH2 0xA2C PUSH1 0x4 DUP1 CALLDATASIZE SUB DUP2 ADD SWAP1 PUSH2 0xA27 SWAP2 SWAP1 PUSH2 0x394C JUMP JUMPDEST PUSH2 0x17ED JUMP JUMPDEST STOP JUMPDEST CALLVALUE DUP1 ISZERO PUSH2 0xA3A JUMPI PUSH1 0x0 DUP1 REVERT JUMPDEST POP PUSH2 0xA43 PUSH2 0x1B2E JUMP JUMPDEST PUSH1 0x40 MLOAD PUSH2 0xA50 SWAP2 SWAP1 PUSH2 0x34D1 JUMP JUMPDEST PUSH1 0x40 MLOAD DUP1 SWAP2 SUB SWAP1 RETURN JUMPDEST PUSH1 0x0 PUSH32 0x7965DB0B00000000000000000000000000000000000000000000000000000000 PUSH28 0xFFFFFFFFFFFFFFFFFFFFFFFFFFFFFFFFFFFFFFFFFFFFFFFFFFFFFFFF NOT AND DUP3 PUSH28 0xFFFFFFFFFFFFFFFFFFFFFFFFFFFFFFFFFFFFFFFFFFFFFFFFFFFFFFFF NOT AND EQ DUP1 PUSH2 0xACC JUMPI POP PUSH2 0xACB DUP3 PUSH2 0x1B52 JUMP JUMPDEST JUMPDEST SWAP1 POP SWAP2 SWAP1 POP JUMP JUMPDEST PUSH2 0xADB PUSH2 0x1BBC JUMP JUMPDEST PUSH2 0xAE4 CALLER PUSH2 0x1C0B JUMP JUMPDEST PUSH2 0xB30 DUP3 DUP3 DUP1 DUP1 PUSH1 0x20 MUL PUSH1 0x20 ADD PUSH1 0x40 MLOAD SWAP1 DUP2 ADD PUSH1 0x40 MSTORE DUP1 SWAP4 SWAP3 SWAP2 SWAP1 DUP2 DUP2 MSTORE PUSH1 0x20 ADD DUP4 DUP4 PUSH1 0x20 MUL DUP1 DUP3 DUP5 CALLDATACOPY PUSH1 0x0 DUP2 DUP5 ADD MSTORE PUSH1 0x1F NOT PUSH1 0x1F DUP3 ADD AND SWAP1 POP DUP1 DUP4 ADD SWAP3 POP POP POP POP POP POP POP ADDRESS CALLER PUSH2 0x1C6E JUMP JUMPDEST PUSH2 0xB38 PUSH2 0x1D5F JUMP JUMPDEST POP POP JUMP JUMPDEST PUSH1 0x0 PUSH2 0xB68 PUSH32 0x6241945B9C52237C1FC120A0E65553D4E6E262C3D36B3810008A6C39502BED19 DUP4 PUSH2 0x114E JUMP JUMPDEST SWAP1 POP SWAP2 SWAP1 POP JUMP JUMPDEST PUSH1 0x0 DUP1 SLOAD SWAP1 PUSH2 0x100 EXP SWAP1 DIV PUSH20 0xFFFFFFFFFFFFFFFFFFFFFFFFFFFFFFFFFFFFFFFF AND DUP2 JUMP JUMPDEST PUSH2 0xB9C CALLER PUSH2 0x1D69 JUMP JUMPDEST PUSH2 0xBC6 PUSH32 0xDF8B4C520FFE197C5343C6F5AEC59570151EF9A492F2C624FD45DDDE6135EC42 CALLER PUSH2 0x1DCC JUMP JUMPDEST JUMP JUMPDEST PUSH1 0xCA PUSH1 0x1 SWAP1 SLOAD SWAP1 PUSH2 0x100 EXP SWAP1 DIV PUSH1 0xFF AND DUP2 JUMP JUMPDEST PUSH2 0xBE4 CALLER PUSH2 0x1D69 JUMP JUMPDEST PUSH2 0xC0F PUSH32 0xBB33B450B5787500B7743166D12295E6B6B742804A612449720D079818EBC632 DUP4 DUP4 PUSH2 0x1EAE JUMP JUMPDEST POP POP JUMP JUMPDEST PUSH2 0xC1C CALLER PUSH2 0x1D69 JUMP JUMPDEST PUSH2 0xC47 PUSH32 0x6241945B9C52237C1FC120A0E65553D4E6E262C3D36B3810008A6C39502BED19 DUP4 DUP4 PUSH2 0x1F06 JUMP JUMPDEST POP POP JUMP JUMPDEST PUSH2 0xC54 CALLER PUSH2 0x1D69 JUMP JUMPDEST DUP1 PUSH1 0xCA PUSH1 0x0 PUSH2 0x100 EXP DUP2 SLOAD DUP2 PUSH1 0xFF MUL NOT AND SWAP1 DUP4 ISZERO ISZERO MUL OR SWAP1 SSTORE POP PUSH32 0x46D6D1A61669D91EA3801D9D57B7398C4CED2120F35CA8559749A391047A24AE DUP2 PUSH1 0x40 MLOAD PUSH2 0xC9D SWAP2 SWAP1 PUSH2 0x3284 JUMP JUMPDEST PUSH1 0x40 MLOAD DUP1 SWAP2 SUB SWAP1 LOG1 POP JUMP JUMPDEST PUSH2 0xCB0 PUSH2 0x1BBC JUMP JUMPDEST PUSH1 0x0 PUSH1 0x1 PUSH8 0xFFFFFFFFFFFFFFFF DUP2 GT ISZERO PUSH2 0xCCD JUMPI PUSH2 0xCCC PUSH2 0x39AC JUMP JUMPDEST JUMPDEST PUSH1 0x40 MLOAD SWAP1 DUP1 DUP3 MSTORE DUP1 PUSH1 0x20 MUL PUSH1 0x20 ADD DUP3 ADD PUSH1 0x40 MSTORE DUP1 ISZERO PUSH2 0xCFB JUMPI DUP2 PUSH1 0x20 ADD PUSH1 0x20 DUP3 MUL DUP1 CALLDATASIZE DUP4 CALLDATACOPY DUP1 DUP3 ADD SWAP2 POP POP SWAP1 POP JUMPDEST POP SWAP1 POP DUP2 DUP2 PUSH1 0x0 DUP2 MLOAD DUP2 LT PUSH2 0xD13 JUMPI PUSH2 0xD12 PUSH2 0x39DB JUMP JUMPDEST JUMPDEST PUSH1 0x20 MUL PUSH1 0x20 ADD ADD SWAP1 PUSH20 0xFFFFFFFFFFFFFFFFFFFFFFFFFFFFFFFFFFFFFFFF AND SWAP1 DUP2 PUSH20 0xFFFFFFFFFFFFFFFFFFFFFFFFFFFFFFFFFFFFFFFF AND DUP2 MSTORE POP POP PUSH2 0xD56 CALLER PUSH2 0x1C0B JUMP JUMPDEST PUSH2 0xD61 DUP2 ADDRESS CALLER PUSH2 0x1C6E JUMP JUMPDEST POP PUSH2 0xD6A PUSH2 0x1D5F JUMP JUMPDEST POP JUMP JUMPDEST PUSH1 0x0 PUSH1 0x65 PUSH1 0x0 DUP4 DUP2 MSTORE PUSH1 0x20 ADD SWAP1 DUP2 MSTORE PUSH1 0x20 ADD PUSH1 0x0 KECCAK256 PUSH1 0x1 ADD SLOAD SWAP1 POP SWAP2 SWAP1 POP JUMP JUMPDEST PUSH1 0x0 PUSH2 0xDB9 PUSH32 0xDF8B4C520FFE197C5343C6F5AEC59570151EF9A492F2C624FD45DDDE6135EC42 DUP4 PUSH2 0x114E JUMP JUMPDEST SWAP1 POP SWAP2 SWAP1 POP JUMP JUMPDEST PUSH1 0xC9 SLOAD DUP2 JUMP JUMPDEST PUSH2 0xDCF CALLER PUSH2 0x1D69 JUMP JUMPDEST PUSH2 0xDFA PUSH32 0xB65D1AD2CA8116A35CCD39BE9425554AB4464BE07FEB2B70D510D92105C6F083 DUP4 DUP4 PUSH2 0x1EAE JUMP JUMPDEST POP POP JUMP JUMPDEST PUSH32 0xDF8B4C520FFE197C5343C6F5AEC59570151EF9A492F2C624FD45DDDE6135EC42 DUP2 JUMP JUMPDEST PUSH2 0xE2B DUP3 PUSH2 0xD6D JUMP JUMPDEST PUSH2 0xE34 DUP2 PUSH2 0x1F5E JUMP JUMPDEST PUSH2 0xE3E DUP4 DUP4 PUSH2 0x1F72 JUMP JUMPDEST POP POP POP JUMP JUMPDEST PUSH2 0xE4C CALLER PUSH2 0x1D69 JUMP JUMPDEST PUSH2 0xE55 DUP2 PUSH2 0x2053 JUMP JUMPDEST POP JUMP JUMPDEST PUSH2 0xE60 PUSH2 0x20D6 JUMP JUMPDEST PUSH20 0xFFFFFFFFFFFFFFFFFFFFFFFFFFFFFFFFFFFFFFFF AND DUP2 PUSH20 0xFFFFFFFFFFFFFFFFFFFFFFFFFFFFFFFFFFFFFFFF AND EQ PUSH2 0xECD JUMPI PUSH1 0x40 MLOAD PUSH32 0x8C379A000000000000000000000000000000000000000000000000000000000 DUP2 MSTORE PUSH1 0x4 ADD PUSH2 0xEC4 SWAP1 PUSH2 0x3A8D JUMP JUMPDEST PUSH1 0x40 MLOAD DUP1 SWAP2 SUB SWAP1 REVERT JUMPDEST PUSH2 0xED7 DUP3 DUP3 PUSH2 0x1DCC JUMP JUMPDEST POP POP JUMP JUMPDEST PUSH2 0xEE3 PUSH2 0x1BBC JUMP JUMPDEST PUSH1 0x0 DUP3 DUP3 SWAP1 POP SWAP1 POP PUSH1 0x0 JUMPDEST DUP2 DUP2 LT ISZERO PUSH2 0xF9D JUMPI PUSH2 0xF90 DUP7 DUP7 DUP1 DUP1 PUSH1 0x20 MUL PUSH1 0x20 ADD PUSH1 0x40 MLOAD SWAP1 DUP2 ADD PUSH1 0x40 MSTORE DUP1 SWAP4 SWAP3 SWAP2 SWAP1 DUP2 DUP2 MSTORE PUSH1 0x20 ADD DUP4 DUP4 PUSH1 0x20 MUL DUP1 DUP3 DUP5 CALLDATACOPY PUSH1 0x0 DUP2 DUP5 ADD MSTORE PUSH1 0x1F NOT PUSH1 0x1F DUP3 ADD AND SWAP1 POP DUP1 DUP4 ADD SWAP3 POP POP POP POP POP POP POP DUP6 DUP6 DUP5 DUP2 DUP2 LT PUSH2 0xF4E JUMPI PUSH2 0xF4D PUSH2 0x39DB JUMP JUMPDEST JUMPDEST SWAP1 POP PUSH1 0x20 MUL ADD PUSH1 0x20 DUP2 ADD SWAP1 PUSH2 0xF63 SWAP2 SWAP1 PUSH2 0x33AF JUMP JUMPDEST DUP7 DUP7 DUP6 DUP2 DUP2 LT PUSH2 0xF76 JUMPI PUSH2 0xF75 PUSH2 0x39DB JUMP JUMPDEST JUMPDEST SWAP1 POP PUSH1 0x20 MUL ADD PUSH1 0x20 DUP2 ADD SWAP1 PUSH2 0xF8B SWAP2 SWAP1 PUSH2 0x33AF JUMP JUMPDEST PUSH2 0x1C6E JUMP JUMPDEST DUP1 DUP1 PUSH1 0x1 ADD SWAP2 POP POP PUSH2 0xEEE JUMP JUMPDEST POP POP PUSH2 0xFA7 PUSH2 0x1D5F JUMP JUMPDEST POP POP POP POP JUMP JUMPDEST PUSH2 0xFB6 CALLER PUSH2 0x1D69 JUMP JUMPDEST PUSH2 0xFE1 PUSH32 0xDF8B4C520FFE197C5343C6F5AEC59570151EF9A492F2C624FD45DDDE6135EC42 DUP4 DUP4 PUSH2 0x1F06 JUMP JUMPDEST POP POP JUMP JUMPDEST PUSH2 0xFED PUSH2 0x1BBC JUMP JUMPDEST PUSH2 0x1039 DUP4 DUP4 DUP1 DUP1 PUSH1 0x20 MUL PUSH1 0x20 ADD PUSH1 0x40 MLOAD SWAP1 DUP2 ADD PUSH1 0x40 MSTORE DUP1 SWAP4 SWAP3 SWAP2 SWAP1 DUP2 DUP2 MSTORE PUSH1 0x20 ADD DUP4 DUP4 PUSH1 0x20 MUL DUP1 DUP3 DUP5 CALLDATACOPY PUSH1 0x0 DUP2 DUP5 ADD MSTORE PUSH1 0x1F NOT PUSH1 0x1F DUP3 ADD AND SWAP1 POP DUP1 DUP4 ADD SWAP3 POP POP POP POP POP POP POP DUP3 DUP4 PUSH2 0x1C6E JUMP JUMPDEST PUSH2 0x1041 PUSH2 0x1D5F JUMP JUMPDEST POP POP POP JUMP JUMPDEST PUSH1 0xCA PUSH1 0x0 SWAP1 SLOAD SWAP1 PUSH2 0x100 EXP SWAP1 DIV PUSH1 0xFF AND DUP2 JUMP JUMPDEST PUSH2 0x1061 PUSH2 0x1BBC JUMP JUMPDEST PUSH2 0x10AD DUP3 DUP3 DUP1 DUP1 PUSH1 0x20 MUL PUSH1 0x20 ADD PUSH1 0x40 MLOAD SWAP1 DUP2 ADD PUSH1 0x40 MSTORE DUP1 SWAP4 SWAP3 SWAP2 SWAP1 DUP2 DUP2 MSTORE PUSH1 0x20 ADD DUP4 DUP4 PUSH1 0x20 MUL DUP1 DUP3 DUP5 CALLDATACOPY PUSH1 0x0 DUP2 DUP5 ADD MSTORE PUSH1 0x1F NOT PUSH1 0x1F DUP3 ADD AND SWAP1 POP DUP1 DUP4 ADD SWAP3 POP POP POP POP POP POP POP CALLER CALLER PUSH2 0x1C6E JUMP JUMPDEST PUSH2 0x10B5 PUSH2 0x1D5F JUMP JUMPDEST POP POP JUMP JUMPDEST PUSH2 0x10C2 CALLER PUSH2 0x1D69 JUMP JUMPDEST DUP1 PUSH1 0xCA PUSH1 0x1 PUSH2 0x100 EXP DUP2 SLOAD DUP2 PUSH1 0xFF MUL NOT AND SWAP1 DUP4 ISZERO ISZERO MUL OR SWAP1 SSTORE POP PUSH32 0x618C1DFCDC0554EAA0869D571DEFB09F99AE2ADD7C190D59444DB6D0392489A7 DUP2 PUSH1 0x40 MLOAD PUSH2 0x110B SWAP2 SWAP1 PUSH2 0x3284 JUMP JUMPDEST PUSH1 0x40 MLOAD DUP1 SWAP2 SUB SWAP1 LOG1 POP JUMP JUMPDEST PUSH2 0x111F CALLER PUSH2 0x1D69 JUMP JUMPDEST PUSH2 0x114A PUSH32 0xBB33B450B5787500B7743166D12295E6B6B742804A612449720D079818EBC632 DUP4 DUP4 PUSH2 0x1F06 JUMP JUMPDEST POP POP JUMP JUMPDEST PUSH1 0x0 PUSH1 0x65 PUSH1 0x0 DUP5 DUP2 MSTORE PUSH1 0x20 ADD SWAP1 DUP2 MSTORE PUSH1 0x20 ADD PUSH1 0x0 KECCAK256 PUSH1 0x0 ADD PUSH1 0x0 DUP4 PUSH20 0xFFFFFFFFFFFFFFFFFFFFFFFFFFFFFFFFFFFFFFFF AND PUSH20 0xFFFFFFFFFFFFFFFFFFFFFFFFFFFFFFFFFFFFFFFF AND DUP2 MSTORE PUSH1 0x20 ADD SWAP1 DUP2 MSTORE PUSH1 0x20 ADD PUSH1 0x0 KECCAK256 PUSH1 0x0 SWAP1 SLOAD SWAP1 PUSH2 0x100 EXP SWAP1 DIV PUSH1 0xFF AND SWAP1 POP SWAP3 SWAP2 POP POP JUMP JUMPDEST PUSH2 0x11C2 CALLER PUSH2 0x1D69 JUMP JUMPDEST PUSH2 0x11ED PUSH32 0xB65D1AD2CA8116A35CCD39BE9425554AB4464BE07FEB2B70D510D92105C6F083 DUP4 DUP4 PUSH2 0x1F06 JUMP JUMPDEST POP POP JUMP JUMPDEST PUSH1 0x0 DUP2 JUMP JUMPDEST PUSH1 0x0 DUP1 SHL DUP2 JUMP JUMPDEST PUSH2 0x120A PUSH1 0x0 DUP1 SHL CALLER PUSH2 0x114E JUMP JUMPDEST PUSH2 0x1240 JUMPI PUSH1 0x40 MLOAD PUSH32 0x46AB053D00000000000000000000000000000000000000000000000000000000 DUP2 MSTORE PUSH1 0x4 ADD PUSH1 0x40 MLOAD DUP1 SWAP2 SUB SWAP1 REVERT JUMPDEST PUSH2 0x126B PUSH32 0xDF8B4C520FFE197C5343C6F5AEC59570151EF9A492F2C624FD45DDDE6135EC42 DUP4 DUP4 PUSH2 0x1EAE JUMP JUMPDEST POP POP JUMP JUMPDEST PUSH1 0x0 PUSH2 0x129B PUSH32 0xB65D1AD2CA8116A35CCD39BE9425554AB4464BE07FEB2B70D510D92105C6F083 DUP4 PUSH2 0x114E JUMP JUMPDEST SWAP1 POP SWAP2 SWAP1 POP JUMP JUMPDEST PUSH2 0x12AB CALLER PUSH2 0x1D69 JUMP JUMPDEST PUSH2 0x12D6 PUSH32 0x6241945B9C52237C1FC120A0E65553D4E6E262C3D36B3810008A6C39502BED19 DUP4 DUP4 PUSH2 0x1EAE JUMP JUMPDEST POP POP JUMP JUMPDEST PUSH1 0xCB PUSH1 0x20 MSTORE DUP2 PUSH1 0x0 MSTORE PUSH1 0x40 PUSH1 0x0 KECCAK256 PUSH1 0x20 MSTORE DUP1 PUSH1 0x0 MSTORE PUSH1 0x40 PUSH1 0x0 KECCAK256 PUSH1 0x0 SWAP2 POP SWAP2 POP POP SLOAD DUP2 JUMP JUMPDEST PUSH32 0xB65D1AD2CA8116A35CCD39BE9425554AB4464BE07FEB2B70D510D92105C6F083 DUP2 JUMP JUMPDEST PUSH2 0x132C DUP3 PUSH2 0xD6D JUMP JUMPDEST PUSH2 0x1335 DUP2 PUSH2 0x1F5E JUMP JUMPDEST PUSH2 0x133F DUP4 DUP4 PUSH2 0x1DCC JUMP JUMPDEST POP POP POP JUMP JUMPDEST PUSH32 0xBB33B450B5787500B7743166D12295E6B6B742804A612449720D079818EBC632 DUP2 JUMP JUMPDEST PUSH1 0x0 PUSH20 0xFFFFFFFFFFFFFFFFFFFFFFFFFFFFFFFFFFFFFFFF AND PUSH1 0x0 DUP1 SLOAD SWAP1 PUSH2 0x100 EXP SWAP1 DIV PUSH20 0xFFFFFFFFFFFFFFFFFFFFFFFFFFFFFFFFFFFFFFFF AND PUSH20 0xFFFFFFFFFFFFFFFFFFFFFFFFFFFFFFFFFFFFFFFF AND EQ PUSH2 0x13F7 JUMPI PUSH1 0x40 MLOAD PUSH32 0x8C379A000000000000000000000000000000000000000000000000000000000 DUP2 MSTORE PUSH1 0x4 ADD PUSH2 0x13EE SWAP1 PUSH2 0x3AF9 JUMP JUMPDEST PUSH1 0x40 MLOAD DUP1 SWAP2 SUB SWAP1 REVERT JUMPDEST CALLER PUSH1 0x0 DUP1 PUSH2 0x100 EXP DUP2 SLOAD DUP2 PUSH20 0xFFFFFFFFFFFFFFFFFFFFFFFFFFFFFFFFFFFFFFFF MUL NOT AND SWAP1 DUP4 PUSH20 0xFFFFFFFFFFFFFFFFFFFFFFFFFFFFFFFFFFFFFFFF AND MUL OR SWAP1 SSTORE POP JUMP JUMPDEST PUSH1 0x0 DUP1 PUSH1 0x15 SWAP1 SLOAD SWAP1 PUSH2 0x100 EXP SWAP1 DIV PUSH1 0xFF AND ISZERO SWAP1 POP DUP1 DUP1 ISZERO PUSH2 0x146C JUMPI POP PUSH1 0x1 PUSH1 0x0 PUSH1 0x14 SWAP1 SLOAD SWAP1 PUSH2 0x100 EXP SWAP1 DIV PUSH1 0xFF AND PUSH1 0xFF AND LT JUMPDEST DUP1 PUSH2 0x149B JUMPI POP PUSH2 0x147B ADDRESS PUSH2 0x20DE JUMP JUMPDEST ISZERO DUP1 ISZERO PUSH2 0x149A JUMPI POP PUSH1 0x1 PUSH1 0x0 PUSH1 0x14 SWAP1 SLOAD SWAP1 PUSH2 0x100 EXP SWAP1 DIV PUSH1 0xFF AND PUSH1 0xFF AND EQ JUMPDEST JUMPDEST PUSH2 0x14DA JUMPI PUSH1 0x40 MLOAD PUSH32 0x8C379A000000000000000000000000000000000000000000000000000000000 DUP2 MSTORE PUSH1 0x4 ADD PUSH2 0x14D1 SWAP1 PUSH2 0x3B8B JUMP JUMPDEST PUSH1 0x40 MLOAD DUP1 SWAP2 SUB SWAP1 REVERT JUMPDEST PUSH1 0x1 PUSH1 0x0 PUSH1 0x14 PUSH2 0x100 EXP DUP2 SLOAD DUP2 PUSH1 0xFF MUL NOT AND SWAP1 DUP4 PUSH1 0xFF AND MUL OR SWAP1 SSTORE POP DUP1 ISZERO PUSH2 0x1518 JUMPI PUSH1 0x1 PUSH1 0x0 PUSH1 0x15 PUSH2 0x100 EXP DUP2 SLOAD DUP2 PUSH1 0xFF MUL NOT AND SWAP1 DUP4 ISZERO ISZERO MUL OR SWAP1 SSTORE POP JUMPDEST PUSH2 0x1529 DUP11 DUP11 DUP11 DUP11 DUP11 DUP11 DUP11 DUP11 DUP11 PUSH2 0x2101 JUMP JUMPDEST DUP1 ISZERO PUSH2 0x1582 JUMPI PUSH1 0x0 DUP1 PUSH1 0x15 PUSH2 0x100 EXP DUP2 SLOAD DUP2 PUSH1 0xFF MUL NOT AND SWAP1 DUP4 ISZERO ISZERO MUL OR SWAP1 SSTORE POP PUSH32 0x7F26B83FF96E1F2B6A682F133852F6798A09C465DA95921460CEFB3847402498 PUSH1 0x1 PUSH1 0x40 MLOAD PUSH2 0x1579 SWAP2 SWAP1 PUSH2 0x3BFD JUMP JUMPDEST PUSH1 0x40 MLOAD DUP1 SWAP2 SUB SWAP1 LOG1 JUMPDEST POP POP POP POP POP POP POP POP POP POP JUMP JUMPDEST PUSH2 0x1596 PUSH2 0x1BBC JUMP JUMPDEST PUSH1 0x0 DUP2 SUB PUSH2 0x15D0 JUMPI PUSH1 0x40 MLOAD PUSH32 0x2C5211C600000000000000000000000000000000000000000000000000000000 DUP2 MSTORE PUSH1 0x4 ADD PUSH1 0x40 MLOAD DUP1 SWAP2 SUB SWAP1 REVERT JUMPDEST PUSH2 0x15DC DUP3 CALLER CALLER DUP5 PUSH2 0x21D6 JUMP JUMPDEST PUSH2 0x15E4 PUSH2 0x1D5F JUMP JUMPDEST POP POP JUMP JUMPDEST PUSH1 0x60 PUSH1 0x0 DUP5 DUP5 SWAP1 POP SWAP1 POP PUSH1 0x0 DUP2 PUSH8 0xFFFFFFFFFFFFFFFF DUP2 GT ISZERO PUSH2 0x160E JUMPI PUSH2 0x160D PUSH2 0x39AC JUMP JUMPDEST JUMPDEST PUSH1 0x40 MLOAD SWAP1 DUP1 DUP3 MSTORE DUP1 PUSH1 0x20 MUL PUSH1 0x20 ADD DUP3 ADD PUSH1 0x40 MSTORE DUP1 ISZERO PUSH2 0x163C JUMPI DUP2 PUSH1 0x20 ADD PUSH1 0x20 DUP3 MUL DUP1 CALLDATASIZE DUP4 CALLDATACOPY DUP1 DUP3 ADD SWAP2 POP POP SWAP1 POP JUMPDEST POP SWAP1 POP PUSH1 0x0 JUMPDEST DUP3 DUP2 LT ISZERO PUSH2 0x171A JUMPI PUSH1 0xCB PUSH1 0x0 DUP7 PUSH20 0xFFFFFFFFFFFFFFFFFFFFFFFFFFFFFFFFFFFFFFFF AND PUSH20 0xFFFFFFFFFFFFFFFFFFFFFFFFFFFFFFFFFFFFFFFF AND DUP2 MSTORE PUSH1 0x20 ADD SWAP1 DUP2 MSTORE PUSH1 0x20 ADD PUSH1 0x0 KECCAK256 PUSH1 0x0 DUP9 DUP9 DUP5 DUP2 DUP2 LT PUSH2 0x169E JUMPI PUSH2 0x169D PUSH2 0x39DB JUMP JUMPDEST JUMPDEST SWAP1 POP PUSH1 0x20 MUL ADD PUSH1 0x20 DUP2 ADD SWAP1 PUSH2 0x16B3 SWAP2 SWAP1 PUSH2 0x33AF JUMP JUMPDEST PUSH20 0xFFFFFFFFFFFFFFFFFFFFFFFFFFFFFFFFFFFFFFFF AND PUSH20 0xFFFFFFFFFFFFFFFFFFFFFFFFFFFFFFFFFFFFFFFF AND DUP2 MSTORE PUSH1 0x20 ADD SWAP1 DUP2 MSTORE PUSH1 0x20 ADD PUSH1 0x0 KECCAK256 SLOAD DUP3 DUP3 DUP2 MLOAD DUP2 LT PUSH2 0x1701 JUMPI PUSH2 0x1700 PUSH2 0x39DB JUMP JUMPDEST JUMPDEST PUSH1 0x20 MUL PUSH1 0x20 ADD ADD DUP2 DUP2 MSTORE POP POP DUP1 DUP1 PUSH1 0x1 ADD SWAP2 POP POP PUSH2 0x1642 JUMP JUMPDEST POP DUP1 SWAP3 POP POP POP SWAP4 SWAP3 POP POP POP JUMP JUMPDEST PUSH1 0x0 PUSH1 0xCB PUSH1 0x0 DUP4 PUSH20 0xFFFFFFFFFFFFFFFFFFFFFFFFFFFFFFFFFFFFFFFF AND PUSH20 0xFFFFFFFFFFFFFFFFFFFFFFFFFFFFFFFFFFFFFFFF AND DUP2 MSTORE PUSH1 0x20 ADD SWAP1 DUP2 MSTORE PUSH1 0x20 ADD PUSH1 0x0 KECCAK256 PUSH1 0x0 DUP5 PUSH20 0xFFFFFFFFFFFFFFFFFFFFFFFFFFFFFFFFFFFFFFFF AND PUSH20 0xFFFFFFFFFFFFFFFFFFFFFFFFFFFFFFFFFFFFFFFF AND DUP2 MSTORE PUSH1 0x20 ADD SWAP1 DUP2 MSTORE PUSH1 0x20 ADD PUSH1 0x0 KECCAK256 SLOAD SWAP1 POP SWAP3 SWAP2 POP POP JUMP JUMPDEST PUSH8 0xDE0B6B3A7640000 DUP2 JUMP JUMPDEST PUSH1 0x0 PUSH2 0x17E6 PUSH32 0xBB33B450B5787500B7743166D12295E6B6B742804A612449720D079818EBC632 DUP4 PUSH2 0x114E JUMP JUMPDEST SWAP1 POP SWAP2 SWAP1 POP JUMP JUMPDEST PUSH2 0x17F5 PUSH2 0x1BBC JUMP JUMPDEST PUSH1 0x0 PUSH20 0xFFFFFFFFFFFFFFFFFFFFFFFFFFFFFFFFFFFFFFFF AND PUSH1 0x0 DUP1 SLOAD SWAP1 PUSH2 0x100 EXP SWAP1 DIV PUSH20 0xFFFFFFFFFFFFFFFFFFFFFFFFFFFFFFFFFFFFFFFF AND PUSH20 0xFFFFFFFFFFFFFFFFFFFFFFFFFFFFFFFFFFFFFFFF AND SUB PUSH2 0x1884 JUMPI PUSH1 0x40 MLOAD PUSH32 0x8C379A000000000000000000000000000000000000000000000000000000000 DUP2 MSTORE PUSH1 0x4 ADD PUSH2 0x187B SWAP1 PUSH2 0x3C8A JUMP JUMPDEST PUSH1 0x40 MLOAD DUP1 SWAP2 SUB SWAP1 REVERT JUMPDEST PUSH1 0x0 DUP1 SLOAD SWAP1 PUSH2 0x100 EXP SWAP1 DIV PUSH20 0xFFFFFFFFFFFFFFFFFFFFFFFFFFFFFFFFFFFFFFFF AND PUSH20 0xFFFFFFFFFFFFFFFFFFFFFFFFFFFFFFFFFFFFFFFF AND CALLER PUSH20 0xFFFFFFFFFFFFFFFFFFFFFFFFFFFFFFFFFFFFFFFF AND EQ PUSH2 0x1912 JUMPI PUSH1 0x40 MLOAD PUSH32 0x8C379A000000000000000000000000000000000000000000000000000000000 DUP2 MSTORE PUSH1 0x4 ADD PUSH2 0x1909 SWAP1 PUSH2 0x3D1C JUMP JUMPDEST PUSH1 0x40 MLOAD DUP1 SWAP2 SUB SWAP1 REVERT JUMPDEST PUSH1 0x0 DUP4 DUP4 SWAP1 POP SWAP1 POP PUSH1 0x0 DUP1 JUMPDEST DUP3 DUP2 LT ISZERO PUSH2 0x1AE4 JUMPI PUSH1 0x0 DUP1 PUSH1 0x0 DUP9 DUP9 DUP6 DUP2 DUP2 LT PUSH2 0x193E JUMPI PUSH2 0x193D PUSH2 0x39DB JUMP JUMPDEST JUMPDEST SWAP1 POP PUSH1 0x20 MUL DUP2 ADD SWAP1 PUSH2 0x1950 SWAP2 SWAP1 PUSH2 0x3D4B JUMP JUMPDEST DUP2 ADD SWAP1 PUSH2 0x195D SWAP2 SWAP1 PUSH2 0x3DEC JUMP JUMPDEST SWAP3 POP SWAP3 POP SWAP3 POP PUSH1 0xCA PUSH1 0x0 SWAP1 SLOAD SWAP1 PUSH2 0x100 EXP SWAP1 DIV PUSH1 0xFF AND ISZERO PUSH2 0x1982 JUMPI PUSH2 0x1981 DUP4 PUSH2 0x24AA JUMP JUMPDEST JUMPDEST PUSH1 0xCA PUSH1 0x1 SWAP1 SLOAD SWAP1 PUSH2 0x100 EXP SWAP1 DIV PUSH1 0xFF AND ISZERO PUSH2 0x19A1 JUMPI PUSH2 0x19A0 DUP2 PUSH2 0x250D JUMP JUMPDEST JUMPDEST PUSH1 0x0 PUSH20 0xFFFFFFFFFFFFFFFFFFFFFFFFFFFFFFFFFFFFFFFF AND DUP4 PUSH20 0xFFFFFFFFFFFFFFFFFFFFFFFFFFFFFFFFFFFFFFFF AND EQ PUSH2 0x19E5 JUMPI PUSH2 0x19E0 DUP8 DUP5 DUP5 PUSH2 0x2570 JUMP JUMPDEST PUSH2 0x19F4 JUMP JUMPDEST DUP2 DUP6 PUSH2 0x19F1 SWAP2 SWAP1 PUSH2 0x3E6E JUMP JUMPDEST SWAP5 POP JUMPDEST CALLER PUSH20 0xFFFFFFFFFFFFFFFFFFFFFFFFFFFFFFFFFFFFFFFF AND DUP2 PUSH20 0xFFFFFFFFFFFFFFFFFFFFFFFFFFFFFFFFFFFFFFFF AND DUP9 PUSH20 0xFFFFFFFFFFFFFFFFFFFFFFFFFFFFFFFFFFFFFFFF AND PUSH32 0x23F5E053CBB2C4E0D563D51F8CAFAA385FC620CAA979FBCAC023059AD1687D9 DUP7 DUP7 PUSH1 0x40 MLOAD PUSH2 0x1A6A SWAP3 SWAP2 SWAP1 PUSH2 0x3EA2 JUMP JUMPDEST PUSH1 0x40 MLOAD DUP1 SWAP2 SUB SWAP1 LOG4 PUSH1 0x0 PUSH1 0xC9 SLOAD GT ISZERO PUSH2 0x1AC8 JUMPI PUSH1 0x0 PUSH8 0xDE0B6B3A7640000 PUSH1 0xC9 SLOAD DUP5 PUSH2 0x1A96 SWAP2 SWAP1 PUSH2 0x3ECB JUMP JUMPDEST PUSH2 0x1AA0 SWAP2 SWAP1 PUSH2 0x3F3C JUMP JUMPDEST SWAP1 POP PUSH2 0x1AB8 DUP5 DUP4 DUP4 DUP7 PUSH2 0x1AB3 SWAP2 SWAP1 PUSH2 0x3F6D JUMP JUMPDEST PUSH2 0x25A2 JUMP JUMPDEST PUSH2 0x1AC2 DUP5 DUP3 PUSH2 0x26B6 JUMP JUMPDEST POP PUSH2 0x1AD4 JUMP JUMPDEST PUSH2 0x1AD3 DUP4 DUP3 DUP5 PUSH2 0x25A2 JUMP JUMPDEST JUMPDEST DUP4 DUP1 PUSH1 0x1 ADD SWAP5 POP POP POP POP POP PUSH2 0x191E JUMP JUMPDEST POP CALLVALUE DUP2 GT ISZERO PUSH2 0x1B1F JUMPI PUSH1 0x40 MLOAD PUSH32 0x2C5211C600000000000000000000000000000000000000000000000000000000 DUP2 MSTORE PUSH1 0x4 ADD PUSH1 0x40 MLOAD DUP1 SWAP2 SUB SWAP1 REVERT JUMPDEST POP POP PUSH2 0x1B29 PUSH2 0x1D5F JUMP JUMPDEST POP POP POP JUMP JUMPDEST PUSH32 0x6241945B9C52237C1FC120A0E65553D4E6E262C3D36B3810008A6C39502BED19 DUP2 JUMP JUMPDEST PUSH1 0x0 PUSH32 0x1FFC9A700000000000000000000000000000000000000000000000000000000 PUSH28 0xFFFFFFFFFFFFFFFFFFFFFFFFFFFFFFFFFFFFFFFFFFFFFFFFFFFFFFFF NOT AND DUP3 PUSH28 0xFFFFFFFFFFFFFFFFFFFFFFFFFFFFFFFFFFFFFFFFFFFFFFFFFFFFFFFF NOT AND EQ SWAP1 POP SWAP2 SWAP1 POP JUMP JUMPDEST PUSH1 0x2 PUSH1 0x97 SLOAD SUB PUSH2 0x1C01 JUMPI PUSH1 0x40 MLOAD PUSH32 0x8C379A000000000000000000000000000000000000000000000000000000000 DUP2 MSTORE PUSH1 0x4 ADD PUSH2 0x1BF8 SWAP1 PUSH2 0x3FED JUMP JUMPDEST PUSH1 0x40 MLOAD DUP1 SWAP2 SUB SWAP1 REVERT JUMPDEST PUSH1 0x2 PUSH1 0x97 DUP2 SWAP1 SSTORE POP JUMP JUMPDEST PUSH2 0x1C35 PUSH32 0xB65D1AD2CA8116A35CCD39BE9425554AB4464BE07FEB2B70D510D92105C6F083 DUP3 PUSH2 0x114E JUMP JUMPDEST PUSH2 0x1C6B JUMPI PUSH1 0x40 MLOAD PUSH32 0x9D13E6E300000000000000000000000000000000000000000000000000000000 DUP2 MSTORE PUSH1 0x4 ADD PUSH1 0x40 MLOAD DUP1 SWAP2 SUB SWAP1 REVERT JUMPDEST POP JUMP JUMPDEST PUSH1 0x0 DUP4 MLOAD SWAP1 POP PUSH1 0x0 JUMPDEST DUP2 DUP2 LT ISZERO PUSH2 0x1D58 JUMPI PUSH1 0x0 PUSH1 0xCB PUSH1 0x0 DUP7 PUSH20 0xFFFFFFFFFFFFFFFFFFFFFFFFFFFFFFFFFFFFFFFF AND PUSH20 0xFFFFFFFFFFFFFFFFFFFFFFFFFFFFFFFFFFFFFFFF AND DUP2 MSTORE PUSH1 0x20 ADD SWAP1 DUP2 MSTORE PUSH1 0x20 ADD PUSH1 0x0 KECCAK256 PUSH1 0x0 DUP8 DUP5 DUP2 MLOAD DUP2 LT PUSH2 0x1CD5 JUMPI PUSH2 0x1CD4 PUSH2 0x39DB JUMP JUMPDEST JUMPDEST PUSH1 0x20 MUL PUSH1 0x20 ADD ADD MLOAD PUSH20 0xFFFFFFFFFFFFFFFFFFFFFFFFFFFFFFFFFFFFFFFF AND PUSH20 0xFFFFFFFFFFFFFFFFFFFFFFFFFFFFFFFFFFFFFFFF AND DUP2 MSTORE PUSH1 0x20 ADD SWAP1 DUP2 MSTORE PUSH1 0x20 ADD PUSH1 0x0 KECCAK256 SLOAD SWAP1 POP PUSH1 0x0 DUP2 GT ISZERO PUSH2 0x1D4A JUMPI PUSH2 0x1D49 DUP7 DUP4 DUP2 MLOAD DUP2 LT PUSH2 0x1D39 JUMPI PUSH2 0x1D38 PUSH2 0x39DB JUMP JUMPDEST JUMPDEST PUSH1 0x20 MUL PUSH1 0x20 ADD ADD MLOAD DUP7 DUP7 DUP5 PUSH2 0x21D6 JUMP JUMPDEST JUMPDEST DUP2 DUP1 PUSH1 0x1 ADD SWAP3 POP POP POP PUSH2 0x1C77 JUMP JUMPDEST POP POP POP POP POP JUMP JUMPDEST PUSH1 0x1 PUSH1 0x97 DUP2 SWAP1 SSTORE POP JUMP JUMPDEST PUSH2 0x1D93 PUSH32 0xDF8B4C520FFE197C5343C6F5AEC59570151EF9A492F2C624FD45DDDE6135EC42 DUP3 PUSH2 0x114E JUMP JUMPDEST PUSH2 0x1DC9 JUMPI PUSH1 0x40 MLOAD PUSH32 0x7BFA4B9F00000000000000000000000000000000000000000000000000000000 DUP2 MSTORE PUSH1 0x4 ADD PUSH1 0x40 MLOAD DUP1 SWAP2 SUB SWAP1 REVERT JUMPDEST POP JUMP JUMPDEST PUSH2 0x1DD6 DUP3 DUP3 PUSH2 0x114E JUMP JUMPDEST ISZERO PUSH2 0x1EAA JUMPI PUSH1 0x0 PUSH1 0x65 PUSH1 0x0 DUP5 DUP2 MSTORE PUSH1 0x20 ADD SWAP1 DUP2 MSTORE PUSH1 0x20 ADD PUSH1 0x0 KECCAK256 PUSH1 0x0 ADD PUSH1 0x0 DUP4 PUSH20 0xFFFFFFFFFFFFFFFFFFFFFFFFFFFFFFFFFFFFFFFF AND PUSH20 0xFFFFFFFFFFFFFFFFFFFFFFFFFFFFFFFFFFFFFFFF AND DUP2 MSTORE PUSH1 0x20 ADD SWAP1 DUP2 MSTORE PUSH1 0x20 ADD PUSH1 0x0 KECCAK256 PUSH1 0x0 PUSH2 0x100 EXP DUP2 SLOAD DUP2 PUSH1 0xFF MUL NOT AND SWAP1 DUP4 ISZERO ISZERO MUL OR SWAP1 SSTORE POP PUSH2 0x1E4F PUSH2 0x20D6 JUMP JUMPDEST PUSH20 0xFFFFFFFFFFFFFFFFFFFFFFFFFFFFFFFFFFFFFFFF AND DUP2 PUSH20 0xFFFFFFFFFFFFFFFFFFFFFFFFFFFFFFFFFFFFFFFF AND DUP4 PUSH32 0xF6391F5C32D9C69D2A47EA670B442974B53935D1EDC7FD64EB21E047A839171B PUSH1 0x40 MLOAD PUSH1 0x40 MLOAD DUP1 SWAP2 SUB SWAP1 LOG4 JUMPDEST POP POP JUMP JUMPDEST PUSH1 0x0 DUP3 DUP3 SWAP1 POP SWAP1 POP PUSH1 0x0 JUMPDEST DUP2 DUP2 LT ISZERO PUSH2 0x1EFF JUMPI PUSH2 0x1EF2 DUP6 DUP6 DUP6 DUP5 DUP2 DUP2 LT PUSH2 0x1ED8 JUMPI PUSH2 0x1ED7 PUSH2 0x39DB JUMP JUMPDEST JUMPDEST SWAP1 POP PUSH1 0x20 MUL ADD PUSH1 0x20 DUP2 ADD SWAP1 PUSH2 0x1EED SWAP2 SWAP1 PUSH2 0x33AF JUMP JUMPDEST PUSH2 0x1323 JUMP JUMPDEST DUP1 DUP1 PUSH1 0x1 ADD SWAP2 POP POP PUSH2 0x1EB9 JUMP JUMPDEST POP POP POP POP POP JUMP JUMPDEST PUSH1 0x0 DUP3 DUP3 SWAP1 POP SWAP1 POP PUSH1 0x0 JUMPDEST DUP2 DUP2 LT ISZERO PUSH2 0x1F57 JUMPI PUSH2 0x1F4A DUP6 DUP6 DUP6 DUP5 DUP2 DUP2 LT PUSH2 0x1F30 JUMPI PUSH2 0x1F2F PUSH2 0x39DB JUMP JUMPDEST JUMPDEST SWAP1 POP PUSH1 0x20 MUL ADD PUSH1 0x20 DUP2 ADD SWAP1 PUSH2 0x1F45 SWAP2 SWAP1 PUSH2 0x33AF JUMP JUMPDEST PUSH2 0x27B2 JUMP JUMPDEST DUP1 DUP1 PUSH1 0x1 ADD SWAP2 POP POP PUSH2 0x1F11 JUMP JUMPDEST POP POP POP POP POP JUMP JUMPDEST PUSH2 0x1F6F DUP2 PUSH2 0x1F6A PUSH2 0x20D6 JUMP JUMPDEST PUSH2 0x27C0 JUMP JUMPDEST POP JUMP JUMPDEST PUSH2 0x1F7C DUP3 DUP3 PUSH2 0x114E JUMP JUMPDEST PUSH2 0x204F JUMPI PUSH1 0x1 PUSH1 0x65 PUSH1 0x0 DUP5 DUP2 MSTORE PUSH1 0x20 ADD SWAP1 DUP2 MSTORE PUSH1 0x20 ADD PUSH1 0x0 KECCAK256 PUSH1 0x0 ADD PUSH1 0x0 DUP4 PUSH20 0xFFFFFFFFFFFFFFFFFFFFFFFFFFFFFFFFFFFFFFFF AND PUSH20 0xFFFFFFFFFFFFFFFFFFFFFFFFFFFFFFFFFFFFFFFF AND DUP2 MSTORE PUSH1 0x20 ADD SWAP1 DUP2 MSTORE PUSH1 0x20 ADD PUSH1 0x0 KECCAK256 PUSH1 0x0 PUSH2 0x100 EXP DUP2 SLOAD DUP2 PUSH1 0xFF MUL NOT AND SWAP1 DUP4 ISZERO ISZERO MUL OR SWAP1 SSTORE POP PUSH2 0x1FF4 PUSH2 0x20D6 JUMP JUMPDEST PUSH20 0xFFFFFFFFFFFFFFFFFFFFFFFFFFFFFFFFFFFFFFFF AND DUP2 PUSH20 0xFFFFFFFFFFFFFFFFFFFFFFFFFFFFFFFFFFFFFFFF AND DUP4 PUSH32 0x2F8788117E7EFF1D82E926EC794901D17C78024A50270940304540A733656F0D PUSH1 0x40 MLOAD PUSH1 0x40 MLOAD DUP1 SWAP2 SUB SWAP1 LOG4 JUMPDEST POP POP JUMP JUMPDEST PUSH8 0xDE0B6B3A7640000 DUP2 GT ISZERO PUSH2 0x2095 JUMPI PUSH1 0x40 MLOAD PUSH32 0xCD4E616700000000000000000000000000000000000000000000000000000000 DUP2 MSTORE PUSH1 0x4 ADD PUSH1 0x40 MLOAD DUP1 SWAP2 SUB SWAP1 REVERT JUMPDEST DUP1 PUSH1 0xC9 DUP2 SWAP1 SSTORE POP PUSH32 0xD4C19C993AEEB50B76DA8B158F84806C9D235EFF5B86F3A36F12A2E1DD4E6EAC DUP2 PUSH1 0x40 MLOAD PUSH2 0x20CB SWAP2 SWAP1 PUSH2 0x3505 JUMP JUMPDEST PUSH1 0x40 MLOAD DUP1 SWAP2 SUB SWAP1 LOG1 POP JUMP JUMPDEST PUSH1 0x0 CALLER SWAP1 POP SWAP1 JUMP JUMPDEST PUSH1 0x0 DUP1 DUP3 PUSH20 0xFFFFFFFFFFFFFFFFFFFFFFFFFFFFFFFFFFFFFFFF AND EXTCODESIZE GT SWAP1 POP SWAP2 SWAP1 POP JUMP JUMPDEST PUSH1 0x0 PUSH1 0x15 SWAP1 SLOAD SWAP1 PUSH2 0x100 EXP SWAP1 DIV PUSH1 0xFF AND PUSH2 0x2150 JUMPI PUSH1 0x40 MLOAD PUSH32 0x8C379A000000000000000000000000000000000000000000000000000000000 DUP2 MSTORE PUSH1 0x4 ADD PUSH2 0x2147 SWAP1 PUSH2 0x407F JUMP JUMPDEST PUSH1 0x40 MLOAD DUP1 SWAP2 SUB SWAP1 REVERT JUMPDEST PUSH2 0x2160 DUP10 DUP10 DUP10 DUP10 DUP10 DUP10 DUP10 DUP10 PUSH2 0x2845 JUMP JUMPDEST PUSH2 0x2168 PUSH2 0x2A92 JUMP JUMPDEST PUSH1 0x0 DUP10 DUP10 SWAP1 POP GT ISZERO PUSH2 0x2190 JUMPI PUSH1 0x1 PUSH1 0xCA PUSH1 0x0 PUSH2 0x100 EXP DUP2 SLOAD DUP2 PUSH1 0xFF MUL NOT AND SWAP1 DUP4 ISZERO ISZERO MUL OR SWAP1 SSTORE POP JUMPDEST PUSH1 0x0 DUP8 DUP8 SWAP1 POP GT ISZERO PUSH2 0x21B8 JUMPI PUSH1 0x1 PUSH1 0xCA PUSH1 0x1 PUSH2 0x100 EXP DUP2 SLOAD DUP2 PUSH1 0xFF MUL NOT AND SWAP1 DUP4 ISZERO ISZERO MUL OR SWAP1 SSTORE POP JUMPDEST PUSH1 0x0 DUP2 GT ISZERO PUSH2 0x21CB JUMPI PUSH2 0x21CA DUP2 PUSH2 0x2053 JUMP JUMPDEST JUMPDEST POP POP POP POP POP POP POP POP POP JUMP JUMPDEST PUSH1 0xCB PUSH1 0x0 DUP5 PUSH20 0xFFFFFFFFFFFFFFFFFFFFFFFFFFFFFFFFFFFFFFFF AND PUSH20 0xFFFFFFFFFFFFFFFFFFFFFFFFFFFFFFFFFFFFFFFF AND DUP2 MSTORE PUSH1 0x20 ADD SWAP1 DUP2 MSTORE PUSH1 0x20 ADD PUSH1 0x0 KECCAK256 PUSH1 0x0 DUP6 PUSH20 0xFFFFFFFFFFFFFFFFFFFFFFFFFFFFFFFFFFFFFFFF AND PUSH20 0xFFFFFFFFFFFFFFFFFFFFFFFFFFFFFFFFFFFFFFFF AND DUP2 MSTORE PUSH1 0x20 ADD SWAP1 DUP2 MSTORE PUSH1 0x20 ADD PUSH1 0x0 KECCAK256 SLOAD DUP2 GT ISZERO PUSH2 0x228C JUMPI PUSH1 0x40 MLOAD PUSH32 0xF4D678B800000000000000000000000000000000000000000000000000000000 DUP2 MSTORE PUSH1 0x4 ADD PUSH1 0x40 MLOAD DUP1 SWAP2 SUB SWAP1 REVERT JUMPDEST DUP1 PUSH1 0xCB PUSH1 0x0 DUP6 PUSH20 0xFFFFFFFFFFFFFFFFFFFFFFFFFFFFFFFFFFFFFFFF AND PUSH20 0xFFFFFFFFFFFFFFFFFFFFFFFFFFFFFFFFFFFFFFFF AND DUP2 MSTORE PUSH1 0x20 ADD SWAP1 DUP2 MSTORE PUSH1 0x20 ADD PUSH1 0x0 KECCAK256 PUSH1 0x0 DUP7 PUSH20 0xFFFFFFFFFFFFFFFFFFFFFFFFFFFFFFFFFFFFFFFF AND PUSH20 0xFFFFFFFFFFFFFFFFFFFFFFFFFFFFFFFFFFFFFFFF AND DUP2 MSTORE PUSH1 0x20 ADD SWAP1 DUP2 MSTORE PUSH1 0x20 ADD PUSH1 0x0 KECCAK256 PUSH1 0x0 DUP3 DUP3 SLOAD PUSH2 0x2318 SWAP2 SWAP1 PUSH2 0x3F6D JUMP JUMPDEST SWAP3 POP POP DUP2 SWAP1 SSTORE POP PUSH1 0x0 PUSH20 0xFFFFFFFFFFFFFFFFFFFFFFFFFFFFFFFFFFFFFFFF AND DUP5 PUSH20 0xFFFFFFFFFFFFFFFFFFFFFFFFFFFFFFFFFFFFFFFF AND SUB PUSH2 0x23FC JUMPI PUSH1 0x0 DUP3 PUSH20 0xFFFFFFFFFFFFFFFFFFFFFFFFFFFFFFFFFFFFFFFF AND DUP3 PUSH1 0x40 MLOAD PUSH2 0x2379 SWAP1 PUSH2 0x40D0 JUMP JUMPDEST PUSH1 0x0 PUSH1 0x40 MLOAD DUP1 DUP4 SUB DUP2 DUP6 DUP8 GAS CALL SWAP3 POP POP POP RETURNDATASIZE DUP1 PUSH1 0x0 DUP2 EQ PUSH2 0x23B6 JUMPI PUSH1 0x40 MLOAD SWAP2 POP PUSH1 0x1F NOT PUSH1 0x3F RETURNDATASIZE ADD AND DUP3 ADD PUSH1 0x40 MSTORE RETURNDATASIZE DUP3 MSTORE RETURNDATASIZE PUSH1 0x0 PUSH1 0x20 DUP5 ADD RETURNDATACOPY PUSH2 0x23BB JUMP JUMPDEST PUSH1 0x60 SWAP2 POP JUMPDEST POP POP SWAP1 POP DUP1 PUSH2 0x23F6 JUMPI PUSH1 0x40 MLOAD PUSH32 0x90B8EC1800000000000000000000000000000000000000000000000000000000 DUP2 MSTORE PUSH1 0x4 ADD PUSH1 0x40 MLOAD DUP1 SWAP2 SUB SWAP1 REVERT JUMPDEST POP PUSH2 0x2428 JUMP JUMPDEST PUSH2 0x2427 DUP3 DUP3 DUP7 PUSH20 0xFFFFFFFFFFFFFFFFFFFFFFFFFFFFFFFFFFFFFFFF AND PUSH2 0x2AEB SWAP1 SWAP3 SWAP2 SWAP1 PUSH4 0xFFFFFFFF AND JUMP JUMPDEST JUMPDEST DUP2 PUSH20 0xFFFFFFFFFFFFFFFFFFFFFFFFFFFFFFFFFFFFFFFF AND DUP4 PUSH20 0xFFFFFFFFFFFFFFFFFFFFFFFFFFFFFFFFFFFFFFFF AND DUP6 PUSH20 0xFFFFFFFFFFFFFFFFFFFFFFFFFFFFFFFFFFFFFFFF AND PUSH32 0x3115D1449A7B732C986CBA18244E897A450F61E1BB8D589CD2E69E6C8924F9F7 DUP5 PUSH1 0x40 MLOAD PUSH2 0x249C SWAP2 SWAP1 PUSH2 0x3505 JUMP JUMPDEST PUSH1 0x40 MLOAD DUP1 SWAP2 SUB SWAP1 LOG4 POP POP POP POP JUMP JUMPDEST PUSH2 0x24D4 PUSH32 0x6241945B9C52237C1FC120A0E65553D4E6E262C3D36B3810008A6C39502BED19 DUP3 PUSH2 0x114E JUMP JUMPDEST PUSH2 0x250A JUMPI PUSH1 0x40 MLOAD PUSH32 0xE51CF7BF00000000000000000000000000000000000000000000000000000000 DUP2 MSTORE PUSH1 0x4 ADD PUSH1 0x40 MLOAD DUP1 SWAP2 SUB SWAP1 REVERT JUMPDEST POP JUMP JUMPDEST PUSH2 0x2537 PUSH32 0xBB33B450B5787500B7743166D12295E6B6B742804A612449720D079818EBC632 DUP3 PUSH2 0x114E JUMP JUMPDEST PUSH2 0x256D JUMPI PUSH1 0x40 MLOAD PUSH32 0x375A7A9200000000000000000000000000000000000000000000000000000000 DUP2 MSTORE PUSH1 0x4 ADD PUSH1 0x40 MLOAD DUP1 SWAP2 SUB SWAP1 REVERT JUMPDEST POP JUMP JUMPDEST PUSH2 0x259D DUP4 ADDRESS DUP4 DUP6 PUSH20 0xFFFFFFFFFFFFFFFFFFFFFFFFFFFFFFFFFFFFFFFF AND PUSH2 0x2B71 SWAP1 SWAP4 SWAP3 SWAP2 SWAP1 PUSH4 0xFFFFFFFF AND JUMP JUMPDEST POP POP POP JUMP JUMPDEST DUP1 PUSH1 0xCB PUSH1 0x0 DUP5 PUSH20 0xFFFFFFFFFFFFFFFFFFFFFFFFFFFFFFFFFFFFFFFF AND PUSH20 0xFFFFFFFFFFFFFFFFFFFFFFFFFFFFFFFFFFFFFFFF AND DUP2 MSTORE PUSH1 0x20 ADD SWAP1 DUP2 MSTORE PUSH1 0x20 ADD PUSH1 0x0 KECCAK256 PUSH1 0x0 DUP6 PUSH20 0xFFFFFFFFFFFFFFFFFFFFFFFFFFFFFFFFFFFFFFFF AND PUSH20 0xFFFFFFFFFFFFFFFFFFFFFFFFFFFFFFFFFFFFFFFF AND DUP2 MSTORE PUSH1 0x20 ADD SWAP1 DUP2 MSTORE PUSH1 0x20 ADD PUSH1 0x0 KECCAK256 PUSH1 0x0 DUP3 DUP3 SLOAD PUSH2 0x262E SWAP2 SWAP1 PUSH2 0x3E6E JUMP JUMPDEST SWAP3 POP POP DUP2 SWAP1 SSTORE POP DUP2 PUSH20 0xFFFFFFFFFFFFFFFFFFFFFFFFFFFFFFFFFFFFFFFF AND CALLER PUSH20 0xFFFFFFFFFFFFFFFFFFFFFFFFFFFFFFFFFFFFFFFF AND DUP5 PUSH20 0xFFFFFFFFFFFFFFFFFFFFFFFFFFFFFFFFFFFFFFFF AND PUSH32 0xB91B2D1906A6E6E2B45B99EB26AC141804EB2684A0DF30699FDCB8B5CED1D518 DUP5 PUSH1 0x40 MLOAD PUSH2 0x26A9 SWAP2 SWAP1 PUSH2 0x3505 JUMP JUMPDEST PUSH1 0x40 MLOAD DUP1 SWAP2 SUB SWAP1 LOG4 POP POP POP JUMP JUMPDEST DUP1 PUSH1 0xCB PUSH1 0x0 ADDRESS PUSH20 0xFFFFFFFFFFFFFFFFFFFFFFFFFFFFFFFFFFFFFFFF AND PUSH20 0xFFFFFFFFFFFFFFFFFFFFFFFFFFFFFFFFFFFFFFFF AND DUP2 MSTORE PUSH1 0x20 ADD SWAP1 DUP2 MSTORE PUSH1 0x20 ADD PUSH1 0x0 KECCAK256 PUSH1 0x0 DUP5 PUSH20 0xFFFFFFFFFFFFFFFFFFFFFFFFFFFFFFFFFFFFFFFF AND PUSH20 0xFFFFFFFFFFFFFFFFFFFFFFFFFFFFFFFFFFFFFFFF AND DUP2 MSTORE PUSH1 0x20 ADD SWAP1 DUP2 MSTORE PUSH1 0x20 ADD PUSH1 0x0 KECCAK256 PUSH1 0x0 DUP3 DUP3 SLOAD PUSH2 0x2742 SWAP2 SWAP1 PUSH2 0x3E6E JUMP JUMPDEST SWAP3 POP POP DUP2 SWAP1 SSTORE POP CALLER PUSH20 0xFFFFFFFFFFFFFFFFFFFFFFFFFFFFFFFFFFFFFFFF AND DUP3 PUSH20 0xFFFFFFFFFFFFFFFFFFFFFFFFFFFFFFFFFFFFFFFF AND PUSH32 0x468C2F4EC7CE54B88B575DB5D64710429B1880E4581F5328AAA4B3F51DADC58B DUP4 PUSH1 0x40 MLOAD PUSH2 0x27A6 SWAP2 SWAP1 PUSH2 0x3505 JUMP JUMPDEST PUSH1 0x40 MLOAD DUP1 SWAP2 SUB SWAP1 LOG3 POP POP JUMP JUMPDEST PUSH2 0x27BC DUP3 DUP3 PUSH2 0x1F72 JUMP JUMPDEST POP POP JUMP JUMPDEST PUSH2 0x27CA DUP3 DUP3 PUSH2 0x114E JUMP JUMPDEST PUSH2 0x2841 JUMPI PUSH2 0x27D7 DUP2 PUSH2 0x2BFA JUMP JUMPDEST PUSH2 0x27E5 DUP4 PUSH1 0x0 SHR PUSH1 0x20 PUSH2 0x2C27 JUMP JUMPDEST PUSH1 0x40 MLOAD PUSH1 0x20 ADD PUSH2 0x27F6 SWAP3 SWAP2 SWAP1 PUSH2 0x41EE JUMP JUMPDEST PUSH1 0x40 MLOAD PUSH1 0x20 DUP2 DUP4 SUB SUB DUP2 MSTORE SWAP1 PUSH1 0x40 MSTORE PUSH1 0x40 MLOAD PUSH32 0x8C379A000000000000000000000000000000000000000000000000000000000 DUP2 MSTORE PUSH1 0x4 ADD PUSH2 0x2838 SWAP2 SWAP1 PUSH2 0x4272 JUMP JUMPDEST PUSH1 0x40 MLOAD DUP1 SWAP2 SUB SWAP1 REVERT JUMPDEST POP POP JUMP JUMPDEST PUSH1 0x0 PUSH1 0x15 SWAP1 SLOAD SWAP1 PUSH2 0x100 EXP SWAP1 DIV PUSH1 0xFF AND PUSH2 0x2894 JUMPI PUSH1 0x40 MLOAD PUSH32 0x8C379A000000000000000000000000000000000000000000000000000000000 DUP2 MSTORE PUSH1 0x4 ADD PUSH2 0x288B SWAP1 PUSH2 0x407F JUMP JUMPDEST PUSH1 0x40 MLOAD DUP1 SWAP2 SUB SWAP1 REVERT JUMPDEST PUSH2 0x289C PUSH2 0x2E63 JUMP JUMPDEST PUSH2 0x28A9 PUSH1 0x0 DUP1 SHL CALLER PUSH2 0x27B2 JUMP JUMPDEST PUSH2 0x28D3 PUSH32 0xBB33B450B5787500B7743166D12295E6B6B742804A612449720D079818EBC632 ADDRESS PUSH2 0x27B2 JUMP JUMPDEST PUSH2 0x291D PUSH32 0x6241945B9C52237C1FC120A0E65553D4E6E262C3D36B3810008A6C39502BED19 PUSH32 0xDF8B4C520FFE197C5343C6F5AEC59570151EF9A492F2C624FD45DDDE6135EC42 PUSH2 0x2EB4 JUMP JUMPDEST PUSH2 0x2967 PUSH32 0xBB33B450B5787500B7743166D12295E6B6B742804A612449720D079818EBC632 PUSH32 0xDF8B4C520FFE197C5343C6F5AEC59570151EF9A492F2C624FD45DDDE6135EC42 PUSH2 0x2EB4 JUMP JUMPDEST PUSH2 0x29B1 PUSH32 0xB65D1AD2CA8116A35CCD39BE9425554AB4464BE07FEB2B70D510D92105C6F083 PUSH32 0xDF8B4C520FFE197C5343C6F5AEC59570151EF9A492F2C624FD45DDDE6135EC42 PUSH2 0x2EB4 JUMP JUMPDEST PUSH2 0x29DC PUSH32 0x6241945B9C52237C1FC120A0E65553D4E6E262C3D36B3810008A6C39502BED19 DUP10 DUP10 PUSH2 0x1F06 JUMP JUMPDEST PUSH2 0x2A07 PUSH32 0xBB33B450B5787500B7743166D12295E6B6B742804A612449720D079818EBC632 DUP8 DUP8 PUSH2 0x1F06 JUMP JUMPDEST PUSH2 0x2A32 PUSH32 0xB65D1AD2CA8116A35CCD39BE9425554AB4464BE07FEB2B70D510D92105C6F083 DUP6 DUP6 PUSH2 0x1F06 JUMP JUMPDEST PUSH2 0x2A5D PUSH32 0xDF8B4C520FFE197C5343C6F5AEC59570151EF9A492F2C624FD45DDDE6135EC42 DUP4 DUP4 PUSH2 0x1F06 JUMP JUMPDEST PUSH2 0x2A88 PUSH32 0x6241945B9C52237C1FC120A0E65553D4E6E262C3D36B3810008A6C39502BED19 PUSH1 0x0 PUSH2 0x27B2 JUMP JUMPDEST POP POP POP POP POP POP POP POP JUMP JUMPDEST PUSH1 0x0 PUSH1 0x15 SWAP1 SLOAD SWAP1 PUSH2 0x100 EXP SWAP1 DIV PUSH1 0xFF AND PUSH2 0x2AE1 JUMPI PUSH1 0x40 MLOAD PUSH32 0x8C379A000000000000000000000000000000000000000000000000000000000 DUP2 MSTORE PUSH1 0x4 ADD PUSH2 0x2AD8 SWAP1 PUSH2 0x407F JUMP JUMPDEST PUSH1 0x40 MLOAD DUP1 SWAP2 SUB SWAP1 REVERT JUMPDEST PUSH2 0x2AE9 PUSH2 0x2F10 JUMP JUMPDEST JUMP JUMPDEST PUSH2 0x2B6C DUP4 PUSH4 0xA9059CBB PUSH1 0xE0 SHL DUP5 DUP5 PUSH1 0x40 MLOAD PUSH1 0x24 ADD PUSH2 0x2B0A SWAP3 SWAP2 SWAP1 PUSH2 0x3EA2 JUMP JUMPDEST PUSH1 0x40 MLOAD PUSH1 0x20 DUP2 DUP4 SUB SUB DUP2 MSTORE SWAP1 PUSH1 0x40 MSTORE SWAP1 PUSH28 0xFFFFFFFFFFFFFFFFFFFFFFFFFFFFFFFFFFFFFFFFFFFFFFFFFFFFFFFF NOT AND PUSH1 0x20 DUP3 ADD DUP1 MLOAD PUSH28 0xFFFFFFFFFFFFFFFFFFFFFFFFFFFFFFFFFFFFFFFFFFFFFFFFFFFFFFFF DUP4 DUP2 DUP4 AND OR DUP4 MSTORE POP POP POP POP PUSH2 0x2F69 JUMP JUMPDEST POP POP POP JUMP JUMPDEST PUSH2 0x2BF4 DUP5 PUSH4 0x23B872DD PUSH1 0xE0 SHL DUP6 DUP6 DUP6 PUSH1 0x40 MLOAD PUSH1 0x24 ADD PUSH2 0x2B92 SWAP4 SWAP3 SWAP2 SWAP1 PUSH2 0x4294 JUMP JUMPDEST PUSH1 0x40 MLOAD PUSH1 0x20 DUP2 DUP4 SUB SUB DUP2 MSTORE SWAP1 PUSH1 0x40 MSTORE SWAP1 PUSH28 0xFFFFFFFFFFFFFFFFFFFFFFFFFFFFFFFFFFFFFFFFFFFFFFFFFFFFFFFF NOT AND PUSH1 0x20 DUP3 ADD DUP1 MLOAD PUSH28 0xFFFFFFFFFFFFFFFFFFFFFFFFFFFFFFFFFFFFFFFFFFFFFFFFFFFFFFFF DUP4 DUP2 DUP4 AND OR DUP4 MSTORE POP POP POP POP PUSH2 0x2F69 JUMP JUMPDEST POP POP POP POP JUMP JUMPDEST PUSH1 0x60 PUSH2 0x2C20 DUP3 PUSH20 0xFFFFFFFFFFFFFFFFFFFFFFFFFFFFFFFFFFFFFFFF AND PUSH1 0x14 PUSH1 0xFF AND PUSH2 0x2C27 JUMP JUMPDEST SWAP1 POP SWAP2 SWAP1 POP JUMP JUMPDEST PUSH1 0x60 PUSH1 0x0 PUSH1 0x2 DUP4 PUSH1 0x2 PUSH2 0x2C3A SWAP2 SWAP1 PUSH2 0x3ECB JUMP JUMPDEST PUSH2 0x2C44 SWAP2 SWAP1 PUSH2 0x3E6E JUMP JUMPDEST PUSH8 0xFFFFFFFFFFFFFFFF DUP2 GT ISZERO PUSH2 0x2C5D JUMPI PUSH2 0x2C5C PUSH2 0x39AC JUMP JUMPDEST JUMPDEST PUSH1 0x40 MLOAD SWAP1 DUP1 DUP3 MSTORE DUP1 PUSH1 0x1F ADD PUSH1 0x1F NOT AND PUSH1 0x20 ADD DUP3 ADD PUSH1 0x40 MSTORE DUP1 ISZERO PUSH2 0x2C8F JUMPI DUP2 PUSH1 0x20 ADD PUSH1 0x1 DUP3 MUL DUP1 CALLDATASIZE DUP4 CALLDATACOPY DUP1 DUP3 ADD SWAP2 POP POP SWAP1 POP JUMPDEST POP SWAP1 POP PUSH32 0x3000000000000000000000000000000000000000000000000000000000000000 DUP2 PUSH1 0x0 DUP2 MLOAD DUP2 LT PUSH2 0x2CC7 JUMPI PUSH2 0x2CC6 PUSH2 0x39DB JUMP JUMPDEST JUMPDEST PUSH1 0x20 ADD ADD SWAP1 PUSH31 0xFFFFFFFFFFFFFFFFFFFFFFFFFFFFFFFFFFFFFFFFFFFFFFFFFFFFFFFFFFFFFF NOT AND SWAP1 DUP2 PUSH1 0x0 BYTE SWAP1 MSTORE8 POP PUSH32 0x7800000000000000000000000000000000000000000000000000000000000000 DUP2 PUSH1 0x1 DUP2 MLOAD DUP2 LT PUSH2 0x2D2B JUMPI PUSH2 0x2D2A PUSH2 0x39DB JUMP JUMPDEST JUMPDEST PUSH1 0x20 ADD ADD SWAP1 PUSH31 0xFFFFFFFFFFFFFFFFFFFFFFFFFFFFFFFFFFFFFFFFFFFFFFFFFFFFFFFFFFFFFF NOT AND SWAP1 DUP2 PUSH1 0x0 BYTE SWAP1 MSTORE8 POP PUSH1 0x0 PUSH1 0x1 DUP5 PUSH1 0x2 PUSH2 0x2D6B SWAP2 SWAP1 PUSH2 0x3ECB JUMP JUMPDEST PUSH2 0x2D75 SWAP2 SWAP1 PUSH2 0x3E6E JUMP JUMPDEST SWAP1 POP JUMPDEST PUSH1 0x1 DUP2 GT ISZERO PUSH2 0x2E15 JUMPI PUSH32 0x3031323334353637383961626364656600000000000000000000000000000000 PUSH1 0xF DUP7 AND PUSH1 0x10 DUP2 LT PUSH2 0x2DB7 JUMPI PUSH2 0x2DB6 PUSH2 0x39DB JUMP JUMPDEST JUMPDEST BYTE PUSH1 0xF8 SHL DUP3 DUP3 DUP2 MLOAD DUP2 LT PUSH2 0x2DCE JUMPI PUSH2 0x2DCD PUSH2 0x39DB JUMP JUMPDEST JUMPDEST PUSH1 0x20 ADD ADD SWAP1 PUSH31 0xFFFFFFFFFFFFFFFFFFFFFFFFFFFFFFFFFFFFFFFFFFFFFFFFFFFFFFFFFFFFFF NOT AND SWAP1 DUP2 PUSH1 0x0 BYTE SWAP1 MSTORE8 POP PUSH1 0x4 DUP6 SWAP1 SHR SWAP5 POP DUP1 PUSH2 0x2E0E SWAP1 PUSH2 0x42CB JUMP JUMPDEST SWAP1 POP PUSH2 0x2D78 JUMP JUMPDEST POP PUSH1 0x0 DUP5 EQ PUSH2 0x2E59 JUMPI PUSH1 0x40 MLOAD PUSH32 0x8C379A000000000000000000000000000000000000000000000000000000000 DUP2 MSTORE PUSH1 0x4 ADD PUSH2 0x2E50 SWAP1 PUSH2 0x4340 JUMP JUMPDEST PUSH1 0x40 MLOAD DUP1 SWAP2 SUB SWAP1 REVERT JUMPDEST DUP1 SWAP2 POP POP SWAP3 SWAP2 POP POP JUMP JUMPDEST PUSH1 0x0 PUSH1 0x15 SWAP1 SLOAD SWAP1 PUSH2 0x100 EXP SWAP1 DIV PUSH1 0xFF AND PUSH2 0x2EB2 JUMPI PUSH1 0x40 MLOAD PUSH32 0x8C379A000000000000000000000000000000000000000000000000000000000 DUP2 MSTORE PUSH1 0x4 ADD PUSH2 0x2EA9 SWAP1 PUSH2 0x407F JUMP JUMPDEST PUSH1 0x40 MLOAD DUP1 SWAP2 SUB SWAP1 REVERT JUMPDEST JUMP JUMPDEST PUSH1 0x0 PUSH2 0x2EBF DUP4 PUSH2 0xD6D JUMP JUMPDEST SWAP1 POP DUP2 PUSH1 0x65 PUSH1 0x0 DUP6 DUP2 MSTORE PUSH1 0x20 ADD SWAP1 DUP2 MSTORE PUSH1 0x20 ADD PUSH1 0x0 KECCAK256 PUSH1 0x1 ADD DUP2 SWAP1 SSTORE POP DUP2 DUP2 DUP5 PUSH32 0xBD79B86FFE0AB8E8776151514217CD7CACD52C909F66475C3AF44E129F0B00FF PUSH1 0x40 MLOAD PUSH1 0x40 MLOAD DUP1 SWAP2 SUB SWAP1 LOG4 POP POP POP JUMP JUMPDEST PUSH1 0x0 PUSH1 0x15 SWAP1 SLOAD SWAP1 PUSH2 0x100 EXP SWAP1 DIV PUSH1 0xFF AND PUSH2 0x2F5F JUMPI PUSH1 0x40 MLOAD PUSH32 0x8C379A000000000000000000000000000000000000000000000000000000000 DUP2 MSTORE PUSH1 0x4 ADD PUSH2 0x2F56 SWAP1 PUSH2 0x407F JUMP JUMPDEST PUSH1 0x40 MLOAD DUP1 SWAP2 SUB SWAP1 REVERT JUMPDEST PUSH1 0x1 PUSH1 0x97 DUP2 SWAP1 SSTORE POP JUMP JUMPDEST PUSH1 0x0 PUSH2 0x2FCB DUP3 PUSH1 0x40 MLOAD DUP1 PUSH1 0x40 ADD PUSH1 0x40 MSTORE DUP1 PUSH1 0x20 DUP2 MSTORE PUSH1 0x20 ADD PUSH32 0x5361666545524332303A206C6F772D6C6576656C2063616C6C206661696C6564 DUP2 MSTORE POP DUP6 PUSH20 0xFFFFFFFFFFFFFFFFFFFFFFFFFFFFFFFFFFFFFFFF AND PUSH2 0x3030 SWAP1 SWAP3 SWAP2 SWAP1 PUSH4 0xFFFFFFFF AND JUMP JUMPDEST SWAP1 POP PUSH1 0x0 DUP2 MLOAD GT ISZERO PUSH2 0x302B JUMPI DUP1 DUP1 PUSH1 0x20 ADD SWAP1 MLOAD DUP2 ADD SWAP1 PUSH2 0x2FEB SWAP2 SWAP1 PUSH2 0x4375 JUMP JUMPDEST PUSH2 0x302A JUMPI PUSH1 0x40 MLOAD PUSH32 0x8C379A000000000000000000000000000000000000000000000000000000000 DUP2 MSTORE PUSH1 0x4 ADD PUSH2 0x3021 SWAP1 PUSH2 0x4414 JUMP JUMPDEST PUSH1 0x40 MLOAD DUP1 SWAP2 SUB SWAP1 REVERT JUMPDEST JUMPDEST POP POP POP JUMP JUMPDEST PUSH1 0x60 PUSH2 0x303F DUP5 DUP5 PUSH1 0x0 DUP6 PUSH2 0x3048 JUMP JUMPDEST SWAP1 POP SWAP4 SWAP3 POP POP POP JUMP JUMPDEST PUSH1 0x60 DUP3 SELFBALANCE LT ISZERO PUSH2 0x308D JUMPI PUSH1 0x40 MLOAD PUSH32 0x8C379A000000000000000000000000000000000000000000000000000000000 DUP2 MSTORE PUSH1 0x4 ADD PUSH2 0x3084 SWAP1 PUSH2 0x44A6 JUMP JUMPDEST PUSH1 0x40 MLOAD DUP1 SWAP2 SUB SWAP1 REVERT JUMPDEST PUSH1 0x0 DUP1 DUP7 PUSH20 0xFFFFFFFFFFFFFFFFFFFFFFFFFFFFFFFFFFFFFFFF AND DUP6 DUP8 PUSH1 0x40 MLOAD PUSH2 0x30B6 SWAP2 SWAP1 PUSH2 0x4502 JUMP JUMPDEST PUSH1 0x0 PUSH1 0x40 MLOAD DUP1 DUP4 SUB DUP2 DUP6 DUP8 GAS CALL SWAP3 POP POP POP RETURNDATASIZE DUP1 PUSH1 0x0 DUP2 EQ PUSH2 0x30F3 JUMPI PUSH1 0x40 MLOAD SWAP2 POP PUSH1 0x1F NOT PUSH1 0x3F RETURNDATASIZE ADD AND DUP3 ADD PUSH1 0x40 MSTORE RETURNDATASIZE DUP3 MSTORE RETURNDATASIZE PUSH1 0x0 PUSH1 0x20 DUP5 ADD RETURNDATACOPY PUSH2 0x30F8 JUMP JUMPDEST PUSH1 0x60 SWAP2 POP JUMPDEST POP SWAP2 POP SWAP2 POP PUSH2 0x3109 DUP8 DUP4 DUP4 DUP8 PUSH2 0x3115 JUMP JUMPDEST SWAP3 POP POP POP SWAP5 SWAP4 POP POP POP POP JUMP JUMPDEST PUSH1 0x60 DUP4 ISZERO PUSH2 0x3177 JUMPI PUSH1 0x0 DUP4 MLOAD SUB PUSH2 0x316F JUMPI PUSH2 0x312F DUP6 PUSH2 0x20DE JUMP JUMPDEST PUSH2 0x316E JUMPI PUSH1 0x40 MLOAD PUSH32 0x8C379A000000000000000000000000000000000000000000000000000000000 DUP2 MSTORE PUSH1 0x4 ADD PUSH2 0x3165 SWAP1 PUSH2 0x4565 JUMP JUMPDEST PUSH1 0x40 MLOAD DUP1 SWAP2 SUB SWAP1 REVERT JUMPDEST JUMPDEST DUP3 SWAP1 POP PUSH2 0x3182 JUMP JUMPDEST PUSH2 0x3181 DUP4 DUP4 PUSH2 0x318A JUMP JUMPDEST JUMPDEST SWAP5 SWAP4 POP POP POP POP JUMP JUMPDEST PUSH1 0x0 DUP3 MLOAD GT ISZERO PUSH2 0x319D JUMPI DUP2 MLOAD DUP1 DUP4 PUSH1 0x20 ADD REVERT JUMPDEST DUP1 PUSH1 0x40 MLOAD PUSH32 0x8C379A000000000000000000000000000000000000000000000000000000000 DUP2 MSTORE PUSH1 0x4 ADD PUSH2 0x31D1 SWAP2 SWAP1 PUSH2 0x4272 JUMP JUMPDEST PUSH1 0x40 MLOAD DUP1 SWAP2 SUB SWAP1 REVERT JUMPDEST PUSH1 0x0 DUP1 REVERT JUMPDEST PUSH1 0x0 DUP1 REVERT JUMPDEST PUSH1 0x0 PUSH32 0xFFFFFFFF00000000000000000000000000000000000000000000000000000000 DUP3 AND SWAP1 POP SWAP2 SWAP1 POP JUMP JUMPDEST PUSH2 0x3219 DUP2 PUSH2 0x31E4 JUMP JUMPDEST DUP2 EQ PUSH2 0x3224 JUMPI PUSH1 0x0 DUP1 REVERT JUMPDEST POP JUMP JUMPDEST PUSH1 0x0 DUP2 CALLDATALOAD SWAP1 POP PUSH2 0x3236 DUP2 PUSH2 0x3210 JUMP JUMPDEST SWAP3 SWAP2 POP POP JUMP JUMPDEST PUSH1 0x0 PUSH1 0x20 DUP3 DUP5 SUB SLT ISZERO PUSH2 0x3252 JUMPI PUSH2 0x3251 PUSH2 0x31DA JUMP JUMPDEST JUMPDEST PUSH1 0x0 PUSH2 0x3260 DUP5 DUP3 DUP6 ADD PUSH2 0x3227 JUMP JUMPDEST SWAP2 POP POP SWAP3 SWAP2 POP POP JUMP JUMPDEST PUSH1 0x0 DUP2 ISZERO ISZERO SWAP1 POP SWAP2 SWAP1 POP JUMP JUMPDEST PUSH2 0x327E DUP2 PUSH2 0x3269 JUMP JUMPDEST DUP3 MSTORE POP POP JUMP JUMPDEST PUSH1 0x0 PUSH1 0x20 DUP3 ADD SWAP1 POP PUSH2 0x3299 PUSH1 0x0 DUP4 ADD DUP5 PUSH2 0x3275 JUMP JUMPDEST SWAP3 SWAP2 POP POP JUMP JUMPDEST PUSH1 0x0 DUP1 REVERT JUMPDEST PUSH1 0x0 DUP1 REVERT JUMPDEST PUSH1 0x0 DUP1 REVERT JUMPDEST PUSH1 0x0 DUP1 DUP4 PUSH1 0x1F DUP5 ADD SLT PUSH2 0x32C4 JUMPI PUSH2 0x32C3 PUSH2 0x329F JUMP JUMPDEST JUMPDEST DUP3 CALLDATALOAD SWAP1 POP PUSH8 0xFFFFFFFFFFFFFFFF DUP2 GT ISZERO PUSH2 0x32E1 JUMPI PUSH2 0x32E0 PUSH2 0x32A4 JUMP JUMPDEST JUMPDEST PUSH1 0x20 DUP4 ADD SWAP2 POP DUP4 PUSH1 0x20 DUP3 MUL DUP4 ADD GT ISZERO PUSH2 0x32FD JUMPI PUSH2 0x32FC PUSH2 0x32A9 JUMP JUMPDEST JUMPDEST SWAP3 POP SWAP3 SWAP1 POP JUMP JUMPDEST PUSH1 0x0 DUP1 PUSH1 0x20 DUP4 DUP6 SUB SLT ISZERO PUSH2 0x331B JUMPI PUSH2 0x331A PUSH2 0x31DA JUMP JUMPDEST JUMPDEST PUSH1 0x0 DUP4 ADD CALLDATALOAD PUSH8 0xFFFFFFFFFFFFFFFF DUP2 GT ISZERO PUSH2 0x3339 JUMPI PUSH2 0x3338 PUSH2 0x31DF JUMP JUMPDEST JUMPDEST PUSH2 0x3345 DUP6 DUP3 DUP7 ADD PUSH2 0x32AE JUMP JUMPDEST SWAP3 POP SWAP3 POP POP SWAP3 POP SWAP3 SWAP1 POP JUMP JUMPDEST PUSH1 0x0 PUSH20 0xFFFFFFFFFFFFFFFFFFFFFFFFFFFFFFFFFFFFFFFF DUP3 AND SWAP1 POP SWAP2 SWAP1 POP JUMP JUMPDEST PUSH1 0x0 PUSH2 0x337C DUP3 PUSH2 0x3351 JUMP JUMPDEST SWAP1 POP SWAP2 SWAP1 POP JUMP JUMPDEST PUSH2 0x338C DUP2 PUSH2 0x3371 JUMP JUMPDEST DUP2 EQ PUSH2 0x3397 JUMPI PUSH1 0x0 DUP1 REVERT JUMPDEST POP JUMP JUMPDEST PUSH1 0x0 DUP2 CALLDATALOAD SWAP1 POP PUSH2 0x33A9 DUP2 PUSH2 0x3383 JUMP JUMPDEST SWAP3 SWAP2 POP POP JUMP JUMPDEST PUSH1 0x0 PUSH1 0x20 DUP3 DUP5 SUB SLT ISZERO PUSH2 0x33C5 JUMPI PUSH2 0x33C4 PUSH2 0x31DA JUMP JUMPDEST JUMPDEST PUSH1 0x0 PUSH2 0x33D3 DUP5 DUP3 DUP6 ADD PUSH2 0x339A JUMP JUMPDEST SWAP2 POP POP SWAP3 SWAP2 POP POP JUMP JUMPDEST PUSH2 0x33E5 DUP2 PUSH2 0x3371 JUMP JUMPDEST DUP3 MSTORE POP POP JUMP JUMPDEST PUSH1 0x0 PUSH1 0x20 DUP3 ADD SWAP1 POP PUSH2 0x3400 PUSH1 0x0 DUP4 ADD DUP5 PUSH2 0x33DC JUMP JUMPDEST SWAP3 SWAP2 POP POP JUMP JUMPDEST PUSH2 0x340F DUP2 PUSH2 0x3269 JUMP JUMPDEST DUP2 EQ PUSH2 0x341A JUMPI PUSH1 0x0 DUP1 REVERT JUMPDEST POP JUMP JUMPDEST PUSH1 0x0 DUP2 CALLDATALOAD SWAP1 POP PUSH2 0x342C DUP2 PUSH2 0x3406 JUMP JUMPDEST SWAP3 SWAP2 POP POP JUMP JUMPDEST PUSH1 0x0 PUSH1 0x20 DUP3 DUP5 SUB SLT ISZERO PUSH2 0x3448 JUMPI PUSH2 0x3447 PUSH2 0x31DA JUMP JUMPDEST JUMPDEST PUSH1 0x0 PUSH2 0x3456 DUP5 DUP3 DUP6 ADD PUSH2 0x341D JUMP JUMPDEST SWAP2 POP POP SWAP3 SWAP2 POP POP JUMP JUMPDEST PUSH1 0x0 DUP2 SWAP1 POP SWAP2 SWAP1 POP JUMP JUMPDEST PUSH2 0x3472 DUP2 PUSH2 0x345F JUMP JUMPDEST DUP2 EQ PUSH2 0x347D JUMPI PUSH1 0x0 DUP1 REVERT JUMPDEST POP JUMP JUMPDEST PUSH1 0x0 DUP2 CALLDATALOAD SWAP1 POP PUSH2 0x348F DUP2 PUSH2 0x3469 JUMP JUMPDEST SWAP3 SWAP2 POP POP JUMP JUMPDEST PUSH1 0x0 PUSH1 0x20 DUP3 DUP5 SUB SLT ISZERO PUSH2 0x34AB JUMPI PUSH2 0x34AA PUSH2 0x31DA JUMP JUMPDEST JUMPDEST PUSH1 0x0 PUSH2 0x34B9 DUP5 DUP3 DUP6 ADD PUSH2 0x3480 JUMP JUMPDEST SWAP2 POP POP SWAP3 SWAP2 POP POP JUMP JUMPDEST PUSH2 0x34CB DUP2 PUSH2 0x345F JUMP JUMPDEST DUP3 MSTORE POP POP JUMP JUMPDEST PUSH1 0x0 PUSH1 0x20 DUP3 ADD SWAP1 POP PUSH2 0x34E6 PUSH1 0x0 DUP4 ADD DUP5 PUSH2 0x34C2 JUMP JUMPDEST SWAP3 SWAP2 POP POP JUMP JUMPDEST PUSH1 0x0 DUP2 SWAP1 POP SWAP2 SWAP1 POP JUMP JUMPDEST PUSH2 0x34FF DUP2 PUSH2 0x34EC JUMP JUMPDEST DUP3 MSTORE POP POP JUMP JUMPDEST PUSH1 0x0 PUSH1 0x20 DUP3 ADD SWAP1 POP PUSH2 0x351A PUSH1 0x0 DUP4 ADD DUP5 PUSH2 0x34F6 JUMP JUMPDEST SWAP3 SWAP2 POP POP JUMP JUMPDEST PUSH1 0x0 DUP1 PUSH1 0x40 DUP4 DUP6 SUB SLT ISZERO PUSH2 0x3537 JUMPI PUSH2 0x3536 PUSH2 0x31DA JUMP JUMPDEST JUMPDEST PUSH1 0x0 PUSH2 0x3545 DUP6 DUP3 DUP7 ADD PUSH2 0x3480 JUMP JUMPDEST SWAP3 POP POP PUSH1 0x20 PUSH2 0x3556 DUP6 DUP3 DUP7 ADD PUSH2 0x339A JUMP JUMPDEST SWAP2 POP POP SWAP3 POP SWAP3 SWAP1 POP JUMP JUMPDEST PUSH2 0x3569 DUP2 PUSH2 0x34EC JUMP JUMPDEST DUP2 EQ PUSH2 0x3574 JUMPI PUSH1 0x0 DUP1 REVERT JUMPDEST POP JUMP JUMPDEST PUSH1 0x0 DUP2 CALLDATALOAD SWAP1 POP PUSH2 0x3586 DUP2 PUSH2 0x3560 JUMP JUMPDEST SWAP3 SWAP2 POP POP JUMP JUMPDEST PUSH1 0x0 PUSH1 0x20 DUP3 DUP5 SUB SLT ISZERO PUSH2 0x35A2 JUMPI PUSH2 0x35A1 PUSH2 0x31DA JUMP JUMPDEST JUMPDEST PUSH1 0x0 PUSH2 0x35B0 DUP5 DUP3 DUP6 ADD PUSH2 0x3577 JUMP JUMPDEST SWAP2 POP POP SWAP3 SWAP2 POP POP JUMP JUMPDEST PUSH1 0x0 DUP1 PUSH1 0x0 DUP1 PUSH1 0x40 DUP6 DUP8 SUB SLT ISZERO PUSH2 0x35D3 JUMPI PUSH2 0x35D2 PUSH2 0x31DA JUMP JUMPDEST JUMPDEST PUSH1 0x0 DUP6 ADD CALLDATALOAD PUSH8 0xFFFFFFFFFFFFFFFF DUP2 GT ISZERO PUSH2 0x35F1 JUMPI PUSH2 0x35F0 PUSH2 0x31DF JUMP JUMPDEST JUMPDEST PUSH2 0x35FD DUP8 DUP3 DUP9 ADD PUSH2 0x32AE JUMP JUMPDEST SWAP5 POP SWAP5 POP POP PUSH1 0x20 DUP6 ADD CALLDATALOAD PUSH8 0xFFFFFFFFFFFFFFFF DUP2 GT ISZERO PUSH2 0x3620 JUMPI PUSH2 0x361F PUSH2 0x31DF JUMP JUMPDEST JUMPDEST PUSH2 0x362C DUP8 DUP3 DUP9 ADD PUSH2 0x32AE JUMP JUMPDEST SWAP3 POP SWAP3 POP POP SWAP3 SWAP6 SWAP2 SWAP5 POP SWAP3 POP JUMP JUMPDEST PUSH1 0x0 DUP1 PUSH1 0x0 PUSH1 0x40 DUP5 DUP7 SUB SLT ISZERO PUSH2 0x3653 JUMPI PUSH2 0x3652 PUSH2 0x31DA JUMP JUMPDEST JUMPDEST PUSH1 0x0 DUP5 ADD CALLDATALOAD PUSH8 0xFFFFFFFFFFFFFFFF DUP2 GT ISZERO PUSH2 0x3671 JUMPI PUSH2 0x3670 PUSH2 0x31DF JUMP JUMPDEST JUMPDEST PUSH2 0x367D DUP7 DUP3 DUP8 ADD PUSH2 0x32AE JUMP JUMPDEST SWAP4 POP SWAP4 POP POP PUSH1 0x20 PUSH2 0x3690 DUP7 DUP3 DUP8 ADD PUSH2 0x339A JUMP JUMPDEST SWAP2 POP POP SWAP3 POP SWAP3 POP SWAP3 JUMP JUMPDEST PUSH1 0x0 DUP1 PUSH1 0x40 DUP4 DUP6 SUB SLT ISZERO PUSH2 0x36B1 JUMPI PUSH2 0x36B0 PUSH2 0x31DA JUMP JUMPDEST JUMPDEST PUSH1 0x0 PUSH2 0x36BF DUP6 DUP3 DUP7 ADD PUSH2 0x339A JUMP JUMPDEST SWAP3 POP POP PUSH1 0x20 PUSH2 0x36D0 DUP6 DUP3 DUP7 ADD PUSH2 0x339A JUMP JUMPDEST SWAP2 POP POP SWAP3 POP SWAP3 SWAP1 POP JUMP JUMPDEST PUSH1 0x0 DUP1 PUSH1 0x0 DUP1 PUSH1 0x0 DUP1 PUSH1 0x0 DUP1 PUSH1 0x0 PUSH1 0xA0 DUP11 DUP13 SUB SLT ISZERO PUSH2 0x36FC JUMPI PUSH2 0x36FB PUSH2 0x31DA JUMP JUMPDEST JUMPDEST PUSH1 0x0 DUP11 ADD CALLDATALOAD PUSH8 0xFFFFFFFFFFFFFFFF DUP2 GT ISZERO PUSH2 0x371A JUMPI PUSH2 0x3719 PUSH2 0x31DF JUMP JUMPDEST JUMPDEST PUSH2 0x3726 DUP13 DUP3 DUP14 ADD PUSH2 0x32AE JUMP JUMPDEST SWAP10 POP SWAP10 POP POP PUSH1 0x20 DUP11 ADD CALLDATALOAD PUSH8 0xFFFFFFFFFFFFFFFF DUP2 GT ISZERO PUSH2 0x3749 JUMPI PUSH2 0x3748 PUSH2 0x31DF JUMP JUMPDEST JUMPDEST PUSH2 0x3755 DUP13 DUP3 DUP14 ADD PUSH2 0x32AE JUMP JUMPDEST SWAP8 POP SWAP8 POP POP PUSH1 0x40 DUP11 ADD CALLDATALOAD PUSH8 0xFFFFFFFFFFFFFFFF DUP2 GT ISZERO PUSH2 0x3778 JUMPI PUSH2 0x3777 PUSH2 0x31DF JUMP JUMPDEST JUMPDEST PUSH2 0x3784 DUP13 DUP3 DUP14 ADD PUSH2 0x32AE JUMP JUMPDEST SWAP6 POP SWAP6 POP POP PUSH1 0x60 DUP11 ADD CALLDATALOAD PUSH8 0xFFFFFFFFFFFFFFFF DUP2 GT ISZERO PUSH2 0x37A7 JUMPI PUSH2 0x37A6 PUSH2 0x31DF JUMP JUMPDEST JUMPDEST PUSH2 0x37B3 DUP13 DUP3 DUP14 ADD PUSH2 0x32AE JUMP JUMPDEST SWAP4 POP SWAP4 POP POP PUSH1 0x80 PUSH2 0x37C6 DUP13 DUP3 DUP14 ADD PUSH2 0x3577 JUMP JUMPDEST SWAP2 POP POP SWAP3 SWAP6 SWAP9 POP SWAP3 SWAP6 SWAP9 POP SWAP3 SWAP6 SWAP9 JUMP JUMPDEST PUSH1 0x0 DUP1 PUSH1 0x40 DUP4 DUP6 SUB SLT ISZERO PUSH2 0x37ED JUMPI PUSH2 0x37EC PUSH2 0x31DA JUMP JUMPDEST JUMPDEST PUSH1 0x0 PUSH2 0x37FB DUP6 DUP3 DUP7 ADD PUSH2 0x339A JUMP JUMPDEST SWAP3 POP POP PUSH1 0x20 PUSH2 0x380C DUP6 DUP3 DUP7 ADD PUSH2 0x3577 JUMP JUMPDEST SWAP2 POP POP SWAP3 POP SWAP3 SWAP1 POP JUMP JUMPDEST PUSH1 0x0 DUP2 MLOAD SWAP1 POP SWAP2 SWAP1 POP JUMP JUMPDEST PUSH1 0x0 DUP3 DUP3 MSTORE PUSH1 0x20 DUP3 ADD SWAP1 POP SWAP3 SWAP2 POP POP JUMP JUMPDEST PUSH1 0x0 DUP2 SWAP1 POP PUSH1 0x20 DUP3 ADD SWAP1 POP SWAP2 SWAP1 POP JUMP JUMPDEST PUSH2 0x384B DUP2 PUSH2 0x34EC JUMP JUMPDEST DUP3 MSTORE POP POP JUMP JUMPDEST PUSH1 0x0 PUSH2 0x385D DUP4 DUP4 PUSH2 0x3842 JUMP JUMPDEST PUSH1 0x20 DUP4 ADD SWAP1 POP SWAP3 SWAP2 POP POP JUMP JUMPDEST PUSH1 0x0 PUSH1 0x20 DUP3 ADD SWAP1 POP SWAP2 SWAP1 POP JUMP JUMPDEST PUSH1 0x0 PUSH2 0x3881 DUP3 PUSH2 0x3816 JUMP JUMPDEST PUSH2 0x388B DUP2 DUP6 PUSH2 0x3821 JUMP JUMPDEST SWAP4 POP PUSH2 0x3896 DUP4 PUSH2 0x3832 JUMP JUMPDEST DUP1 PUSH1 0x0 JUMPDEST DUP4 DUP2 LT ISZERO PUSH2 0x38C7 JUMPI DUP2 MLOAD PUSH2 0x38AE DUP9 DUP3 PUSH2 0x3851 JUMP JUMPDEST SWAP8 POP PUSH2 0x38B9 DUP4 PUSH2 0x3869 JUMP JUMPDEST SWAP3 POP POP PUSH1 0x1 DUP2 ADD SWAP1 POP PUSH2 0x389A JUMP JUMPDEST POP DUP6 SWAP4 POP POP POP POP SWAP3 SWAP2 POP POP JUMP JUMPDEST PUSH1 0x0 PUSH1 0x20 DUP3 ADD SWAP1 POP DUP2 DUP2 SUB PUSH1 0x0 DUP4 ADD MSTORE PUSH2 0x38EE DUP2 DUP5 PUSH2 0x3876 JUMP JUMPDEST SWAP1 POP SWAP3 SWAP2 POP POP JUMP JUMPDEST PUSH1 0x0 DUP1 DUP4 PUSH1 0x1F DUP5 ADD SLT PUSH2 0x390C JUMPI PUSH2 0x390B PUSH2 0x329F JUMP JUMPDEST JUMPDEST DUP3 CALLDATALOAD SWAP1 POP PUSH8 0xFFFFFFFFFFFFFFFF DUP2 GT ISZERO PUSH2 0x3929 JUMPI PUSH2 0x3928 PUSH2 0x32A4 JUMP JUMPDEST JUMPDEST PUSH1 0x20 DUP4 ADD SWAP2 POP DUP4 PUSH1 0x20 DUP3 MUL DUP4 ADD GT ISZERO PUSH2 0x3945 JUMPI PUSH2 0x3944 PUSH2 0x32A9 JUMP JUMPDEST JUMPDEST SWAP3 POP SWAP3 SWAP1 POP JUMP JUMPDEST PUSH1 0x0 DUP1 PUSH1 0x0 PUSH1 0x40 DUP5 DUP7 SUB SLT ISZERO PUSH2 0x3965 JUMPI PUSH2 0x3964 PUSH2 0x31DA JUMP JUMPDEST JUMPDEST PUSH1 0x0 DUP5 ADD CALLDATALOAD PUSH8 0xFFFFFFFFFFFFFFFF DUP2 GT ISZERO PUSH2 0x3983 JUMPI PUSH2 0x3982 PUSH2 0x31DF JUMP JUMPDEST JUMPDEST PUSH2 0x398F DUP7 DUP3 DUP8 ADD PUSH2 0x38F6 JUMP JUMPDEST SWAP4 POP SWAP4 POP POP PUSH1 0x20 PUSH2 0x39A2 DUP7 DUP3 DUP8 ADD PUSH2 0x339A JUMP JUMPDEST SWAP2 POP POP SWAP3 POP SWAP3 POP SWAP3 JUMP JUMPDEST PUSH32 0x4E487B7100000000000000000000000000000000000000000000000000000000 PUSH1 0x0 MSTORE PUSH1 0x41 PUSH1 0x4 MSTORE PUSH1 0x24 PUSH1 0x0 REVERT JUMPDEST PUSH32 0x4E487B7100000000000000000000000000000000000000000000000000000000 PUSH1 0x0 MSTORE PUSH1 0x32 PUSH1 0x4 MSTORE PUSH1 0x24 PUSH1 0x0 REVERT JUMPDEST PUSH1 0x0 DUP3 DUP3 MSTORE PUSH1 0x20 DUP3 ADD SWAP1 POP SWAP3 SWAP2 POP POP JUMP JUMPDEST PUSH32 0x416363657373436F6E74726F6C3A2063616E206F6E6C792072656E6F756E6365 PUSH1 0x0 DUP3 ADD MSTORE PUSH32 0x20726F6C657320666F722073656C660000000000000000000000000000000000 PUSH1 0x20 DUP3 ADD MSTORE POP JUMP JUMPDEST PUSH1 0x0 PUSH2 0x3A77 PUSH1 0x2F DUP4 PUSH2 0x3A0A JUMP JUMPDEST SWAP2 POP PUSH2 0x3A82 DUP3 PUSH2 0x3A1B JUMP JUMPDEST PUSH1 0x40 DUP3 ADD SWAP1 POP SWAP2 SWAP1 POP JUMP JUMPDEST PUSH1 0x0 PUSH1 0x20 DUP3 ADD SWAP1 POP DUP2 DUP2 SUB PUSH1 0x0 DUP4 ADD MSTORE PUSH2 0x3AA6 DUP2 PUSH2 0x3A6A JUMP JUMPDEST SWAP1 POP SWAP2 SWAP1 POP JUMP JUMPDEST PUSH32 0x696E69743A20726F756E644164647265737320616C7265616479207365740000 PUSH1 0x0 DUP3 ADD MSTORE POP JUMP JUMPDEST PUSH1 0x0 PUSH2 0x3AE3 PUSH1 0x1E DUP4 PUSH2 0x3A0A JUMP JUMPDEST SWAP2 POP PUSH2 0x3AEE DUP3 PUSH2 0x3AAD JUMP JUMPDEST PUSH1 0x20 DUP3 ADD SWAP1 POP SWAP2 SWAP1 POP JUMP JUMPDEST PUSH1 0x0 PUSH1 0x20 DUP3 ADD SWAP1 POP DUP2 DUP2 SUB PUSH1 0x0 DUP4 ADD MSTORE PUSH2 0x3B12 DUP2 PUSH2 0x3AD6 JUMP JUMPDEST SWAP1 POP SWAP2 SWAP1 POP JUMP JUMPDEST PUSH32 0x496E697469616C697A61626C653A20636F6E747261637420697320616C726561 PUSH1 0x0 DUP3 ADD MSTORE PUSH32 0x647920696E697469616C697A6564000000000000000000000000000000000000 PUSH1 0x20 DUP3 ADD MSTORE POP JUMP JUMPDEST PUSH1 0x0 PUSH2 0x3B75 PUSH1 0x2E DUP4 PUSH2 0x3A0A JUMP JUMPDEST SWAP2 POP PUSH2 0x3B80 DUP3 PUSH2 0x3B19 JUMP JUMPDEST PUSH1 0x40 DUP3 ADD SWAP1 POP SWAP2 SWAP1 POP JUMP JUMPDEST PUSH1 0x0 PUSH1 0x20 DUP3 ADD SWAP1 POP DUP2 DUP2 SUB PUSH1 0x0 DUP4 ADD MSTORE PUSH2 0x3BA4 DUP2 PUSH2 0x3B68 JUMP JUMPDEST SWAP1 POP SWAP2 SWAP1 POP JUMP JUMPDEST PUSH1 0x0 DUP2 SWAP1 POP SWAP2 SWAP1 POP JUMP JUMPDEST PUSH1 0x0 PUSH1 0xFF DUP3 AND SWAP1 POP SWAP2 SWAP1 POP JUMP JUMPDEST PUSH1 0x0 DUP2 SWAP1 POP SWAP2 SWAP1 POP JUMP JUMPDEST PUSH1 0x0 PUSH2 0x3BE7 PUSH2 0x3BE2 PUSH2 0x3BDD DUP5 PUSH2 0x3BAB JUMP JUMPDEST PUSH2 0x3BC2 JUMP JUMPDEST PUSH2 0x3BB5 JUMP JUMPDEST SWAP1 POP SWAP2 SWAP1 POP JUMP JUMPDEST PUSH2 0x3BF7 DUP2 PUSH2 0x3BCC JUMP JUMPDEST DUP3 MSTORE POP POP JUMP JUMPDEST PUSH1 0x0 PUSH1 0x20 DUP3 ADD SWAP1 POP PUSH2 0x3C12 PUSH1 0x0 DUP4 ADD DUP5 PUSH2 0x3BEE JUMP JUMPDEST SWAP3 SWAP2 POP POP JUMP JUMPDEST PUSH32 0x6572726F723A20766F74696E6720636F6E7472616374206E6F74206C696E6B65 PUSH1 0x0 DUP3 ADD MSTORE PUSH32 0x6420746F206120726F756E640000000000000000000000000000000000000000 PUSH1 0x20 DUP3 ADD MSTORE POP JUMP JUMPDEST PUSH1 0x0 PUSH2 0x3C74 PUSH1 0x2C DUP4 PUSH2 0x3A0A JUMP JUMPDEST SWAP2 POP PUSH2 0x3C7F DUP3 PUSH2 0x3C18 JUMP JUMPDEST PUSH1 0x40 DUP3 ADD SWAP1 POP SWAP2 SWAP1 POP JUMP JUMPDEST PUSH1 0x0 PUSH1 0x20 DUP3 ADD SWAP1 POP DUP2 DUP2 SUB PUSH1 0x0 DUP4 ADD MSTORE PUSH2 0x3CA3 DUP2 PUSH2 0x3C67 JUMP JUMPDEST SWAP1 POP SWAP2 SWAP1 POP JUMP JUMPDEST PUSH32 0x6572726F723A2063616E20626520696E766F6B6564206F6E6C7920627920726F PUSH1 0x0 DUP3 ADD MSTORE PUSH32 0x756E6420636F6E74726163740000000000000000000000000000000000000000 PUSH1 0x20 DUP3 ADD MSTORE POP JUMP JUMPDEST PUSH1 0x0 PUSH2 0x3D06 PUSH1 0x2C DUP4 PUSH2 0x3A0A JUMP JUMPDEST SWAP2 POP PUSH2 0x3D11 DUP3 PUSH2 0x3CAA JUMP JUMPDEST PUSH1 0x40 DUP3 ADD SWAP1 POP SWAP2 SWAP1 POP JUMP JUMPDEST PUSH1 0x0 PUSH1 0x20 DUP3 ADD SWAP1 POP DUP2 DUP2 SUB PUSH1 0x0 DUP4 ADD MSTORE PUSH2 0x3D35 DUP2 PUSH2 0x3CF9 JUMP JUMPDEST SWAP1 POP SWAP2 SWAP1 POP JUMP JUMPDEST PUSH1 0x0 DUP1 REVERT JUMPDEST PUSH1 0x0 DUP1 REVERT JUMPDEST PUSH1 0x0 DUP1 REVERT JUMPDEST PUSH1 0x0 DUP1 DUP4 CALLDATALOAD PUSH1 0x1 PUSH1 0x20 SUB DUP5 CALLDATASIZE SUB SUB DUP2 SLT PUSH2 0x3D68 JUMPI PUSH2 0x3D67 PUSH2 0x3D3C JUMP JUMPDEST JUMPDEST DUP1 DUP5 ADD SWAP3 POP DUP3 CALLDATALOAD SWAP2 POP PUSH8 0xFFFFFFFFFFFFFFFF DUP3 GT ISZERO PUSH2 0x3D8A JUMPI PUSH2 0x3D89 PUSH2 0x3D41 JUMP JUMPDEST JUMPDEST PUSH1 0x20 DUP4 ADD SWAP3 POP PUSH1 0x1 DUP3 MUL CALLDATASIZE SUB DUP4 SGT ISZERO PUSH2 0x3DA6 JUMPI PUSH2 0x3DA5 PUSH2 0x3D46 JUMP JUMPDEST JUMPDEST POP SWAP3 POP SWAP3 SWAP1 POP JUMP JUMPDEST PUSH1 0x0 PUSH2 0x3DB9 DUP3 PUSH2 0x3351 JUMP JUMPDEST SWAP1 POP SWAP2 SWAP1 POP JUMP JUMPDEST PUSH2 0x3DC9 DUP2 PUSH2 0x3DAE JUMP JUMPDEST DUP2 EQ PUSH2 0x3DD4 JUMPI PUSH1 0x0 DUP1 REVERT JUMPDEST POP JUMP JUMPDEST PUSH1 0x0 DUP2 CALLDATALOAD SWAP1 POP PUSH2 0x3DE6 DUP2 PUSH2 0x3DC0 JUMP JUMPDEST SWAP3 SWAP2 POP POP JUMP JUMPDEST PUSH1 0x0 DUP1 PUSH1 0x0 PUSH1 0x60 DUP5 DUP7 SUB SLT ISZERO PUSH2 0x3E05 JUMPI PUSH2 0x3E04 PUSH2 0x31DA JUMP JUMPDEST JUMPDEST PUSH1 0x0 PUSH2 0x3E13 DUP7 DUP3 DUP8 ADD PUSH2 0x3DD7 JUMP JUMPDEST SWAP4 POP POP PUSH1 0x20 PUSH2 0x3E24 DUP7 DUP3 DUP8 ADD PUSH2 0x3577 JUMP JUMPDEST SWAP3 POP POP PUSH1 0x40 PUSH2 0x3E35 DUP7 DUP3 DUP8 ADD PUSH2 0x3DD7 JUMP JUMPDEST SWAP2 POP POP SWAP3 POP SWAP3 POP SWAP3 JUMP JUMPDEST PUSH32 0x4E487B7100000000000000000000000000000000000000000000000000000000 PUSH1 0x0 MSTORE PUSH1 0x11 PUSH1 0x4 MSTORE PUSH1 0x24 PUSH1 0x0 REVERT JUMPDEST PUSH1 0x0 PUSH2 0x3E79 DUP3 PUSH2 0x34EC JUMP JUMPDEST SWAP2 POP PUSH2 0x3E84 DUP4 PUSH2 0x34EC JUMP JUMPDEST SWAP3 POP DUP3 DUP3 ADD SWAP1 POP DUP1 DUP3 GT ISZERO PUSH2 0x3E9C JUMPI PUSH2 0x3E9B PUSH2 0x3E3F JUMP JUMPDEST JUMPDEST SWAP3 SWAP2 POP POP JUMP JUMPDEST PUSH1 0x0 PUSH1 0x40 DUP3 ADD SWAP1 POP PUSH2 0x3EB7 PUSH1 0x0 DUP4 ADD DUP6 PUSH2 0x33DC JUMP JUMPDEST PUSH2 0x3EC4 PUSH1 0x20 DUP4 ADD DUP5 PUSH2 0x34F6 JUMP JUMPDEST SWAP4 SWAP3 POP POP POP JUMP JUMPDEST PUSH1 0x0 PUSH2 0x3ED6 DUP3 PUSH2 0x34EC JUMP JUMPDEST SWAP2 POP PUSH2 0x3EE1 DUP4 PUSH2 0x34EC JUMP JUMPDEST SWAP3 POP DUP3 DUP3 MUL PUSH2 0x3EEF DUP2 PUSH2 0x34EC JUMP JUMPDEST SWAP2 POP DUP3 DUP3 DIV DUP5 EQ DUP4 ISZERO OR PUSH2 0x3F06 JUMPI PUSH2 0x3F05 PUSH2 0x3E3F JUMP JUMPDEST JUMPDEST POP SWAP3 SWAP2 POP POP JUMP JUMPDEST PUSH32 0x4E487B7100000000000000000000000000000000000000000000000000000000 PUSH1 0x0 MSTORE PUSH1 0x12 PUSH1 0x4 MSTORE PUSH1 0x24 PUSH1 0x0 REVERT JUMPDEST PUSH1 0x0 PUSH2 0x3F47 DUP3 PUSH2 0x34EC JUMP JUMPDEST SWAP2 POP PUSH2 0x3F52 DUP4 PUSH2 0x34EC JUMP JUMPDEST SWAP3 POP DUP3 PUSH2 0x3F62 JUMPI PUSH2 0x3F61 PUSH2 0x3F0D JUMP JUMPDEST JUMPDEST DUP3 DUP3 DIV SWAP1 POP SWAP3 SWAP2 POP POP JUMP JUMPDEST PUSH1 0x0 PUSH2 0x3F78 DUP3 PUSH2 0x34EC JUMP JUMPDEST SWAP2 POP PUSH2 0x3F83 DUP4 PUSH2 0x34EC JUMP JUMPDEST SWAP3 POP DUP3 DUP3 SUB SWAP1 POP DUP2 DUP2 GT ISZERO PUSH2 0x3F9B JUMPI PUSH2 0x3F9A PUSH2 0x3E3F JUMP JUMPDEST JUMPDEST SWAP3 SWAP2 POP POP JUMP JUMPDEST PUSH32 0x5265656E7472616E637947756172643A207265656E7472616E742063616C6C00 PUSH1 0x0 DUP3 ADD MSTORE POP JUMP JUMPDEST PUSH1 0x0 PUSH2 0x3FD7 PUSH1 0x1F DUP4 PUSH2 0x3A0A JUMP JUMPDEST SWAP2 POP PUSH2 0x3FE2 DUP3 PUSH2 0x3FA1 JUMP JUMPDEST PUSH1 0x20 DUP3 ADD SWAP1 POP SWAP2 SWAP1 POP JUMP JUMPDEST PUSH1 0x0 PUSH1 0x20 DUP3 ADD SWAP1 POP DUP2 DUP2 SUB PUSH1 0x0 DUP4 ADD MSTORE PUSH2 0x4006 DUP2 PUSH2 0x3FCA JUMP JUMPDEST SWAP1 POP SWAP2 SWAP1 POP JUMP JUMPDEST PUSH32 0x496E697469616C697A61626C653A20636F6E7472616374206973206E6F742069 PUSH1 0x0 DUP3 ADD MSTORE PUSH32 0x6E697469616C697A696E67000000000000000000000000000000000000000000 PUSH1 0x20 DUP3 ADD MSTORE POP JUMP JUMPDEST PUSH1 0x0 PUSH2 0x4069 PUSH1 0x2B DUP4 PUSH2 0x3A0A JUMP JUMPDEST SWAP2 POP PUSH2 0x4074 DUP3 PUSH2 0x400D JUMP JUMPDEST PUSH1 0x40 DUP3 ADD SWAP1 POP SWAP2 SWAP1 POP JUMP JUMPDEST PUSH1 0x0 PUSH1 0x20 DUP3 ADD SWAP1 POP DUP2 DUP2 SUB PUSH1 0x0 DUP4 ADD MSTORE PUSH2 0x4098 DUP2 PUSH2 0x405C JUMP JUMPDEST SWAP1 POP SWAP2 SWAP1 POP JUMP JUMPDEST PUSH1 0x0 DUP2 SWAP1 POP SWAP3 SWAP2 POP POP JUMP JUMPDEST POP JUMP JUMPDEST PUSH1 0x0 PUSH2 0x40BA PUSH1 0x0 DUP4 PUSH2 0x409F JUMP JUMPDEST SWAP2 POP PUSH2 0x40C5 DUP3 PUSH2 0x40AA JUMP JUMPDEST PUSH1 0x0 DUP3 ADD SWAP1 POP SWAP2 SWAP1 POP JUMP JUMPDEST PUSH1 0x0 PUSH2 0x40DB DUP3 PUSH2 0x40AD JUMP JUMPDEST SWAP2 POP DUP2 SWAP1 POP SWAP2 SWAP1 POP JUMP JUMPDEST PUSH1 0x0 DUP2 SWAP1 POP SWAP3 SWAP2 POP POP JUMP JUMPDEST PUSH32 0x416363657373436F6E74726F6C3A206163636F756E7420000000000000000000 PUSH1 0x0 DUP3 ADD MSTORE POP JUMP JUMPDEST PUSH1 0x0 PUSH2 0x4126 PUSH1 0x17 DUP4 PUSH2 0x40E5 JUMP JUMPDEST SWAP2 POP PUSH2 0x4131 DUP3 PUSH2 0x40F0 JUMP JUMPDEST PUSH1 0x17 DUP3 ADD SWAP1 POP SWAP2 SWAP1 POP JUMP JUMPDEST PUSH1 0x0 DUP2 MLOAD SWAP1 POP SWAP2 SWAP1 POP JUMP JUMPDEST PUSH1 0x0 JUMPDEST DUP4 DUP2 LT ISZERO PUSH2 0x4165 JUMPI DUP1 DUP3 ADD MLOAD DUP2 DUP5 ADD MSTORE PUSH1 0x20 DUP2 ADD SWAP1 POP PUSH2 0x414A JUMP JUMPDEST PUSH1 0x0 DUP5 DUP5 ADD MSTORE POP POP POP POP JUMP JUMPDEST PUSH1 0x0 PUSH2 0x417C DUP3 PUSH2 0x413C JUMP JUMPDEST PUSH2 0x4186 DUP2 DUP6 PUSH2 0x40E5 JUMP JUMPDEST SWAP4 POP PUSH2 0x4196 DUP2 DUP6 PUSH1 0x20 DUP7 ADD PUSH2 0x4147 JUMP JUMPDEST DUP1 DUP5 ADD SWAP2 POP POP SWAP3 SWAP2 POP POP JUMP JUMPDEST PUSH32 0x206973206D697373696E6720726F6C6520000000000000000000000000000000 PUSH1 0x0 DUP3 ADD MSTORE POP JUMP JUMPDEST PUSH1 0x0 PUSH2 0x41D8 PUSH1 0x11 DUP4 PUSH2 0x40E5 JUMP JUMPDEST SWAP2 POP PUSH2 0x41E3 DUP3 PUSH2 0x41A2 JUMP JUMPDEST PUSH1 0x11 DUP3 ADD SWAP1 POP SWAP2 SWAP1 POP JUMP JUMPDEST PUSH1 0x0 PUSH2 0x41F9 DUP3 PUSH2 0x4119 JUMP JUMPDEST SWAP2 POP PUSH2 0x4205 DUP3 DUP6 PUSH2 0x4171 JUMP JUMPDEST SWAP2 POP PUSH2 0x4210 DUP3 PUSH2 0x41CB JUMP JUMPDEST SWAP2 POP PUSH2 0x421C DUP3 DUP5 PUSH2 0x4171 JUMP JUMPDEST SWAP2 POP DUP2 SWAP1 POP SWAP4 SWAP3 POP POP POP JUMP JUMPDEST PUSH1 0x0 PUSH1 0x1F NOT PUSH1 0x1F DUP4 ADD AND SWAP1 POP SWAP2 SWAP1 POP JUMP JUMPDEST PUSH1 0x0 PUSH2 0x4244 DUP3 PUSH2 0x413C JUMP JUMPDEST PUSH2 0x424E DUP2 DUP6 PUSH2 0x3A0A JUMP JUMPDEST SWAP4 POP PUSH2 0x425E DUP2 DUP6 PUSH1 0x20 DUP7 ADD PUSH2 0x4147 JUMP JUMPDEST PUSH2 0x4267 DUP2 PUSH2 0x4228 JUMP JUMPDEST DUP5 ADD SWAP2 POP POP SWAP3 SWAP2 POP POP JUMP JUMPDEST PUSH1 0x0 PUSH1 0x20 DUP3 ADD SWAP1 POP DUP2 DUP2 SUB PUSH1 0x0 DUP4 ADD MSTORE PUSH2 0x428C DUP2 DUP5 PUSH2 0x4239 JUMP JUMPDEST SWAP1 POP SWAP3 SWAP2 POP POP JUMP JUMPDEST PUSH1 0x0 PUSH1 0x60 DUP3 ADD SWAP1 POP PUSH2 0x42A9 PUSH1 0x0 DUP4 ADD DUP7 PUSH2 0x33DC JUMP JUMPDEST PUSH2 0x42B6 PUSH1 0x20 DUP4 ADD DUP6 PUSH2 0x33DC JUMP JUMPDEST PUSH2 0x42C3 PUSH1 0x40 DUP4 ADD DUP5 PUSH2 0x34F6 JUMP JUMPDEST SWAP5 SWAP4 POP POP POP POP JUMP JUMPDEST PUSH1 0x0 PUSH2 0x42D6 DUP3 PUSH2 0x34EC JUMP JUMPDEST SWAP2 POP PUSH1 0x0 DUP3 SUB PUSH2 0x42E9 JUMPI PUSH2 0x42E8 PUSH2 0x3E3F JUMP JUMPDEST JUMPDEST PUSH1 0x1 DUP3 SUB SWAP1 POP SWAP2 SWAP1 POP JUMP JUMPDEST PUSH32 0x537472696E67733A20686578206C656E67746820696E73756666696369656E74 PUSH1 0x0 DUP3 ADD MSTORE POP JUMP JUMPDEST PUSH1 0x0 PUSH2 0x432A PUSH1 0x20 DUP4 PUSH2 0x3A0A JUMP JUMPDEST SWAP2 POP PUSH2 0x4335 DUP3 PUSH2 0x42F4 JUMP JUMPDEST PUSH1 0x20 DUP3 ADD SWAP1 POP SWAP2 SWAP1 POP JUMP JUMPDEST PUSH1 0x0 PUSH1 0x20 DUP3 ADD SWAP1 POP DUP2 DUP2 SUB PUSH1 0x0 DUP4 ADD MSTORE PUSH2 0x4359 DUP2 PUSH2 0x431D JUMP JUMPDEST SWAP1 POP SWAP2 SWAP1 POP JUMP JUMPDEST PUSH1 0x0 DUP2 MLOAD SWAP1 POP PUSH2 0x436F DUP2 PUSH2 0x3406 JUMP JUMPDEST SWAP3 SWAP2 POP POP JUMP JUMPDEST PUSH1 0x0 PUSH1 0x20 DUP3 DUP5 SUB SLT ISZERO PUSH2 0x438B JUMPI PUSH2 0x438A PUSH2 0x31DA JUMP JUMPDEST JUMPDEST PUSH1 0x0 PUSH2 0x4399 DUP5 DUP3 DUP6 ADD PUSH2 0x4360 JUMP JUMPDEST SWAP2 POP POP SWAP3 SWAP2 POP POP JUMP JUMPDEST PUSH32 0x5361666545524332303A204552433230206F7065726174696F6E20646964206E PUSH1 0x0 DUP3 ADD MSTORE PUSH32 0x6F74207375636365656400000000000000000000000000000000000000000000 PUSH1 0x20 DUP3 ADD MSTORE POP JUMP JUMPDEST PUSH1 0x0 PUSH2 0x43FE PUSH1 0x2A DUP4 PUSH2 0x3A0A JUMP JUMPDEST SWAP2 POP PUSH2 0x4409 DUP3 PUSH2 0x43A2 JUMP JUMPDEST PUSH1 0x40 DUP3 ADD SWAP1 POP SWAP2 SWAP1 POP JUMP JUMPDEST PUSH1 0x0 PUSH1 0x20 DUP3 ADD SWAP1 POP DUP2 DUP2 SUB PUSH1 0x0 DUP4 ADD MSTORE PUSH2 0x442D DUP2 PUSH2 0x43F1 JUMP JUMPDEST SWAP1 POP SWAP2 SWAP1 POP JUMP JUMPDEST PUSH32 0x416464726573733A20696E73756666696369656E742062616C616E636520666F PUSH1 0x0 DUP3 ADD MSTORE PUSH32 0x722063616C6C0000000000000000000000000000000000000000000000000000 PUSH1 0x20 DUP3 ADD MSTORE POP JUMP JUMPDEST PUSH1 0x0 PUSH2 0x4490 PUSH1 0x26 DUP4 PUSH2 0x3A0A JUMP JUMPDEST SWAP2 POP PUSH2 0x449B DUP3 PUSH2 0x4434 JUMP JUMPDEST PUSH1 0x40 DUP3 ADD SWAP1 POP SWAP2 SWAP1 POP JUMP JUMPDEST PUSH1 0x0 PUSH1 0x20 DUP3 ADD SWAP1 POP DUP2 DUP2 SUB PUSH1 0x0 DUP4 ADD MSTORE PUSH2 0x44BF DUP2 PUSH2 0x4483 JUMP JUMPDEST SWAP1 POP SWAP2 SWAP1 POP JUMP JUMPDEST PUSH1 0x0 DUP2 MLOAD SWAP1 POP SWAP2 SWAP1 POP JUMP JUMPDEST PUSH1 0x0 PUSH2 0x44DC DUP3 PUSH2 0x44C6 JUMP JUMPDEST PUSH2 0x44E6 DUP2 DUP6 PUSH2 0x409F JUMP JUMPDEST SWAP4 POP PUSH2 0x44F6 DUP2 DUP6 PUSH1 0x20 DUP7 ADD PUSH2 0x4147 JUMP JUMPDEST DUP1 DUP5 ADD SWAP2 POP POP SWAP3 SWAP2 POP POP JUMP JUMPDEST PUSH1 0x0 PUSH2 0x450E DUP3 DUP5 PUSH2 0x44D1 JUMP JUMPDEST SWAP2 POP DUP2 SWAP1 POP SWAP3 SWAP2 POP POP JUMP JUMPDEST PUSH32 0x416464726573733A2063616C6C20746F206E6F6E2D636F6E7472616374000000 PUSH1 0x0 DUP3 ADD MSTORE POP JUMP JUMPDEST PUSH1 0x0 PUSH2 0x454F PUSH1 0x1D DUP4 PUSH2 0x3A0A JUMP JUMPDEST SWAP2 POP PUSH2 0x455A DUP3 PUSH2 0x4519 JUMP JUMPDEST PUSH1 0x20 DUP3 ADD SWAP1 POP SWAP2 SWAP1 POP JUMP JUMPDEST PUSH1 0x0 PUSH1 0x20 DUP3 ADD SWAP1 POP DUP2 DUP2 SUB PUSH1 0x0 DUP4 ADD MSTORE PUSH2 0x457E DUP2 PUSH2 0x4542 JUMP JUMPDEST SWAP1 POP SWAP2 SWAP1 POP JUMP INVALID LOG2 PUSH5 0x6970667358 0x22 SLT KECCAK256 0x1F 0xCF 0x5D AND 0xC9 0x5D 0x4A 0x4B SWAP3 PUSH15 0x62A8773AC7A8323E139F06764CEE68 0xC3 SWAP12 0xB9 0xF6 STOP BALANCE NUMBER PUSH5 0x736F6C6343 STOP ADDMOD GT STOP CALLER "
		},
		"gasEstimates": {
			"creation": {
				"codeDepositCost": "3570200",
				"executionCost": "4007",
				"totalCost": "3574207"
			},
			"external": {
				"ACCEPTED_TOKEN()": "483",
				"ADMIN()": "441",
				"DEFAULT_ADMIN_ROLE()": "402",
				"DONATION_RECIPIENT()": "418",
				"FEE_RECEIVER()": "374",
				"HUNDRED()": "417",
				"NATIVE()": "423",
				"addAdmin(address[])": "infinite",
				"addDonationRecipient(address[])": "infinite",
				"addFeeReceiver(address[])": "infinite",
				"addToken(address[])": "infinite",
				"balanceOf(address,address)": "infinite",
				"balances(address,address)": "infinite",
				"balancesOf(address[],address)": "infinite",
				"distribute(address[],address)": "infinite",
				"distributeMany(address[],address[])": "infinite",
				"getRoleAdmin(bytes32)": "infinite",
				"grantRole(bytes32,address)": "infinite",
				"hasRole(bytes32,address)": "3252",
				"init()": "26689",
				"initialize(address[],address[],address[],address[],uint256)": "infinite",
				"isAdmin(address)": "3061",
				"isDonationRecipient(address)": "3125",
				"isFeeReceiver(address)": "3126",
				"isRecipientWhitelistActive()": "2567",
				"isTokenAccepted(address)": "3106",
				"isTokenWhitelistActive()": "2626",
				"minFee()": "2497",
				"removeAdmin(address[])": "infinite",
				"removeDonationRecipient(address[])": "infinite",
				"removeFeeReceiver(address[])": "infinite",
				"removeToken(address[])": "infinite",
				"renounceRole(bytes32,address)": "infinite",
				"revokeAdmin()": "infinite",
				"revokeRole(bytes32,address)": "infinite",
				"roundAddress()": "2624",
				"setIsRecipientWhitelistActive(bool)": "infinite",
				"setIsTokenWhitelistActive(bool)": "infinite",
				"setMinFee(uint256)": "infinite",
				"supportsInterface(bytes4)": "774",
				"vote(bytes[],address)": "infinite",
				"withdraw(address,uint256)": "infinite",
				"withdrawFee(address)": "infinite",
				"withdrawFeeMany(address[])": "infinite",
				"withdrawMany(address[])": "infinite"
			},
			"internal": {
				"__DonationHandler_init(address[] calldata,address[] calldata,address[] calldata,address[] calldata,uint256)": "infinite",
				"_registerDonation(address,address,uint256)": "infinite",
				"_registerFee(address,uint256)": "infinite",
				"_setMinFee(uint256)": "infinite",
				"_transfer(address,address,uint256)": "infinite",
				"_withdraw(address,address,address,uint256)": "infinite",
				"_withdrawAll(address[] memory,address,address)": "infinite"
			}
		},
		"methodIdentifiers": {
			"ACCEPTED_TOKEN()": "fdbb219d",
			"ADMIN()": "2a0acc6a",
			"DEFAULT_ADMIN_ROLE()": "a217fddf",
			"DONATION_RECIPIENT()": "dcda7dad",
			"FEE_RECEIVER()": "d3e78e4d",
			"HUNDRED()": "f85fc0ab",
			"NATIVE()": "a0cf0aea",
			"addAdmin(address[])": "3d0950a8",
			"addDonationRecipient(address[])": "80c78f1c",
			"addFeeReceiver(address[])": "9d082c98",
			"addToken(address[])": "10881166",
			"balanceOf(address,address)": "f7888aec",
			"balances(address,address)": "c23f001f",
			"balancesOf(address[],address)": "f46b80ca",
			"distribute(address[],address)": "42e228ef",
			"distributeMany(address[],address[])": "3b8453ca",
			"getRoleAdmin(bytes32)": "248a9ca3",
			"grantRole(bytes32,address)": "2f2ff15d",
			"hasRole(bytes32,address)": "91d14854",
			"init()": "e1c7392a",
			"initialize(address[],address[],address[],address[],uint256)": "f2d4120e",
			"isAdmin(address)": "24d7806c",
			"isDonationRecipient(address)": "fbfe3ab2",
			"isFeeReceiver(address)": "b278110f",
			"isRecipientWhitelistActive()": "102d7927",
			"isTokenAccepted(address)": "0560bd96",
			"isTokenWhitelistActive()": "60e007a6",
			"minFee()": "24ec7590",
			"removeAdmin(address[])": "ae876f61",
			"removeDonationRecipient(address[])": "1037d18c",
			"removeFeeReceiver(address[])": "2620d800",
			"removeToken(address[])": "bf7cb70b",
			"renounceRole(bytes32,address)": "36568abe",
			"revokeAdmin()": "0d6aef04",
			"revokeRole(bytes32,address)": "d547741f",
			"roundAddress()": "0b67d925",
			"setIsRecipientWhitelistActive(bool)": "6bb85f4c",
			"setIsTokenWhitelistActive(bool)": "155dc549",
			"setMinFee(uint256)": "31ac9920",
			"supportsInterface(bytes4)": "01ffc9a7",
			"vote(bytes[],address)": "fc6d4e39",
			"withdraw(address,uint256)": "f3fef3a3",
			"withdrawFee(address)": "1ac3ddeb",
			"withdrawFeeMany(address[])": "041c60ee",
			"withdrawMany(address[])": "658e4821"
		}
	},
	"abi": [
		{
			"inputs": [],
			"name": "FeeTooHigh",
			"type": "error"
		},
		{
			"inputs": [],
			"name": "FeeTooLow",
			"type": "error"
		},
		{
			"inputs": [],
			"name": "InsufficientBalance",
			"type": "error"
		},
		{
			"inputs": [],
			"name": "InvalidAmount",
			"type": "error"
		},
		{
			"inputs": [],
			"name": "NotAdmin",
			"type": "error"
		},
		{
			"inputs": [],
			"name": "NotDefaultAdmin",
			"type": "error"
		},
		{
			"inputs": [],
			"name": "NotFeeReceiver",
			"type": "error"
		},
		{
			"inputs": [],
			"name": "RecipientNotAccepted",
			"type": "error"
		},
		{
			"inputs": [],
			"name": "TokenNotAccepted",
			"type": "error"
		},
		{
			"inputs": [],
			"name": "TransferFailed",
			"type": "error"
		},
		{
			"anonymous": false,
			"inputs": [
				{
					"indexed": true,
					"internalType": "address",
					"name": "token",
					"type": "address"
				},
				{
					"indexed": true,
					"internalType": "address",
					"name": "from",
					"type": "address"
				},
				{
					"indexed": true,
					"internalType": "address",
					"name": "recipient",
					"type": "address"
				},
				{
					"indexed": false,
					"internalType": "uint256",
					"name": "amount",
					"type": "uint256"
				}
			],
			"name": "DonationRegistered",
			"type": "event"
		},
		{
			"anonymous": false,
			"inputs": [
				{
					"indexed": true,
					"internalType": "address",
					"name": "token",
					"type": "address"
				},
				{
					"indexed": true,
					"internalType": "address",
					"name": "from",
					"type": "address"
				},
				{
					"indexed": false,
					"internalType": "uint256",
					"name": "amount",
					"type": "uint256"
				}
			],
			"name": "FeeRegistered",
			"type": "event"
		},
		{
			"anonymous": false,
			"inputs": [
				{
					"indexed": false,
					"internalType": "uint8",
					"name": "version",
					"type": "uint8"
				}
			],
			"name": "Initialized",
			"type": "event"
		},
		{
			"anonymous": false,
			"inputs": [
				{
					"indexed": false,
					"internalType": "bool",
					"name": "isRecipientWhitelistActive",
					"type": "bool"
				}
			],
			"name": "IsRecipientWhitelistActiveSet",
			"type": "event"
		},
		{
			"anonymous": false,
			"inputs": [
				{
					"indexed": false,
					"internalType": "bool",
					"name": "isTokenWhitelistActive",
					"type": "bool"
				}
			],
			"name": "IsTokenWhitelistActiveSet",
			"type": "event"
		},
		{
			"anonymous": false,
			"inputs": [
				{
					"indexed": false,
					"internalType": "uint256",
					"name": "minFee",
					"type": "uint256"
				}
			],
			"name": "MinFeeSet",
			"type": "event"
		},
		{
			"anonymous": false,
			"inputs": [
				{
					"indexed": true,
					"internalType": "bytes32",
					"name": "role",
					"type": "bytes32"
				},
				{
					"indexed": true,
					"internalType": "bytes32",
					"name": "previousAdminRole",
					"type": "bytes32"
				},
				{
					"indexed": true,
					"internalType": "bytes32",
					"name": "newAdminRole",
					"type": "bytes32"
				}
			],
			"name": "RoleAdminChanged",
			"type": "event"
		},
		{
			"anonymous": false,
			"inputs": [
				{
					"indexed": true,
					"internalType": "bytes32",
					"name": "role",
					"type": "bytes32"
				},
				{
					"indexed": true,
					"internalType": "address",
					"name": "account",
					"type": "address"
				},
				{
					"indexed": true,
					"internalType": "address",
					"name": "sender",
					"type": "address"
				}
			],
			"name": "RoleGranted",
			"type": "event"
		},
		{
			"anonymous": false,
			"inputs": [
				{
					"indexed": true,
					"internalType": "bytes32",
					"name": "role",
					"type": "bytes32"
				},
				{
					"indexed": true,
					"internalType": "address",
					"name": "account",
					"type": "address"
				},
				{
					"indexed": true,
					"internalType": "address",
					"name": "sender",
					"type": "address"
				}
			],
			"name": "RoleRevoked",
			"type": "event"
		},
		{
			"anonymous": false,
			"inputs": [
				{
					"indexed": false,
					"internalType": "address",
					"name": "token",
					"type": "address"
				},
				{
					"indexed": false,
					"internalType": "uint256",
					"name": "amount",
					"type": "uint256"
				},
				{
					"indexed": true,
					"internalType": "address",
					"name": "voter",
					"type": "address"
				},
				{
					"indexed": true,
					"internalType": "address",
					"name": "grantAddress",
					"type": "address"
				},
				{
					"indexed": true,
					"internalType": "address",
					"name": "roundAddress",
					"type": "address"
				}
			],
			"name": "Voted",
			"type": "event"
		},
		{
			"anonymous": false,
			"inputs": [
				{
					"indexed": true,
					"internalType": "address",
					"name": "token",
					"type": "address"
				},
				{
					"indexed": true,
					"internalType": "address",
					"name": "from",
					"type": "address"
				},
				{
					"indexed": true,
					"internalType": "address",
					"name": "to",
					"type": "address"
				},
				{
					"indexed": false,
					"internalType": "uint256",
					"name": "amount",
					"type": "uint256"
				}
			],
			"name": "Withdraw",
			"type": "event"
		},
		{
			"inputs": [],
			"name": "ACCEPTED_TOKEN",
			"outputs": [
				{
					"internalType": "bytes32",
					"name": "",
					"type": "bytes32"
				}
			],
			"stateMutability": "view",
			"type": "function"
		},
		{
			"inputs": [],
			"name": "ADMIN",
			"outputs": [
				{
					"internalType": "bytes32",
					"name": "",
					"type": "bytes32"
				}
			],
			"stateMutability": "view",
			"type": "function"
		},
		{
			"inputs": [],
			"name": "DEFAULT_ADMIN_ROLE",
			"outputs": [
				{
					"internalType": "bytes32",
					"name": "",
					"type": "bytes32"
				}
			],
			"stateMutability": "view",
			"type": "function"
		},
		{
			"inputs": [],
			"name": "DONATION_RECIPIENT",
			"outputs": [
				{
					"internalType": "bytes32",
					"name": "",
					"type": "bytes32"
				}
			],
			"stateMutability": "view",
			"type": "function"
		},
		{
			"inputs": [],
			"name": "FEE_RECEIVER",
			"outputs": [
				{
					"internalType": "bytes32",
					"name": "",
					"type": "bytes32"
				}
			],
			"stateMutability": "view",
			"type": "function"
		},
		{
			"inputs": [],
			"name": "HUNDRED",
			"outputs": [
				{
					"internalType": "uint256",
					"name": "",
					"type": "uint256"
				}
			],
			"stateMutability": "view",
			"type": "function"
		},
		{
			"inputs": [],
			"name": "NATIVE",
			"outputs": [
				{
					"internalType": "address",
					"name": "",
					"type": "address"
				}
			],
			"stateMutability": "view",
			"type": "function"
		},
		{
			"inputs": [
				{
					"internalType": "address[]",
					"name": "_admins",
					"type": "address[]"
				}
			],
			"name": "addAdmin",
			"outputs": [],
			"stateMutability": "nonpayable",
			"type": "function"
		},
		{
			"inputs": [
				{
					"internalType": "address[]",
					"name": "_recipients",
					"type": "address[]"
				}
			],
			"name": "addDonationRecipient",
			"outputs": [],
			"stateMutability": "nonpayable",
			"type": "function"
		},
		{
			"inputs": [
				{
					"internalType": "address[]",
					"name": "_feeReceiver",
					"type": "address[]"
				}
			],
			"name": "addFeeReceiver",
			"outputs": [],
			"stateMutability": "nonpayable",
			"type": "function"
		},
		{
			"inputs": [
				{
					"internalType": "address[]",
					"name": "_token",
					"type": "address[]"
				}
			],
			"name": "addToken",
			"outputs": [],
			"stateMutability": "nonpayable",
			"type": "function"
		},
		{
			"inputs": [
				{
					"internalType": "address",
					"name": "_token",
					"type": "address"
				},
				{
					"internalType": "address",
					"name": "_user",
					"type": "address"
				}
			],
			"name": "balanceOf",
			"outputs": [
				{
					"internalType": "uint256",
					"name": "",
					"type": "uint256"
				}
			],
			"stateMutability": "view",
			"type": "function"
		},
		{
			"inputs": [
				{
					"internalType": "address",
					"name": "",
					"type": "address"
				},
				{
					"internalType": "address",
					"name": "",
					"type": "address"
				}
			],
			"name": "balances",
			"outputs": [
				{
					"internalType": "uint256",
					"name": "",
					"type": "uint256"
				}
			],
			"stateMutability": "view",
			"type": "function"
		},
		{
			"inputs": [
				{
					"internalType": "address[]",
					"name": "_token",
					"type": "address[]"
				},
				{
					"internalType": "address",
					"name": "_user",
					"type": "address"
				}
			],
			"name": "balancesOf",
			"outputs": [
				{
					"internalType": "uint256[]",
					"name": "",
					"type": "uint256[]"
				}
			],
			"stateMutability": "view",
			"type": "function"
		},
		{
			"inputs": [
				{
					"internalType": "address[]",
					"name": "_token",
					"type": "address[]"
				},
				{
					"internalType": "address",
					"name": "_to",
					"type": "address"
				}
			],
			"name": "distribute",
			"outputs": [],
			"stateMutability": "nonpayable",
			"type": "function"
		},
		{
			"inputs": [
				{
					"internalType": "address[]",
					"name": "_token",
					"type": "address[]"
				},
				{
					"internalType": "address[]",
					"name": "_to",
					"type": "address[]"
				}
			],
			"name": "distributeMany",
			"outputs": [],
			"stateMutability": "nonpayable",
			"type": "function"
		},
		{
			"inputs": [
				{
					"internalType": "bytes32",
					"name": "role",
					"type": "bytes32"
				}
			],
			"name": "getRoleAdmin",
			"outputs": [
				{
					"internalType": "bytes32",
					"name": "",
					"type": "bytes32"
				}
			],
			"stateMutability": "view",
			"type": "function"
		},
		{
			"inputs": [
				{
					"internalType": "bytes32",
					"name": "role",
					"type": "bytes32"
				},
				{
					"internalType": "address",
					"name": "account",
					"type": "address"
				}
			],
			"name": "grantRole",
			"outputs": [],
			"stateMutability": "nonpayable",
			"type": "function"
		},
		{
			"inputs": [
				{
					"internalType": "bytes32",
					"name": "role",
					"type": "bytes32"
				},
				{
					"internalType": "address",
					"name": "account",
					"type": "address"
				}
			],
			"name": "hasRole",
			"outputs": [
				{
					"internalType": "bool",
					"name": "",
					"type": "bool"
				}
			],
			"stateMutability": "view",
			"type": "function"
		},
		{
			"inputs": [],
			"name": "init",
			"outputs": [],
			"stateMutability": "nonpayable",
			"type": "function"
		},
		{
			"inputs": [
				{
					"internalType": "address[]",
					"name": "_acceptedToken",
					"type": "address[]"
				},
				{
					"internalType": "address[]",
					"name": "_donationReceiver",
					"type": "address[]"
				},
				{
					"internalType": "address[]",
					"name": "_feeReceiver",
					"type": "address[]"
				},
				{
					"internalType": "address[]",
					"name": "_admins",
					"type": "address[]"
				},
				{
					"internalType": "uint256",
					"name": "_minFee",
					"type": "uint256"
				}
			],
			"name": "initialize",
			"outputs": [],
			"stateMutability": "nonpayable",
			"type": "function"
		},
		{
			"inputs": [
				{
					"internalType": "address",
					"name": "_account",
					"type": "address"
				}
			],
			"name": "isAdmin",
			"outputs": [
				{
					"internalType": "bool",
					"name": "",
					"type": "bool"
				}
			],
			"stateMutability": "view",
			"type": "function"
		},
		{
			"inputs": [
				{
					"internalType": "address",
					"name": "_recipient",
					"type": "address"
				}
			],
			"name": "isDonationRecipient",
			"outputs": [
				{
					"internalType": "bool",
					"name": "",
					"type": "bool"
				}
			],
			"stateMutability": "view",
			"type": "function"
		},
		{
			"inputs": [
				{
					"internalType": "address",
					"name": "_receiver",
					"type": "address"
				}
			],
			"name": "isFeeReceiver",
			"outputs": [
				{
					"internalType": "bool",
					"name": "",
					"type": "bool"
				}
			],
			"stateMutability": "view",
			"type": "function"
		},
		{
			"inputs": [],
			"name": "isRecipientWhitelistActive",
			"outputs": [
				{
					"internalType": "bool",
					"name": "",
					"type": "bool"
				}
			],
			"stateMutability": "view",
			"type": "function"
		},
		{
			"inputs": [
				{
					"internalType": "address",
					"name": "_token",
					"type": "address"
				}
			],
			"name": "isTokenAccepted",
			"outputs": [
				{
					"internalType": "bool",
					"name": "",
					"type": "bool"
				}
			],
			"stateMutability": "view",
			"type": "function"
		},
		{
			"inputs": [],
			"name": "isTokenWhitelistActive",
			"outputs": [
				{
					"internalType": "bool",
					"name": "",
					"type": "bool"
				}
			],
			"stateMutability": "view",
			"type": "function"
		},
		{
			"inputs": [],
			"name": "minFee",
			"outputs": [
				{
					"internalType": "uint256",
					"name": "",
					"type": "uint256"
				}
			],
			"stateMutability": "view",
			"type": "function"
		},
		{
			"inputs": [
				{
					"internalType": "address[]",
					"name": "_admins",
					"type": "address[]"
				}
			],
			"name": "removeAdmin",
			"outputs": [],
			"stateMutability": "nonpayable",
			"type": "function"
		},
		{
			"inputs": [
				{
					"internalType": "address[]",
					"name": "_recipients",
					"type": "address[]"
				}
			],
			"name": "removeDonationRecipient",
			"outputs": [],
			"stateMutability": "nonpayable",
			"type": "function"
		},
		{
			"inputs": [
				{
					"internalType": "address[]",
					"name": "_feeReceiver",
					"type": "address[]"
				}
			],
			"name": "removeFeeReceiver",
			"outputs": [],
			"stateMutability": "nonpayable",
			"type": "function"
		},
		{
			"inputs": [
				{
					"internalType": "address[]",
					"name": "_token",
					"type": "address[]"
				}
			],
			"name": "removeToken",
			"outputs": [],
			"stateMutability": "nonpayable",
			"type": "function"
		},
		{
			"inputs": [
				{
					"internalType": "bytes32",
					"name": "role",
					"type": "bytes32"
				},
				{
					"internalType": "address",
					"name": "account",
					"type": "address"
				}
			],
			"name": "renounceRole",
			"outputs": [],
			"stateMutability": "nonpayable",
			"type": "function"
		},
		{
			"inputs": [],
			"name": "revokeAdmin",
			"outputs": [],
			"stateMutability": "nonpayable",
			"type": "function"
		},
		{
			"inputs": [
				{
					"internalType": "bytes32",
					"name": "role",
					"type": "bytes32"
				},
				{
					"internalType": "address",
					"name": "account",
					"type": "address"
				}
			],
			"name": "revokeRole",
			"outputs": [],
			"stateMutability": "nonpayable",
			"type": "function"
		},
		{
			"inputs": [],
			"name": "roundAddress",
			"outputs": [
				{
					"internalType": "address",
					"name": "",
					"type": "address"
				}
			],
			"stateMutability": "view",
			"type": "function"
		},
		{
			"inputs": [
				{
					"internalType": "bool",
					"name": "_isRecipientWhitelistActive",
					"type": "bool"
				}
			],
			"name": "setIsRecipientWhitelistActive",
			"outputs": [],
			"stateMutability": "nonpayable",
			"type": "function"
		},
		{
			"inputs": [
				{
					"internalType": "bool",
					"name": "_isTokenWhitelistActive",
					"type": "bool"
				}
			],
			"name": "setIsTokenWhitelistActive",
			"outputs": [],
			"stateMutability": "nonpayable",
			"type": "function"
		},
		{
			"inputs": [
				{
					"internalType": "uint256",
					"name": "_minFee",
					"type": "uint256"
				}
			],
			"name": "setMinFee",
			"outputs": [],
			"stateMutability": "nonpayable",
			"type": "function"
		},
		{
			"inputs": [
				{
					"internalType": "bytes4",
					"name": "interfaceId",
					"type": "bytes4"
				}
			],
			"name": "supportsInterface",
			"outputs": [
				{
					"internalType": "bool",
					"name": "",
					"type": "bool"
				}
			],
			"stateMutability": "view",
			"type": "function"
		},
		{
			"inputs": [
				{
					"internalType": "bytes[]",
					"name": "encodedVotes",
					"type": "bytes[]"
				},
				{
					"internalType": "address",
					"name": "voterAddress",
					"type": "address"
				}
			],
			"name": "vote",
			"outputs": [],
			"stateMutability": "payable",
			"type": "function"
		},
		{
			"inputs": [
				{
					"internalType": "address",
					"name": "_token",
					"type": "address"
				},
				{
					"internalType": "uint256",
					"name": "_amount",
					"type": "uint256"
				}
			],
			"name": "withdraw",
			"outputs": [],
			"stateMutability": "nonpayable",
			"type": "function"
		},
		{
			"inputs": [
				{
					"internalType": "address",
					"name": "_token",
					"type": "address"
				}
			],
			"name": "withdrawFee",
			"outputs": [],
			"stateMutability": "nonpayable",
			"type": "function"
		},
		{
			"inputs": [
				{
					"internalType": "address[]",
					"name": "_token",
					"type": "address[]"
				}
			],
			"name": "withdrawFeeMany",
			"outputs": [],
			"stateMutability": "nonpayable",
			"type": "function"
		},
		{
			"inputs": [
				{
					"internalType": "address[]",
					"name": "_token",
					"type": "address[]"
				}
			],
			"name": "withdrawMany",
			"outputs": [],
			"stateMutability": "nonpayable",
			"type": "function"
		}
	]
}